{
  "_format": "hh-sol-artifact-1",
  "contractName": "Plankton",
  "sourceName": "contracts/currencies/Plankton.sol",
  "abi": [
    {
      "inputs": [
        {
          "internalType": "uint256",
          "name": "_initialSupply",
          "type": "uint256"
        },
        {
          "internalType": "address",
          "name": "_beneficiary",
          "type": "address"
        }
      ],
      "stateMutability": "nonpayable",
      "type": "constructor"
    },
    {
      "anonymous": false,
      "inputs": [
        {
          "indexed": true,
          "internalType": "address",
          "name": "owner",
          "type": "address"
        },
        {
          "indexed": true,
          "internalType": "address",
          "name": "spender",
          "type": "address"
        },
        {
          "indexed": false,
          "internalType": "uint256",
          "name": "value",
          "type": "uint256"
        }
      ],
      "name": "Approval",
      "type": "event"
    },
    {
      "anonymous": false,
      "inputs": [
        {
          "indexed": true,
          "internalType": "address",
          "name": "previousOwner",
          "type": "address"
        },
        {
          "indexed": true,
          "internalType": "address",
          "name": "newOwner",
          "type": "address"
        }
      ],
      "name": "OwnershipTransferred",
      "type": "event"
    },
    {
      "anonymous": false,
      "inputs": [
        {
          "indexed": false,
          "internalType": "address",
          "name": "_from",
          "type": "address"
        },
        {
          "indexed": false,
          "internalType": "uint256",
          "name": "_amount",
          "type": "uint256"
        }
      ],
      "name": "PlanktonsBurned",
      "type": "event"
    },
    {
      "anonymous": false,
      "inputs": [
        {
          "indexed": false,
          "internalType": "address",
          "name": "_to",
          "type": "address"
        },
        {
          "indexed": false,
          "internalType": "uint256",
          "name": "_amount",
          "type": "uint256"
        }
      ],
      "name": "PlanktonsMinted",
      "type": "event"
    },
    {
      "anonymous": false,
      "inputs": [
        {
          "indexed": true,
          "internalType": "address",
          "name": "from",
          "type": "address"
        },
        {
          "indexed": true,
          "internalType": "address",
          "name": "to",
          "type": "address"
        },
        {
          "indexed": false,
          "internalType": "uint256",
          "name": "value",
          "type": "uint256"
        }
      ],
      "name": "Transfer",
      "type": "event"
    },
    {
      "inputs": [
        {
          "internalType": "address",
          "name": "owner",
          "type": "address"
        },
        {
          "internalType": "address",
          "name": "spender",
          "type": "address"
        }
      ],
      "name": "allowance",
      "outputs": [
        {
          "internalType": "uint256",
          "name": "",
          "type": "uint256"
        }
      ],
      "stateMutability": "view",
      "type": "function"
    },
    {
      "inputs": [
        {
          "internalType": "address",
          "name": "spender",
          "type": "address"
        },
        {
          "internalType": "uint256",
          "name": "amount",
          "type": "uint256"
        }
      ],
      "name": "approve",
      "outputs": [
        {
          "internalType": "bool",
          "name": "",
          "type": "bool"
        }
      ],
      "stateMutability": "nonpayable",
      "type": "function"
    },
    {
      "inputs": [
        {
          "internalType": "address",
          "name": "account",
          "type": "address"
        }
      ],
      "name": "balanceOf",
      "outputs": [
        {
          "internalType": "uint256",
          "name": "",
          "type": "uint256"
        }
      ],
      "stateMutability": "view",
      "type": "function"
    },
    {
      "inputs": [
        {
          "internalType": "uint256",
          "name": "_amount",
          "type": "uint256"
        }
      ],
      "name": "burnPlanktons",
      "outputs": [],
      "stateMutability": "nonpayable",
      "type": "function"
    },
    {
      "inputs": [],
      "name": "decimals",
      "outputs": [
        {
          "internalType": "uint8",
          "name": "",
          "type": "uint8"
        }
      ],
      "stateMutability": "view",
      "type": "function"
    },
    {
      "inputs": [
        {
          "internalType": "address",
          "name": "spender",
          "type": "address"
        },
        {
          "internalType": "uint256",
          "name": "subtractedValue",
          "type": "uint256"
        }
      ],
      "name": "decreaseAllowance",
      "outputs": [
        {
          "internalType": "bool",
          "name": "",
          "type": "bool"
        }
      ],
      "stateMutability": "nonpayable",
      "type": "function"
    },
    {
      "inputs": [
        {
          "internalType": "address",
          "name": "spender",
          "type": "address"
        },
        {
          "internalType": "uint256",
          "name": "addedValue",
          "type": "uint256"
        }
      ],
      "name": "increaseAllowance",
      "outputs": [
        {
          "internalType": "bool",
          "name": "",
          "type": "bool"
        }
      ],
      "stateMutability": "nonpayable",
      "type": "function"
    },
    {
      "inputs": [],
      "name": "initialSupply",
      "outputs": [
        {
          "internalType": "uint256",
          "name": "",
          "type": "uint256"
        }
      ],
      "stateMutability": "view",
      "type": "function"
    },
    {
      "inputs": [
        {
          "internalType": "address",
          "name": "_to",
          "type": "address"
        },
        {
          "internalType": "uint256",
          "name": "_amount",
          "type": "uint256"
        }
      ],
      "name": "mintPlanktons",
      "outputs": [],
      "stateMutability": "nonpayable",
      "type": "function"
    },
    {
      "inputs": [],
      "name": "name",
      "outputs": [
        {
          "internalType": "string",
          "name": "",
          "type": "string"
        }
      ],
      "stateMutability": "view",
      "type": "function"
    },
    {
      "inputs": [],
      "name": "owner",
      "outputs": [
        {
          "internalType": "address",
          "name": "",
          "type": "address"
        }
      ],
      "stateMutability": "view",
      "type": "function"
    },
    {
      "inputs": [],
      "name": "renounceOwnership",
      "outputs": [],
      "stateMutability": "nonpayable",
      "type": "function"
    },
    {
      "inputs": [],
      "name": "symbol",
      "outputs": [
        {
          "internalType": "string",
          "name": "",
          "type": "string"
        }
      ],
      "stateMutability": "view",
      "type": "function"
    },
    {
      "inputs": [],
      "name": "totalSupply",
      "outputs": [
        {
          "internalType": "uint256",
          "name": "",
          "type": "uint256"
        }
      ],
      "stateMutability": "view",
      "type": "function"
    },
    {
      "inputs": [
        {
          "internalType": "address",
          "name": "recipient",
          "type": "address"
        },
        {
          "internalType": "uint256",
          "name": "amount",
          "type": "uint256"
        }
      ],
      "name": "transfer",
      "outputs": [
        {
          "internalType": "bool",
          "name": "",
          "type": "bool"
        }
      ],
      "stateMutability": "nonpayable",
      "type": "function"
    },
    {
      "inputs": [
        {
          "internalType": "address",
          "name": "sender",
          "type": "address"
        },
        {
          "internalType": "address",
          "name": "recipient",
          "type": "address"
        },
        {
          "internalType": "uint256",
          "name": "amount",
          "type": "uint256"
        }
      ],
      "name": "transferFrom",
      "outputs": [
        {
          "internalType": "bool",
          "name": "",
          "type": "bool"
        }
      ],
      "stateMutability": "nonpayable",
      "type": "function"
    },
    {
      "inputs": [
        {
          "internalType": "address",
          "name": "newOwner",
          "type": "address"
        }
      ],
      "name": "transferOwnership",
      "outputs": [],
      "stateMutability": "nonpayable",
      "type": "function"
    }
  ],
  "bytecode": "0x60806040523480156200001157600080fd5b506040516200253f3803806200253f833981810160405281019062000037919062000447565b6040518060400160405280600881526020017f506c616e6b746f6e0000000000000000000000000000000000000000000000008152506040518060400160405280600581526020017f504c414e4b0000000000000000000000000000000000000000000000000000008152508160039080519060200190620000bb92919062000369565b508060049080519060200190620000d492919062000369565b505050620000f7620000eb6200011860201b60201c565b6200012060201b60201c565b620001098183620001e660201b60201c565b8160068190555050506200069c565b600033905090565b6000600560009054906101000a900473ffffffffffffffffffffffffffffffffffffffff16905081600560006101000a81548173ffffffffffffffffffffffffffffffffffffffff021916908373ffffffffffffffffffffffffffffffffffffffff1602179055508173ffffffffffffffffffffffffffffffffffffffff168173ffffffffffffffffffffffffffffffffffffffff167f8be0079c531659141344cd1fd0a4f28419497f9722a3daafe3b4186f6b6457e060405160405180910390a35050565b600073ffffffffffffffffffffffffffffffffffffffff168273ffffffffffffffffffffffffffffffffffffffff16141562000259576040517f08c379a00000000000000000000000000000000000000000000000000000000081526004016200025090620004c0565b60405180910390fd5b6200026d600083836200035f60201b60201c565b806002600082825462000281919062000510565b92505081905550806000808473ffffffffffffffffffffffffffffffffffffffff1673ffffffffffffffffffffffffffffffffffffffff1681526020019081526020016000206000828254620002d8919062000510565b925050819055508173ffffffffffffffffffffffffffffffffffffffff16600073ffffffffffffffffffffffffffffffffffffffff167fddf252ad1be2c89b69c2b068fc378daa952ba7f163c4a11628f55a4df523b3ef836040516200033f9190620004e2565b60405180910390a36200035b600083836200036460201b60201c565b5050565b505050565b505050565b8280546200037790620005ab565b90600052602060002090601f0160209004810192826200039b5760008555620003e7565b82601f10620003b657805160ff1916838001178555620003e7565b82800160010185558215620003e7579182015b82811115620003e6578251825591602001919060010190620003c9565b5b509050620003f69190620003fa565b5090565b5b8082111562000415576000816000905550600101620003fb565b5090565b6000815190506200042a8162000668565b92915050565b600081519050620004418162000682565b92915050565b600080604083850312156200045b57600080fd5b60006200046b8582860162000430565b92505060206200047e8582860162000419565b9150509250929050565b600062000497601f83620004ff565b9150620004a4826200063f565b602082019050919050565b620004ba81620005a1565b82525050565b60006020820190508181036000830152620004db8162000488565b9050919050565b6000602082019050620004f96000830184620004af565b92915050565b600082825260208201905092915050565b60006200051d82620005a1565b91506200052a83620005a1565b9250827fffffffffffffffffffffffffffffffffffffffffffffffffffffffffffffffff03821115620005625762000561620005e1565b5b828201905092915050565b60006200057a8262000581565b9050919050565b600073ffffffffffffffffffffffffffffffffffffffff82169050919050565b6000819050919050565b60006002820490506001821680620005c457607f821691505b60208210811415620005db57620005da62000610565b5b50919050565b7f4e487b7100000000000000000000000000000000000000000000000000000000600052601160045260246000fd5b7f4e487b7100000000000000000000000000000000000000000000000000000000600052602260045260246000fd5b7f45524332303a206d696e7420746f20746865207a65726f206164647265737300600082015250565b62000673816200056d565b81146200067f57600080fd5b50565b6200068d81620005a1565b81146200069957600080fd5b50565b611e9380620006ac6000396000f3fe608060405234801561001057600080fd5b506004361061010b5760003560e01c806370a08231116100a2578063a457c2d711610071578063a457c2d7146102aa578063a9059cbb146102da578063db2c42231461030a578063dd62ed3e14610326578063f2fde38b146103565761010b565b806370a0823114610234578063715018a6146102645780638da5cb5b1461026e57806395d89b411461028c5761010b565b8063313ce567116100de578063313ce567146101ac578063378dc3dc146101ca57806339509351146101e85780635e1e50f3146102185761010b565b806306fdde0314610110578063095ea7b31461012e57806318160ddd1461015e57806323b872dd1461017c575b600080fd5b610118610372565b6040516101259190611720565b60405180910390f35b61014860048036038101906101439190611443565b610404565b6040516101559190611705565b60405180910390f35b610166610422565b60405161017391906118c2565b60405180910390f35b610196600480360381019061019191906113f4565b61042c565b6040516101a39190611705565b60405180910390f35b6101b4610524565b6040516101c191906118dd565b60405180910390f35b6101d261052d565b6040516101df91906118c2565b60405180910390f35b61020260048036038101906101fd9190611443565b610533565b60405161020f9190611705565b60405180910390f35b610232600480360381019061022d9190611443565b6105df565b005b61024e6004803603810190610249919061138f565b6106a2565b60405161025b91906118c2565b60405180910390f35b61026c6106ea565b005b610276610772565b60405161028391906116c1565b60405180910390f35b61029461079c565b6040516102a19190611720565b60405180910390f35b6102c460048036038101906102bf9190611443565b61082e565b6040516102d19190611705565b60405180910390f35b6102f460048036038101906102ef9190611443565b610919565b6040516103019190611705565b60405180910390f35b610324600480360381019061031f919061147f565b610937565b005b610340600480360381019061033b91906113b8565b61098b565b60405161034d91906118c2565b60405180910390f35b610370600480360381019061036b919061138f565b610a12565b005b60606003805461038190611a26565b80601f01602080910402602001604051908101604052809291908181526020018280546103ad90611a26565b80156103fa5780601f106103cf576101008083540402835291602001916103fa565b820191906000526020600020905b8154815290600101906020018083116103dd57829003601f168201915b5050505050905090565b6000610418610411610b0a565b8484610b12565b6001905092915050565b6000600254905090565b6000610439848484610cdd565b6000600160008673ffffffffffffffffffffffffffffffffffffffff1673ffffffffffffffffffffffffffffffffffffffff1681526020019081526020016000206000610484610b0a565b73ffffffffffffffffffffffffffffffffffffffff1673ffffffffffffffffffffffffffffffffffffffff16815260200190815260200160002054905082811015610504576040517f08c379a00000000000000000000000000000000000000000000000000000000081526004016104fb906117e2565b60405180910390fd5b61051885610510610b0a565b858403610b12565b60019150509392505050565b60006012905090565b60065481565b60006105d5610540610b0a565b84846001600061054e610b0a565b73ffffffffffffffffffffffffffffffffffffffff1673ffffffffffffffffffffffffffffffffffffffff16815260200190815260200160002060008873ffffffffffffffffffffffffffffffffffffffff1673ffffffffffffffffffffffffffffffffffffffff168152602001908152602001600020546105d09190611914565b610b12565b6001905092915050565b6105e7610b0a565b73ffffffffffffffffffffffffffffffffffffffff16610605610772565b73ffffffffffffffffffffffffffffffffffffffff161461065b576040517f08c379a000000000000000000000000000000000000000000000000000000000815260040161065290611802565b60405180910390fd5b6106658282610f5e565b7fc858a6e0f13503b6f7c4727e1532177a5a43a042537ab8d93b718184bc527e7382826040516106969291906116dc565b60405180910390a15050565b60008060008373ffffffffffffffffffffffffffffffffffffffff1673ffffffffffffffffffffffffffffffffffffffff168152602001908152602001600020549050919050565b6106f2610b0a565b73ffffffffffffffffffffffffffffffffffffffff16610710610772565b73ffffffffffffffffffffffffffffffffffffffff1614610766576040517f08c379a000000000000000000000000000000000000000000000000000000000815260040161075d90611802565b60405180910390fd5b61077060006110be565b565b6000600560009054906101000a900473ffffffffffffffffffffffffffffffffffffffff16905090565b6060600480546107ab90611a26565b80601f01602080910402602001604051908101604052809291908181526020018280546107d790611a26565b80156108245780601f106107f957610100808354040283529160200191610824565b820191906000526020600020905b81548152906001019060200180831161080757829003601f168201915b5050505050905090565b6000806001600061083d610b0a565b73ffffffffffffffffffffffffffffffffffffffff1673ffffffffffffffffffffffffffffffffffffffff16815260200190815260200160002060008573ffffffffffffffffffffffffffffffffffffffff1673ffffffffffffffffffffffffffffffffffffffff168152602001908152602001600020549050828110156108fa576040517f08c379a00000000000000000000000000000000000000000000000000000000081526004016108f190611882565b60405180910390fd5b61090e610905610b0a565b85858403610b12565b600191505092915050565b600061092d610926610b0a565b8484610cdd565b6001905092915050565b610948610942610b0a565b82611184565b7f4b42e6673c67f160cc6ca2f372db072da1d72afb6aa1c46aabd1e6cb8400a143610971610b0a565b826040516109809291906116dc565b60405180910390a150565b6000600160008473ffffffffffffffffffffffffffffffffffffffff1673ffffffffffffffffffffffffffffffffffffffff16815260200190815260200160002060008373ffffffffffffffffffffffffffffffffffffffff1673ffffffffffffffffffffffffffffffffffffffff16815260200190815260200160002054905092915050565b610a1a610b0a565b73ffffffffffffffffffffffffffffffffffffffff16610a38610772565b73ffffffffffffffffffffffffffffffffffffffff1614610a8e576040517f08c379a0000000000000000000000000000000000000000000000000000000008152600401610a8590611802565b60405180910390fd5b600073ffffffffffffffffffffffffffffffffffffffff168173ffffffffffffffffffffffffffffffffffffffff161415610afe576040517f08c379a0000000000000000000000000000000000000000000000000000000008152600401610af590611782565b60405180910390fd5b610b07816110be565b50565b600033905090565b600073ffffffffffffffffffffffffffffffffffffffff168373ffffffffffffffffffffffffffffffffffffffff161415610b82576040517f08c379a0000000000000000000000000000000000000000000000000000000008152600401610b7990611862565b60405180910390fd5b600073ffffffffffffffffffffffffffffffffffffffff168273ffffffffffffffffffffffffffffffffffffffff161415610bf2576040517f08c379a0000000000000000000000000000000000000000000000000000000008152600401610be9906117a2565b60405180910390fd5b80600160008573ffffffffffffffffffffffffffffffffffffffff1673ffffffffffffffffffffffffffffffffffffffff16815260200190815260200160002060008473ffffffffffffffffffffffffffffffffffffffff1673ffffffffffffffffffffffffffffffffffffffff168152602001908152602001600020819055508173ffffffffffffffffffffffffffffffffffffffff168373ffffffffffffffffffffffffffffffffffffffff167f8c5be1e5ebec7d5bd14f71427d1e84f3dd0314c0f7b2291e5b200ac8c7c3b92583604051610cd091906118c2565b60405180910390a3505050565b600073ffffffffffffffffffffffffffffffffffffffff168373ffffffffffffffffffffffffffffffffffffffff161415610d4d576040517f08c379a0000000000000000000000000000000000000000000000000000000008152600401610d4490611842565b60405180910390fd5b600073ffffffffffffffffffffffffffffffffffffffff168273ffffffffffffffffffffffffffffffffffffffff161415610dbd576040517f08c379a0000000000000000000000000000000000000000000000000000000008152600401610db490611742565b60405180910390fd5b610dc883838361135b565b60008060008573ffffffffffffffffffffffffffffffffffffffff1673ffffffffffffffffffffffffffffffffffffffff16815260200190815260200160002054905081811015610e4e576040517f08c379a0000000000000000000000000000000000000000000000000000000008152600401610e45906117c2565b60405180910390fd5b8181036000808673ffffffffffffffffffffffffffffffffffffffff1673ffffffffffffffffffffffffffffffffffffffff16815260200190815260200160002081905550816000808573ffffffffffffffffffffffffffffffffffffffff1673ffffffffffffffffffffffffffffffffffffffff1681526020019081526020016000206000828254610ee19190611914565b925050819055508273ffffffffffffffffffffffffffffffffffffffff168473ffffffffffffffffffffffffffffffffffffffff167fddf252ad1be2c89b69c2b068fc378daa952ba7f163c4a11628f55a4df523b3ef84604051610f4591906118c2565b60405180910390a3610f58848484611360565b50505050565b600073ffffffffffffffffffffffffffffffffffffffff168273ffffffffffffffffffffffffffffffffffffffff161415610fce576040517f08c379a0000000000000000000000000000000000000000000000000000000008152600401610fc5906118a2565b60405180910390fd5b610fda6000838361135b565b8060026000828254610fec9190611914565b92505081905550806000808473ffffffffffffffffffffffffffffffffffffffff1673ffffffffffffffffffffffffffffffffffffffff16815260200190815260200160002060008282546110419190611914565b925050819055508173ffffffffffffffffffffffffffffffffffffffff16600073ffffffffffffffffffffffffffffffffffffffff167fddf252ad1be2c89b69c2b068fc378daa952ba7f163c4a11628f55a4df523b3ef836040516110a691906118c2565b60405180910390a36110ba60008383611360565b5050565b6000600560009054906101000a900473ffffffffffffffffffffffffffffffffffffffff16905081600560006101000a81548173ffffffffffffffffffffffffffffffffffffffff021916908373ffffffffffffffffffffffffffffffffffffffff1602179055508173ffffffffffffffffffffffffffffffffffffffff168173ffffffffffffffffffffffffffffffffffffffff167f8be0079c531659141344cd1fd0a4f28419497f9722a3daafe3b4186f6b6457e060405160405180910390a35050565b600073ffffffffffffffffffffffffffffffffffffffff168273ffffffffffffffffffffffffffffffffffffffff1614156111f4576040517f08c379a00000000000000000000000000000000000000000000000000000000081526004016111eb90611822565b60405180910390fd5b6112008260008361135b565b60008060008473ffffffffffffffffffffffffffffffffffffffff1673ffffffffffffffffffffffffffffffffffffffff16815260200190815260200160002054905081811015611286576040517f08c379a000000000000000000000000000000000000000000000000000000000815260040161127d90611762565b60405180910390fd5b8181036000808573ffffffffffffffffffffffffffffffffffffffff1673ffffffffffffffffffffffffffffffffffffffff1681526020019081526020016000208190555081600260008282546112dd919061196a565b92505081905550600073ffffffffffffffffffffffffffffffffffffffff168373ffffffffffffffffffffffffffffffffffffffff167fddf252ad1be2c89b69c2b068fc378daa952ba7f163c4a11628f55a4df523b3ef8460405161134291906118c2565b60405180910390a361135683600084611360565b505050565b505050565b505050565b60008135905061137481611e2f565b92915050565b60008135905061138981611e46565b92915050565b6000602082840312156113a157600080fd5b60006113af84828501611365565b91505092915050565b600080604083850312156113cb57600080fd5b60006113d985828601611365565b92505060206113ea85828601611365565b9150509250929050565b60008060006060848603121561140957600080fd5b600061141786828701611365565b935050602061142886828701611365565b92505060406114398682870161137a565b9150509250925092565b6000806040838503121561145657600080fd5b600061146485828601611365565b92505060206114758582860161137a565b9150509250929050565b60006020828403121561149157600080fd5b600061149f8482850161137a565b91505092915050565b6114b18161199e565b82525050565b6114c0816119b0565b82525050565b60006114d1826118f8565b6114db8185611903565b93506114eb8185602086016119f3565b6114f481611ab6565b840191505092915050565b600061150c602383611903565b915061151782611ac7565b604082019050919050565b600061152f602283611903565b915061153a82611b16565b604082019050919050565b6000611552602683611903565b915061155d82611b65565b604082019050919050565b6000611575602283611903565b915061158082611bb4565b604082019050919050565b6000611598602683611903565b91506115a382611c03565b604082019050919050565b60006115bb602883611903565b91506115c682611c52565b604082019050919050565b60006115de602083611903565b91506115e982611ca1565b602082019050919050565b6000611601602183611903565b915061160c82611cca565b604082019050919050565b6000611624602583611903565b915061162f82611d19565b604082019050919050565b6000611647602483611903565b915061165282611d68565b604082019050919050565b600061166a602583611903565b915061167582611db7565b604082019050919050565b600061168d601f83611903565b915061169882611e06565b602082019050919050565b6116ac816119dc565b82525050565b6116bb816119e6565b82525050565b60006020820190506116d660008301846114a8565b92915050565b60006040820190506116f160008301856114a8565b6116fe60208301846116a3565b9392505050565b600060208201905061171a60008301846114b7565b92915050565b6000602082019050818103600083015261173a81846114c6565b905092915050565b6000602082019050818103600083015261175b816114ff565b9050919050565b6000602082019050818103600083015261177b81611522565b9050919050565b6000602082019050818103600083015261179b81611545565b9050919050565b600060208201905081810360008301526117bb81611568565b9050919050565b600060208201905081810360008301526117db8161158b565b9050919050565b600060208201905081810360008301526117fb816115ae565b9050919050565b6000602082019050818103600083015261181b816115d1565b9050919050565b6000602082019050818103600083015261183b816115f4565b9050919050565b6000602082019050818103600083015261185b81611617565b9050919050565b6000602082019050818103600083015261187b8161163a565b9050919050565b6000602082019050818103600083015261189b8161165d565b9050919050565b600060208201905081810360008301526118bb81611680565b9050919050565b60006020820190506118d760008301846116a3565b92915050565b60006020820190506118f260008301846116b2565b92915050565b600081519050919050565b600082825260208201905092915050565b600061191f826119dc565b915061192a836119dc565b9250827fffffffffffffffffffffffffffffffffffffffffffffffffffffffffffffffff0382111561195f5761195e611a58565b5b828201905092915050565b6000611975826119dc565b9150611980836119dc565b92508282101561199357611992611a58565b5b828203905092915050565b60006119a9826119bc565b9050919050565b60008115159050919050565b600073ffffffffffffffffffffffffffffffffffffffff82169050919050565b6000819050919050565b600060ff82169050919050565b60005b83811015611a115780820151818401526020810190506119f6565b83811115611a20576000848401525b50505050565b60006002820490506001821680611a3e57607f821691505b60208210811415611a5257611a51611a87565b5b50919050565b7f4e487b7100000000000000000000000000000000000000000000000000000000600052601160045260246000fd5b7f4e487b7100000000000000000000000000000000000000000000000000000000600052602260045260246000fd5b6000601f19601f8301169050919050565b7f45524332303a207472616e7366657220746f20746865207a65726f206164647260008201527f6573730000000000000000000000000000000000000000000000000000000000602082015250565b7f45524332303a206275726e20616d6f756e7420657863656564732062616c616e60008201527f6365000000000000000000000000000000000000000000000000000000000000602082015250565b7f4f776e61626c653a206e6577206f776e657220697320746865207a65726f206160008201527f6464726573730000000000000000000000000000000000000000000000000000602082015250565b7f45524332303a20617070726f766520746f20746865207a65726f20616464726560008201527f7373000000000000000000000000000000000000000000000000000000000000602082015250565b7f45524332303a207472616e7366657220616d6f756e742065786365656473206260008201527f616c616e63650000000000000000000000000000000000000000000000000000602082015250565b7f45524332303a207472616e7366657220616d6f756e742065786365656473206160008201527f6c6c6f77616e6365000000000000000000000000000000000000000000000000602082015250565b7f4f776e61626c653a2063616c6c6572206973206e6f7420746865206f776e6572600082015250565b7f45524332303a206275726e2066726f6d20746865207a65726f2061646472657360008201527f7300000000000000000000000000000000000000000000000000000000000000602082015250565b7f45524332303a207472616e736665722066726f6d20746865207a65726f20616460008201527f6472657373000000000000000000000000000000000000000000000000000000602082015250565b7f45524332303a20617070726f76652066726f6d20746865207a65726f2061646460008201527f7265737300000000000000000000000000000000000000000000000000000000602082015250565b7f45524332303a2064656372656173656420616c6c6f77616e63652062656c6f7760008201527f207a65726f000000000000000000000000000000000000000000000000000000602082015250565b7f45524332303a206d696e7420746f20746865207a65726f206164647265737300600082015250565b611e388161199e565b8114611e4357600080fd5b50565b611e4f816119dc565b8114611e5a57600080fd5b5056fea2646970667358221220368b41e44887704cbf15d6a8e46689896db346badf21bbf583cc359e5288f3eb64736f6c63430008040033",
  "linkReferences": {},
  "deployedLinkReferences": {}
}