{
  "_format": "hh-sol-artifact-1",
  "contractName": "AquariumLifeForm",
  "sourceName": "contracts/AquariumLifeForm.sol",
  "abi": [
    {
      "inputs": [
        {
          "internalType": "string",
          "name": "_baseTokenURI",
          "type": "string"
        },
        {
          "internalType": "string",
          "name": "_name",
          "type": "string"
        },
        {
          "internalType": "string",
          "name": "_symbol",
          "type": "string"
        },
        {
          "internalType": "uint256",
          "name": "_mintPrice",
          "type": "uint256"
        },
        {
          "internalType": "uint256",
          "name": "_maxMint",
          "type": "uint256"
        },
        {
          "internalType": "uint256",
          "name": "_reserved",
          "type": "uint256"
        },
        {
          "internalType": "uint256",
          "name": "_maxSupply",
          "type": "uint256"
        }
      ],
      "stateMutability": "nonpayable",
      "type": "constructor"
    },
    {
      "anonymous": false,
      "inputs": [
        {
          "indexed": true,
          "internalType": "address",
          "name": "owner",
          "type": "address"
        },
        {
          "indexed": true,
          "internalType": "address",
          "name": "approved",
          "type": "address"
        },
        {
          "indexed": true,
          "internalType": "uint256",
          "name": "tokenId",
          "type": "uint256"
        }
      ],
      "name": "Approval",
      "type": "event"
    },
    {
      "anonymous": false,
      "inputs": [
        {
          "indexed": true,
          "internalType": "address",
          "name": "owner",
          "type": "address"
        },
        {
          "indexed": true,
          "internalType": "address",
          "name": "operator",
          "type": "address"
        },
        {
          "indexed": false,
          "internalType": "bool",
          "name": "approved",
          "type": "bool"
        }
      ],
      "name": "ApprovalForAll",
      "type": "event"
    },
    {
      "anonymous": false,
      "inputs": [
        {
          "indexed": true,
          "internalType": "address",
          "name": "previousOwner",
          "type": "address"
        },
        {
          "indexed": true,
          "internalType": "address",
          "name": "newOwner",
          "type": "address"
        }
      ],
      "name": "OwnershipTransferred",
      "type": "event"
    },
    {
      "anonymous": false,
      "inputs": [
        {
          "indexed": true,
          "internalType": "address",
          "name": "from",
          "type": "address"
        },
        {
          "indexed": true,
          "internalType": "address",
          "name": "to",
          "type": "address"
        },
        {
          "indexed": true,
          "internalType": "uint256",
          "name": "tokenId",
          "type": "uint256"
        }
      ],
      "name": "Transfer",
      "type": "event"
    },
    {
      "inputs": [
        {
          "internalType": "address",
          "name": "to",
          "type": "address"
        },
        {
          "internalType": "uint256",
          "name": "tokenId",
          "type": "uint256"
        }
      ],
      "name": "approve",
      "outputs": [],
      "stateMutability": "nonpayable",
      "type": "function"
    },
    {
      "inputs": [
        {
          "internalType": "address",
          "name": "owner",
          "type": "address"
        }
      ],
      "name": "balanceOf",
      "outputs": [
        {
          "internalType": "uint256",
          "name": "",
          "type": "uint256"
        }
      ],
      "stateMutability": "view",
      "type": "function"
    },
    {
      "inputs": [],
      "name": "baseTokenURI",
      "outputs": [
        {
          "internalType": "string",
          "name": "",
          "type": "string"
        }
      ],
      "stateMutability": "view",
      "type": "function"
    },
    {
      "inputs": [
        {
          "internalType": "uint256",
          "name": "tokenId",
          "type": "uint256"
        }
      ],
      "name": "getApproved",
      "outputs": [
        {
          "internalType": "address",
          "name": "",
          "type": "address"
        }
      ],
      "stateMutability": "view",
      "type": "function"
    },
    {
      "inputs": [],
      "name": "getPrice",
      "outputs": [
        {
          "internalType": "uint256",
          "name": "",
          "type": "uint256"
        }
      ],
      "stateMutability": "view",
      "type": "function"
    },
    {
      "inputs": [
        {
          "internalType": "address",
          "name": "_to",
          "type": "address"
        },
        {
          "internalType": "uint256",
          "name": "_amount",
          "type": "uint256"
        }
      ],
      "name": "giveAway",
      "outputs": [],
      "stateMutability": "nonpayable",
      "type": "function"
    },
    {
      "inputs": [
        {
          "internalType": "address",
          "name": "owner",
          "type": "address"
        },
        {
          "internalType": "address",
          "name": "operator",
          "type": "address"
        }
      ],
      "name": "isApprovedForAll",
      "outputs": [
        {
          "internalType": "bool",
          "name": "",
          "type": "bool"
        }
      ],
      "stateMutability": "view",
      "type": "function"
    },
    {
      "inputs": [],
      "name": "maxMint",
      "outputs": [
        {
          "internalType": "uint256",
          "name": "",
          "type": "uint256"
        }
      ],
      "stateMutability": "view",
      "type": "function"
    },
    {
      "inputs": [],
      "name": "maxSupply",
      "outputs": [
        {
          "internalType": "uint256",
          "name": "",
          "type": "uint256"
        }
      ],
      "stateMutability": "view",
      "type": "function"
    },
    {
      "inputs": [
        {
          "internalType": "uint256",
          "name": "_amount",
          "type": "uint256"
        }
      ],
      "name": "mintAQLF",
      "outputs": [],
      "stateMutability": "payable",
      "type": "function"
    },
    {
      "inputs": [],
      "name": "name",
      "outputs": [
        {
          "internalType": "string",
          "name": "",
          "type": "string"
        }
      ],
      "stateMutability": "view",
      "type": "function"
    },
    {
      "inputs": [],
      "name": "owner",
      "outputs": [
        {
          "internalType": "address",
          "name": "",
          "type": "address"
        }
      ],
      "stateMutability": "view",
      "type": "function"
    },
    {
      "inputs": [
        {
          "internalType": "uint256",
          "name": "tokenId",
          "type": "uint256"
        }
      ],
      "name": "ownerOf",
      "outputs": [
        {
          "internalType": "address",
          "name": "",
          "type": "address"
        }
      ],
      "stateMutability": "view",
      "type": "function"
    },
    {
      "inputs": [
        {
          "internalType": "bool",
          "name": "_val",
          "type": "bool"
        }
      ],
      "name": "pause",
      "outputs": [],
      "stateMutability": "nonpayable",
      "type": "function"
    },
    {
      "inputs": [],
      "name": "paused",
      "outputs": [
        {
          "internalType": "bool",
          "name": "",
          "type": "bool"
        }
      ],
      "stateMutability": "view",
      "type": "function"
    },
    {
      "inputs": [],
      "name": "price",
      "outputs": [
        {
          "internalType": "uint256",
          "name": "",
          "type": "uint256"
        }
      ],
      "stateMutability": "view",
      "type": "function"
    },
    {
      "inputs": [],
      "name": "renounceOwnership",
      "outputs": [],
      "stateMutability": "nonpayable",
      "type": "function"
    },
    {
      "inputs": [],
      "name": "reserved",
      "outputs": [
        {
          "internalType": "uint256",
          "name": "",
          "type": "uint256"
        }
      ],
      "stateMutability": "view",
      "type": "function"
    },
    {
      "inputs": [
        {
          "internalType": "address",
          "name": "from",
          "type": "address"
        },
        {
          "internalType": "address",
          "name": "to",
          "type": "address"
        },
        {
          "internalType": "uint256",
          "name": "tokenId",
          "type": "uint256"
        }
      ],
      "name": "safeTransferFrom",
      "outputs": [],
      "stateMutability": "nonpayable",
      "type": "function"
    },
    {
      "inputs": [
        {
          "internalType": "address",
          "name": "from",
          "type": "address"
        },
        {
          "internalType": "address",
          "name": "to",
          "type": "address"
        },
        {
          "internalType": "uint256",
          "name": "tokenId",
          "type": "uint256"
        },
        {
          "internalType": "bytes",
          "name": "_data",
          "type": "bytes"
        }
      ],
      "name": "safeTransferFrom",
      "outputs": [],
      "stateMutability": "nonpayable",
      "type": "function"
    },
    {
      "inputs": [
        {
          "internalType": "address",
          "name": "operator",
          "type": "address"
        },
        {
          "internalType": "bool",
          "name": "approved",
          "type": "bool"
        }
      ],
      "name": "setApprovalForAll",
      "outputs": [],
      "stateMutability": "nonpayable",
      "type": "function"
    },
    {
      "inputs": [
        {
          "internalType": "uint256",
          "name": "_newPrice",
          "type": "uint256"
        }
      ],
      "name": "setMintPrice",
      "outputs": [],
      "stateMutability": "nonpayable",
      "type": "function"
    },
    {
      "inputs": [
        {
          "internalType": "bytes4",
          "name": "interfaceId",
          "type": "bytes4"
        }
      ],
      "name": "supportsInterface",
      "outputs": [
        {
          "internalType": "bool",
          "name": "",
          "type": "bool"
        }
      ],
      "stateMutability": "view",
      "type": "function"
    },
    {
      "inputs": [],
      "name": "symbol",
      "outputs": [
        {
          "internalType": "string",
          "name": "",
          "type": "string"
        }
      ],
      "stateMutability": "view",
      "type": "function"
    },
    {
      "inputs": [
        {
          "internalType": "uint256",
          "name": "index",
          "type": "uint256"
        }
      ],
      "name": "tokenByIndex",
      "outputs": [
        {
          "internalType": "uint256",
          "name": "",
          "type": "uint256"
        }
      ],
      "stateMutability": "view",
      "type": "function"
    },
    {
      "inputs": [
        {
          "internalType": "address",
          "name": "owner",
          "type": "address"
        },
        {
          "internalType": "uint256",
          "name": "index",
          "type": "uint256"
        }
      ],
      "name": "tokenOfOwnerByIndex",
      "outputs": [
        {
          "internalType": "uint256",
          "name": "",
          "type": "uint256"
        }
      ],
      "stateMutability": "view",
      "type": "function"
    },
    {
      "inputs": [
        {
          "internalType": "uint256",
          "name": "tokenId",
          "type": "uint256"
        }
      ],
      "name": "tokenURI",
      "outputs": [
        {
          "internalType": "string",
          "name": "",
          "type": "string"
        }
      ],
      "stateMutability": "view",
      "type": "function"
    },
    {
      "inputs": [],
      "name": "totalSupply",
      "outputs": [
        {
          "internalType": "uint256",
          "name": "",
          "type": "uint256"
        }
      ],
      "stateMutability": "view",
      "type": "function"
    },
    {
      "inputs": [
        {
          "internalType": "address",
          "name": "from",
          "type": "address"
        },
        {
          "internalType": "address",
          "name": "to",
          "type": "address"
        },
        {
          "internalType": "uint256",
          "name": "tokenId",
          "type": "uint256"
        }
      ],
      "name": "transferFrom",
      "outputs": [],
      "stateMutability": "nonpayable",
      "type": "function"
    },
    {
      "inputs": [
        {
          "internalType": "address",
          "name": "newOwner",
          "type": "address"
        }
      ],
      "name": "transferOwnership",
      "outputs": [],
      "stateMutability": "nonpayable",
      "type": "function"
    },
    {
      "inputs": [
        {
          "internalType": "address",
          "name": "_to",
          "type": "address"
        }
      ],
      "name": "withdraw",
      "outputs": [],
      "stateMutability": "nonpayable",
      "type": "function"
    }
  ],
  "bytecode": "0x60806040526001601060006101000a81548160ff0219169083151502179055503480156200002c57600080fd5b50604051620045ac380380620045ac8339818101604052810190620000529190620003be565b858581600090805190602001906200006c92919062000285565b5080600190805190602001906200008592919062000285565b505050620000a86200009c620000f460201b60201c565b620000fc60201b60201c565b86600b9080519060200190620000c092919062000285565b50620000d284620001c260201b60201c565b82600d8190555080600e8190555081600f8190555050505050505050620006cd565b600033905090565b6000600a60009054906101000a900473ffffffffffffffffffffffffffffffffffffffff16905081600a60006101000a81548173ffffffffffffffffffffffffffffffffffffffff021916908373ffffffffffffffffffffffffffffffffffffffff1602179055508173ffffffffffffffffffffffffffffffffffffffff168173ffffffffffffffffffffffffffffffffffffffff167f8be0079c531659141344cd1fd0a4f28419497f9722a3daafe3b4186f6b6457e060405160405180910390a35050565b620001d2620000f460201b60201c565b73ffffffffffffffffffffffffffffffffffffffff16620001f86200025b60201b60201c565b73ffffffffffffffffffffffffffffffffffffffff161462000251576040517f08c379a00000000000000000000000000000000000000000000000000000000081526004016200024890620004dd565b60405180910390fd5b80600c8190555050565b6000600a60009054906101000a900473ffffffffffffffffffffffffffffffffffffffff16905090565b8280546200029390620005af565b90600052602060002090601f016020900481019282620002b7576000855562000303565b82601f10620002d257805160ff191683800117855562000303565b8280016001018555821562000303579182015b8281111562000302578251825591602001919060010190620002e5565b5b50905062000312919062000316565b5090565b5b808211156200033157600081600090555060010162000317565b5090565b60006200034c620003468462000528565b620004ff565b9050828152602081018484840111156200036557600080fd5b6200037284828562000579565b509392505050565b600082601f8301126200038c57600080fd5b81516200039e84826020860162000335565b91505092915050565b600081519050620003b881620006b3565b92915050565b600080600080600080600060e0888a031215620003da57600080fd5b600088015167ffffffffffffffff811115620003f557600080fd5b620004038a828b016200037a565b975050602088015167ffffffffffffffff8111156200042157600080fd5b6200042f8a828b016200037a565b965050604088015167ffffffffffffffff8111156200044d57600080fd5b6200045b8a828b016200037a565b95505060606200046e8a828b01620003a7565b9450506080620004818a828b01620003a7565b93505060a0620004948a828b01620003a7565b92505060c0620004a78a828b01620003a7565b91505092959891949750929550565b6000620004c56020836200055e565b9150620004d2826200068a565b602082019050919050565b60006020820190508181036000830152620004f881620004b6565b9050919050565b60006200050b6200051e565b9050620005198282620005e5565b919050565b6000604051905090565b600067ffffffffffffffff8211156200054657620005456200064a565b5b620005518262000679565b9050602081019050919050565b600082825260208201905092915050565b6000819050919050565b60005b83811015620005995780820151818401526020810190506200057c565b83811115620005a9576000848401525b50505050565b60006002820490506001821680620005c857607f821691505b60208210811415620005df57620005de6200061b565b5b50919050565b620005f08262000679565b810181811067ffffffffffffffff821117156200061257620006116200064a565b5b80604052505050565b7f4e487b7100000000000000000000000000000000000000000000000000000000600052602260045260246000fd5b7f4e487b7100000000000000000000000000000000000000000000000000000000600052604160045260246000fd5b6000601f19601f8301169050919050565b7f4f776e61626c653a2063616c6c6572206973206e6f7420746865206f776e6572600082015250565b620006be816200056f565b8114620006ca57600080fd5b50565b613ecf80620006dd6000396000f3fe6080604052600436106101d85760003560e01c80637501f74111610102578063ca80014411610095578063f2fde38b11610064578063f2fde38b146106d2578063f4a0a528146106fb578063f7c3f42714610724578063fe60d12c14610740576101d8565b8063ca80014414610616578063d547cfb71461063f578063d5abeb011461066a578063e985e9c514610695576101d8565b8063a035b1fe116100d1578063a035b1fe1461055c578063a22cb46514610587578063b88d4fde146105b0578063c87b56dd146105d9576101d8565b80637501f741146104b05780638da5cb5b146104db57806395d89b411461050657806398d5fdca14610531576101d8565b80632f745c591161017a5780635c975abb116101495780635c975abb146103f45780636352211e1461041f57806370a082311461045c578063715018a614610499576101d8565b80632f745c591461032857806342842e0e146103655780634f6ccce71461038e57806351cff8d9146103cb576101d8565b8063081812fc116101b6578063081812fc1461026e578063095ea7b3146102ab57806318160ddd146102d457806323b872dd146102ff576101d8565b806301ffc9a7146101dd57806302329a291461021a57806306fdde0314610243575b600080fd5b3480156101e957600080fd5b5061020460048036038101906101ff9190612c39565b61076b565b6040516102119190613134565b60405180910390f35b34801561022657600080fd5b50610241600480360381019061023c9190612c10565b6107e5565b005b34801561024f57600080fd5b5061025861087e565b604051610265919061314f565b60405180910390f35b34801561027a57600080fd5b5061029560048036038101906102909190612c8b565b610910565b6040516102a291906130cd565b60405180910390f35b3480156102b757600080fd5b506102d260048036038101906102cd9190612bd4565b610995565b005b3480156102e057600080fd5b506102e9610aad565b6040516102f69190613451565b60405180910390f35b34801561030b57600080fd5b5061032660048036038101906103219190612ace565b610aba565b005b34801561033457600080fd5b5061034f600480360381019061034a9190612bd4565b610b1a565b60405161035c9190613451565b60405180910390f35b34801561037157600080fd5b5061038c60048036038101906103879190612ace565b610bbf565b005b34801561039a57600080fd5b506103b560048036038101906103b09190612c8b565b610bdf565b6040516103c29190613451565b60405180910390f35b3480156103d757600080fd5b506103f260048036038101906103ed9190612a69565b610c76565b005b34801561040057600080fd5b50610409610d3c565b6040516104169190613134565b60405180910390f35b34801561042b57600080fd5b5061044660048036038101906104419190612c8b565b610d4f565b60405161045391906130cd565b60405180910390f35b34801561046857600080fd5b50610483600480360381019061047e9190612a69565b610e01565b6040516104909190613451565b60405180910390f35b3480156104a557600080fd5b506104ae610eb9565b005b3480156104bc57600080fd5b506104c5610f41565b6040516104d29190613451565b60405180910390f35b3480156104e757600080fd5b506104f0610f47565b6040516104fd91906130cd565b60405180910390f35b34801561051257600080fd5b5061051b610f71565b604051610528919061314f565b60405180910390f35b34801561053d57600080fd5b50610546611003565b6040516105539190613451565b60405180910390f35b34801561056857600080fd5b5061057161100d565b60405161057e9190613451565b60405180910390f35b34801561059357600080fd5b506105ae60048036038101906105a99190612b98565b611013565b005b3480156105bc57600080fd5b506105d760048036038101906105d29190612b1d565b611029565b005b3480156105e557600080fd5b5061060060048036038101906105fb9190612c8b565b61108b565b60405161060d919061314f565b60405180910390f35b34801561062257600080fd5b5061063d60048036038101906106389190612bd4565b611132565b005b34801561064b57600080fd5b50610654611251565b604051610661919061314f565b60405180910390f35b34801561067657600080fd5b5061067f6112df565b60405161068c9190613451565b60405180910390f35b3480156106a157600080fd5b506106bc60048036038101906106b79190612a92565b6112e5565b6040516106c99190613134565b60405180910390f35b3480156106de57600080fd5b506106f960048036038101906106f49190612a69565b611379565b005b34801561070757600080fd5b50610722600480360381019061071d9190612c8b565b611471565b005b61073e60048036038101906107399190612c8b565b6114f7565b005b34801561074c57600080fd5b5061075561168f565b6040516107629190613451565b60405180910390f35b60007f780e9d63000000000000000000000000000000000000000000000000000000007bffffffffffffffffffffffffffffffffffffffffffffffffffffffff1916827bffffffffffffffffffffffffffffffffffffffffffffffffffffffff191614806107de57506107dd82611695565b5b9050919050565b6107ed611777565b73ffffffffffffffffffffffffffffffffffffffff1661080b610f47565b73ffffffffffffffffffffffffffffffffffffffff1614610861576040517f08c379a000000000000000000000000000000000000000000000000000000000815260040161085890613351565b60405180910390fd5b80601060006101000a81548160ff02191690831515021790555050565b60606000805461088d906136d0565b80601f01602080910402602001604051908101604052809291908181526020018280546108b9906136d0565b80156109065780601f106108db57610100808354040283529160200191610906565b820191906000526020600020905b8154815290600101906020018083116108e957829003601f168201915b5050505050905090565b600061091b8261177f565b61095a576040517f08c379a000000000000000000000000000000000000000000000000000000000815260040161095190613331565b60405180910390fd5b6004600083815260200190815260200160002060009054906101000a900473ffffffffffffffffffffffffffffffffffffffff169050919050565b60006109a082610d4f565b90508073ffffffffffffffffffffffffffffffffffffffff168373ffffffffffffffffffffffffffffffffffffffff161415610a11576040517f08c379a0000000000000000000000000000000000000000000000000000000008152600401610a08906133d1565b60405180910390fd5b8073ffffffffffffffffffffffffffffffffffffffff16610a30611777565b73ffffffffffffffffffffffffffffffffffffffff161480610a5f5750610a5e81610a59611777565b6112e5565b5b610a9e576040517f08c379a0000000000000000000000000000000000000000000000000000000008152600401610a95906132b1565b60405180910390fd5b610aa883836117eb565b505050565b6000600880549050905090565b610acb610ac5611777565b826118a4565b610b0a576040517f08c379a0000000000000000000000000000000000000000000000000000000008152600401610b0190613411565b60405180910390fd5b610b15838383611982565b505050565b6000610b2583610e01565b8210610b66576040517f08c379a0000000000000000000000000000000000000000000000000000000008152600401610b5d906131b1565b60405180910390fd5b600660008473ffffffffffffffffffffffffffffffffffffffff1673ffffffffffffffffffffffffffffffffffffffff168152602001908152602001600020600083815260200190815260200160002054905092915050565b610bda83838360405180602001604052806000815250611029565b505050565b6000610be9610aad565b8210610c2a576040517f08c379a0000000000000000000000000000000000000000000000000000000008152600401610c2190613431565b60405180910390fd5b60088281548110610c64577f4e487b7100000000000000000000000000000000000000000000000000000000600052603260045260246000fd5b90600052602060002001549050919050565b610c7e611777565b73ffffffffffffffffffffffffffffffffffffffff16610c9c610f47565b73ffffffffffffffffffffffffffffffffffffffff1614610cf2576040517f08c379a0000000000000000000000000000000000000000000000000000000008152600401610ce990613351565b60405180910390fd5b8073ffffffffffffffffffffffffffffffffffffffff166108fc479081150290604051600060405180830381858888f19350505050158015610d38573d6000803e3d6000fd5b5050565b601060009054906101000a900460ff1681565b6000806002600084815260200190815260200160002060009054906101000a900473ffffffffffffffffffffffffffffffffffffffff169050600073ffffffffffffffffffffffffffffffffffffffff168173ffffffffffffffffffffffffffffffffffffffff161415610df8576040517f08c379a0000000000000000000000000000000000000000000000000000000008152600401610def906132f1565b60405180910390fd5b80915050919050565b60008073ffffffffffffffffffffffffffffffffffffffff168273ffffffffffffffffffffffffffffffffffffffff161415610e72576040517f08c379a0000000000000000000000000000000000000000000000000000000008152600401610e69906132d1565b60405180910390fd5b600360008373ffffffffffffffffffffffffffffffffffffffff1673ffffffffffffffffffffffffffffffffffffffff168152602001908152602001600020549050919050565b610ec1611777565b73ffffffffffffffffffffffffffffffffffffffff16610edf610f47565b73ffffffffffffffffffffffffffffffffffffffff1614610f35576040517f08c379a0000000000000000000000000000000000000000000000000000000008152600401610f2c90613351565b60405180910390fd5b610f3f6000611bde565b565b600d5481565b6000600a60009054906101000a900473ffffffffffffffffffffffffffffffffffffffff16905090565b606060018054610f80906136d0565b80601f0160208091040260200160405190810160405280929190818152602001828054610fac906136d0565b8015610ff95780601f10610fce57610100808354040283529160200191610ff9565b820191906000526020600020905b815481529060010190602001808311610fdc57829003601f168201915b5050505050905090565b6000600c54905090565b600c5481565b61102561101e611777565b8383611ca4565b5050565b61103a611034611777565b836118a4565b611079576040517f08c379a000000000000000000000000000000000000000000000000000000000815260040161107090613411565b60405180910390fd5b61108584848484611e11565b50505050565b60606110968261177f565b6110d5576040517f08c379a00000000000000000000000000000000000000000000000000000000081526004016110cc90613391565b60405180910390fd5b60006110df611e6d565b905060008151116110ff576040518060200160405280600081525061112a565b8061110984611eff565b60405160200161111a9291906130a9565b6040516020818303038152906040525b915050919050565b61113a611777565b73ffffffffffffffffffffffffffffffffffffffff16611158610f47565b73ffffffffffffffffffffffffffffffffffffffff16146111ae576040517f08c379a00000000000000000000000000000000000000000000000000000000081526004016111a590613351565b60405180910390fd5b600f548111156111f3576040517f08c379a00000000000000000000000000000000000000000000000000000000081526004016111ea906133b1565b60405180910390fd5b60006111fd610aad565b905060005b828110156112325761121f84828461121a9190613505565b6120ac565b808061122a90613733565b915050611202565b5081600f600082825461124591906135e6565b92505081905550505050565b600b805461125e906136d0565b80601f016020809104026020016040519081016040528092919081815260200182805461128a906136d0565b80156112d75780601f106112ac576101008083540402835291602001916112d7565b820191906000526020600020905b8154815290600101906020018083116112ba57829003601f168201915b505050505081565b600e5481565b6000600560008473ffffffffffffffffffffffffffffffffffffffff1673ffffffffffffffffffffffffffffffffffffffff16815260200190815260200160002060008373ffffffffffffffffffffffffffffffffffffffff1673ffffffffffffffffffffffffffffffffffffffff16815260200190815260200160002060009054906101000a900460ff16905092915050565b611381611777565b73ffffffffffffffffffffffffffffffffffffffff1661139f610f47565b73ffffffffffffffffffffffffffffffffffffffff16146113f5576040517f08c379a00000000000000000000000000000000000000000000000000000000081526004016113ec90613351565b60405180910390fd5b600073ffffffffffffffffffffffffffffffffffffffff168173ffffffffffffffffffffffffffffffffffffffff161415611465576040517f08c379a000000000000000000000000000000000000000000000000000000000815260040161145c90613211565b60405180910390fd5b61146e81611bde565b50565b611479611777565b73ffffffffffffffffffffffffffffffffffffffff16611497610f47565b73ffffffffffffffffffffffffffffffffffffffff16146114ed576040517f08c379a00000000000000000000000000000000000000000000000000000000081526004016114e490613351565b60405180910390fd5b80600c8190555050565b6000611501610aad565b9050600082600c54611513919061358c565b9050601060009054906101000a900460ff1615611565576040517f08c379a000000000000000000000000000000000000000000000000000000000815260040161155c90613171565b60405180910390fd5b600d548311156115aa576040517f08c379a00000000000000000000000000000000000000000000000000000000081526004016115a1906131d1565b60405180910390fd5b600f54600e546115ba91906135e6565b83836115c69190613505565b1115611607576040517f08c379a00000000000000000000000000000000000000000000000000000000081526004016115fe90613191565b60405180910390fd5b8034101561164a576040517f08c379a0000000000000000000000000000000000000000000000000000000008152600401611641906133f1565b60405180910390fd5b60005b838110156116895761167633600183866116679190613505565b6116719190613505565b6120ac565b808061168190613733565b91505061164d565b50505050565b600f5481565b60007f80ac58cd000000000000000000000000000000000000000000000000000000007bffffffffffffffffffffffffffffffffffffffffffffffffffffffff1916827bffffffffffffffffffffffffffffffffffffffffffffffffffffffff1916148061176057507f5b5e139f000000000000000000000000000000000000000000000000000000007bffffffffffffffffffffffffffffffffffffffffffffffffffffffff1916827bffffffffffffffffffffffffffffffffffffffffffffffffffffffff1916145b80611770575061176f826120ca565b5b9050919050565b600033905090565b60008073ffffffffffffffffffffffffffffffffffffffff166002600084815260200190815260200160002060009054906101000a900473ffffffffffffffffffffffffffffffffffffffff1673ffffffffffffffffffffffffffffffffffffffff1614159050919050565b816004600083815260200190815260200160002060006101000a81548173ffffffffffffffffffffffffffffffffffffffff021916908373ffffffffffffffffffffffffffffffffffffffff160217905550808273ffffffffffffffffffffffffffffffffffffffff1661185e83610d4f565b73ffffffffffffffffffffffffffffffffffffffff167f8c5be1e5ebec7d5bd14f71427d1e84f3dd0314c0f7b2291e5b200ac8c7c3b92560405160405180910390a45050565b60006118af8261177f565b6118ee576040517f08c379a00000000000000000000000000000000000000000000000000000000081526004016118e590613291565b60405180910390fd5b60006118f983610d4f565b90508073ffffffffffffffffffffffffffffffffffffffff168473ffffffffffffffffffffffffffffffffffffffff16148061196857508373ffffffffffffffffffffffffffffffffffffffff1661195084610910565b73ffffffffffffffffffffffffffffffffffffffff16145b80611979575061197881856112e5565b5b91505092915050565b8273ffffffffffffffffffffffffffffffffffffffff166119a282610d4f565b73ffffffffffffffffffffffffffffffffffffffff16146119f8576040517f08c379a00000000000000000000000000000000000000000000000000000000081526004016119ef90613371565b60405180910390fd5b600073ffffffffffffffffffffffffffffffffffffffff168273ffffffffffffffffffffffffffffffffffffffff161415611a68576040517f08c379a0000000000000000000000000000000000000000000000000000000008152600401611a5f90613251565b60405180910390fd5b611a73838383612134565b611a7e6000826117eb565b6001600360008573ffffffffffffffffffffffffffffffffffffffff1673ffffffffffffffffffffffffffffffffffffffff1681526020019081526020016000206000828254611ace91906135e6565b925050819055506001600360008473ffffffffffffffffffffffffffffffffffffffff1673ffffffffffffffffffffffffffffffffffffffff1681526020019081526020016000206000828254611b259190613505565b92505081905550816002600083815260200190815260200160002060006101000a81548173ffffffffffffffffffffffffffffffffffffffff021916908373ffffffffffffffffffffffffffffffffffffffff160217905550808273ffffffffffffffffffffffffffffffffffffffff168473ffffffffffffffffffffffffffffffffffffffff167fddf252ad1be2c89b69c2b068fc378daa952ba7f163c4a11628f55a4df523b3ef60405160405180910390a4505050565b6000600a60009054906101000a900473ffffffffffffffffffffffffffffffffffffffff16905081600a60006101000a81548173ffffffffffffffffffffffffffffffffffffffff021916908373ffffffffffffffffffffffffffffffffffffffff1602179055508173ffffffffffffffffffffffffffffffffffffffff168173ffffffffffffffffffffffffffffffffffffffff167f8be0079c531659141344cd1fd0a4f28419497f9722a3daafe3b4186f6b6457e060405160405180910390a35050565b8173ffffffffffffffffffffffffffffffffffffffff168373ffffffffffffffffffffffffffffffffffffffff161415611d13576040517f08c379a0000000000000000000000000000000000000000000000000000000008152600401611d0a90613271565b60405180910390fd5b80600560008573ffffffffffffffffffffffffffffffffffffffff1673ffffffffffffffffffffffffffffffffffffffff16815260200190815260200160002060008473ffffffffffffffffffffffffffffffffffffffff1673ffffffffffffffffffffffffffffffffffffffff16815260200190815260200160002060006101000a81548160ff0219169083151502179055508173ffffffffffffffffffffffffffffffffffffffff168373ffffffffffffffffffffffffffffffffffffffff167f17307eab39ab6107e8899845ad3d59bd9653f200f220920489ca2b5937696c3183604051611e049190613134565b60405180910390a3505050565b611e1c848484611982565b611e2884848484612248565b611e67576040517f08c379a0000000000000000000000000000000000000000000000000000000008152600401611e5e906131f1565b60405180910390fd5b50505050565b6060600b8054611e7c906136d0565b80601f0160208091040260200160405190810160405280929190818152602001828054611ea8906136d0565b8015611ef55780601f10611eca57610100808354040283529160200191611ef5565b820191906000526020600020905b815481529060010190602001808311611ed857829003601f168201915b5050505050905090565b60606000821415611f47576040518060400160405280600181526020017f300000000000000000000000000000000000000000000000000000000000000081525090506120a7565b600082905060005b60008214611f79578080611f6290613733565b915050600a82611f72919061355b565b9150611f4f565b60008167ffffffffffffffff811115611fbb577f4e487b7100000000000000000000000000000000000000000000000000000000600052604160045260246000fd5b6040519080825280601f01601f191660200182016040528015611fed5781602001600182028036833780820191505090505b5090505b600085146120a05760018261200691906135e6565b9150600a85612015919061377c565b60306120219190613505565b60f81b81838151811061205d577f4e487b7100000000000000000000000000000000000000000000000000000000600052603260045260246000fd5b60200101907effffffffffffffffffffffffffffffffffffffffffffffffffffffffffffff1916908160001a905350600a85612099919061355b565b9450611ff1565b8093505050505b919050565b6120c68282604051806020016040528060008152506123df565b5050565b60007f01ffc9a7000000000000000000000000000000000000000000000000000000007bffffffffffffffffffffffffffffffffffffffffffffffffffffffff1916827bffffffffffffffffffffffffffffffffffffffffffffffffffffffff1916149050919050565b61213f83838361243a565b600073ffffffffffffffffffffffffffffffffffffffff168373ffffffffffffffffffffffffffffffffffffffff1614156121825761217d8161243f565b6121c1565b8173ffffffffffffffffffffffffffffffffffffffff168373ffffffffffffffffffffffffffffffffffffffff16146121c0576121bf8382612488565b5b5b600073ffffffffffffffffffffffffffffffffffffffff168273ffffffffffffffffffffffffffffffffffffffff161415612204576121ff816125f5565b612243565b8273ffffffffffffffffffffffffffffffffffffffff168273ffffffffffffffffffffffffffffffffffffffff1614612242576122418282612738565b5b5b505050565b60006122698473ffffffffffffffffffffffffffffffffffffffff166127b7565b156123d2578373ffffffffffffffffffffffffffffffffffffffff1663150b7a02612292611777565b8786866040518563ffffffff1660e01b81526004016122b494939291906130e8565b602060405180830381600087803b1580156122ce57600080fd5b505af19250505080156122ff57506040513d601f19601f820116820180604052508101906122fc9190612c62565b60015b612382573d806000811461232f576040519150601f19603f3d011682016040523d82523d6000602084013e612334565b606091505b5060008151141561237a576040517f08c379a0000000000000000000000000000000000000000000000000000000008152600401612371906131f1565b60405180910390fd5b805181602001fd5b63150b7a0260e01b7bffffffffffffffffffffffffffffffffffffffffffffffffffffffff1916817bffffffffffffffffffffffffffffffffffffffffffffffffffffffff1916149150506123d7565b600190505b949350505050565b6123e983836127ca565b6123f66000848484612248565b612435576040517f08c379a000000000000000000000000000000000000000000000000000000000815260040161242c906131f1565b60405180910390fd5b505050565b505050565b6008805490506009600083815260200190815260200160002081905550600881908060018154018082558091505060019003906000526020600020016000909190919091505550565b6000600161249584610e01565b61249f91906135e6565b9050600060076000848152602001908152602001600020549050818114612584576000600660008673ffffffffffffffffffffffffffffffffffffffff1673ffffffffffffffffffffffffffffffffffffffff168152602001908152602001600020600084815260200190815260200160002054905080600660008773ffffffffffffffffffffffffffffffffffffffff1673ffffffffffffffffffffffffffffffffffffffff168152602001908152602001600020600084815260200190815260200160002081905550816007600083815260200190815260200160002081905550505b6007600084815260200190815260200160002060009055600660008573ffffffffffffffffffffffffffffffffffffffff1673ffffffffffffffffffffffffffffffffffffffff16815260200190815260200160002060008381526020019081526020016000206000905550505050565b6000600160088054905061260991906135e6565b905060006009600084815260200190815260200160002054905060006008838154811061265f577f4e487b7100000000000000000000000000000000000000000000000000000000600052603260045260246000fd5b9060005260206000200154905080600883815481106126a7577f4e487b7100000000000000000000000000000000000000000000000000000000600052603260045260246000fd5b90600052602060002001819055508160096000838152602001908152602001600020819055506009600085815260200190815260200160002060009055600880548061271c577f4e487b7100000000000000000000000000000000000000000000000000000000600052603160045260246000fd5b6001900381819060005260206000200160009055905550505050565b600061274383610e01565b905081600660008573ffffffffffffffffffffffffffffffffffffffff1673ffffffffffffffffffffffffffffffffffffffff168152602001908152602001600020600083815260200190815260200160002081905550806007600084815260200190815260200160002081905550505050565b600080823b905060008111915050919050565b600073ffffffffffffffffffffffffffffffffffffffff168273ffffffffffffffffffffffffffffffffffffffff16141561283a576040517f08c379a000000000000000000000000000000000000000000000000000000000815260040161283190613311565b60405180910390fd5b6128438161177f565b15612883576040517f08c379a000000000000000000000000000000000000000000000000000000000815260040161287a90613231565b60405180910390fd5b61288f60008383612134565b6001600360008473ffffffffffffffffffffffffffffffffffffffff1673ffffffffffffffffffffffffffffffffffffffff16815260200190815260200160002060008282546128df9190613505565b92505081905550816002600083815260200190815260200160002060006101000a81548173ffffffffffffffffffffffffffffffffffffffff021916908373ffffffffffffffffffffffffffffffffffffffff160217905550808273ffffffffffffffffffffffffffffffffffffffff16600073ffffffffffffffffffffffffffffffffffffffff167fddf252ad1be2c89b69c2b068fc378daa952ba7f163c4a11628f55a4df523b3ef60405160405180910390a45050565b60006129ab6129a684613491565b61346c565b9050828152602081018484840111156129c357600080fd5b6129ce84828561368e565b509392505050565b6000813590506129e581613e3d565b92915050565b6000813590506129fa81613e54565b92915050565b600081359050612a0f81613e6b565b92915050565b600081519050612a2481613e6b565b92915050565b600082601f830112612a3b57600080fd5b8135612a4b848260208601612998565b91505092915050565b600081359050612a6381613e82565b92915050565b600060208284031215612a7b57600080fd5b6000612a89848285016129d6565b91505092915050565b60008060408385031215612aa557600080fd5b6000612ab3858286016129d6565b9250506020612ac4858286016129d6565b9150509250929050565b600080600060608486031215612ae357600080fd5b6000612af1868287016129d6565b9350506020612b02868287016129d6565b9250506040612b1386828701612a54565b9150509250925092565b60008060008060808587031215612b3357600080fd5b6000612b41878288016129d6565b9450506020612b52878288016129d6565b9350506040612b6387828801612a54565b925050606085013567ffffffffffffffff811115612b8057600080fd5b612b8c87828801612a2a565b91505092959194509250565b60008060408385031215612bab57600080fd5b6000612bb9858286016129d6565b9250506020612bca858286016129eb565b9150509250929050565b60008060408385031215612be757600080fd5b6000612bf5858286016129d6565b9250506020612c0685828601612a54565b9150509250929050565b600060208284031215612c2257600080fd5b6000612c30848285016129eb565b91505092915050565b600060208284031215612c4b57600080fd5b6000612c5984828501612a00565b91505092915050565b600060208284031215612c7457600080fd5b6000612c8284828501612a15565b91505092915050565b600060208284031215612c9d57600080fd5b6000612cab84828501612a54565b91505092915050565b612cbd8161361a565b82525050565b612ccc8161362c565b82525050565b6000612cdd826134c2565b612ce781856134d8565b9350612cf781856020860161369d565b612d0081613869565b840191505092915050565b6000612d16826134cd565b612d2081856134e9565b9350612d3081856020860161369d565b612d3981613869565b840191505092915050565b6000612d4f826134cd565b612d5981856134fa565b9350612d6981856020860161369d565b80840191505092915050565b6000612d82600b836134e9565b9150612d8d8261387a565b602082019050919050565b6000612da5601b836134e9565b9150612db0826138a3565b602082019050919050565b6000612dc8602b836134e9565b9150612dd3826138cc565b604082019050919050565b6000612deb6019836134e9565b9150612df68261391b565b602082019050919050565b6000612e0e6032836134e9565b9150612e1982613944565b604082019050919050565b6000612e316026836134e9565b9150612e3c82613993565b604082019050919050565b6000612e54601c836134e9565b9150612e5f826139e2565b602082019050919050565b6000612e776024836134e9565b9150612e8282613a0b565b604082019050919050565b6000612e9a6019836134e9565b9150612ea582613a5a565b602082019050919050565b6000612ebd602c836134e9565b9150612ec882613a83565b604082019050919050565b6000612ee06038836134e9565b9150612eeb82613ad2565b604082019050919050565b6000612f03602a836134e9565b9150612f0e82613b21565b604082019050919050565b6000612f266029836134e9565b9150612f3182613b70565b604082019050919050565b6000612f496020836134e9565b9150612f5482613bbf565b602082019050919050565b6000612f6c602c836134e9565b9150612f7782613be8565b604082019050919050565b6000612f8f6020836134e9565b9150612f9a82613c37565b602082019050919050565b6000612fb26029836134e9565b9150612fbd82613c60565b604082019050919050565b6000612fd5602f836134e9565b9150612fe082613caf565b604082019050919050565b6000612ff8601b836134e9565b915061300382613cfe565b602082019050919050565b600061301b6021836134e9565b915061302682613d27565b604082019050919050565b600061303e6016836134e9565b915061304982613d76565b602082019050919050565b60006130616031836134e9565b915061306c82613d9f565b604082019050919050565b6000613084602c836134e9565b915061308f82613dee565b604082019050919050565b6130a381613684565b82525050565b60006130b58285612d44565b91506130c18284612d44565b91508190509392505050565b60006020820190506130e26000830184612cb4565b92915050565b60006080820190506130fd6000830187612cb4565b61310a6020830186612cb4565b613117604083018561309a565b81810360608301526131298184612cd2565b905095945050505050565b60006020820190506131496000830184612cc3565b92915050565b600060208201905081810360008301526131698184612d0b565b905092915050565b6000602082019050818103600083015261318a81612d75565b9050919050565b600060208201905081810360008301526131aa81612d98565b9050919050565b600060208201905081810360008301526131ca81612dbb565b9050919050565b600060208201905081810360008301526131ea81612dde565b9050919050565b6000602082019050818103600083015261320a81612e01565b9050919050565b6000602082019050818103600083015261322a81612e24565b9050919050565b6000602082019050818103600083015261324a81612e47565b9050919050565b6000602082019050818103600083015261326a81612e6a565b9050919050565b6000602082019050818103600083015261328a81612e8d565b9050919050565b600060208201905081810360008301526132aa81612eb0565b9050919050565b600060208201905081810360008301526132ca81612ed3565b9050919050565b600060208201905081810360008301526132ea81612ef6565b9050919050565b6000602082019050818103600083015261330a81612f19565b9050919050565b6000602082019050818103600083015261332a81612f3c565b9050919050565b6000602082019050818103600083015261334a81612f5f565b9050919050565b6000602082019050818103600083015261336a81612f82565b9050919050565b6000602082019050818103600083015261338a81612fa5565b9050919050565b600060208201905081810360008301526133aa81612fc8565b9050919050565b600060208201905081810360008301526133ca81612feb565b9050919050565b600060208201905081810360008301526133ea8161300e565b9050919050565b6000602082019050818103600083015261340a81613031565b9050919050565b6000602082019050818103600083015261342a81613054565b9050919050565b6000602082019050818103600083015261344a81613077565b9050919050565b6000602082019050613466600083018461309a565b92915050565b6000613476613487565b90506134828282613702565b919050565b6000604051905090565b600067ffffffffffffffff8211156134ac576134ab61383a565b5b6134b582613869565b9050602081019050919050565b600081519050919050565b600081519050919050565b600082825260208201905092915050565b600082825260208201905092915050565b600081905092915050565b600061351082613684565b915061351b83613684565b9250827fffffffffffffffffffffffffffffffffffffffffffffffffffffffffffffffff038211156135505761354f6137ad565b5b828201905092915050565b600061356682613684565b915061357183613684565b925082613581576135806137dc565b5b828204905092915050565b600061359782613684565b91506135a283613684565b9250817fffffffffffffffffffffffffffffffffffffffffffffffffffffffffffffffff04831182151516156135db576135da6137ad565b5b828202905092915050565b60006135f182613684565b91506135fc83613684565b92508282101561360f5761360e6137ad565b5b828203905092915050565b600061362582613664565b9050919050565b60008115159050919050565b60007fffffffff0000000000000000000000000000000000000000000000000000000082169050919050565b600073ffffffffffffffffffffffffffffffffffffffff82169050919050565b6000819050919050565b82818337600083830152505050565b60005b838110156136bb5780820151818401526020810190506136a0565b838111156136ca576000848401525b50505050565b600060028204905060018216806136e857607f821691505b602082108114156136fc576136fb61380b565b5b50919050565b61370b82613869565b810181811067ffffffffffffffff8211171561372a5761372961383a565b5b80604052505050565b600061373e82613684565b91507fffffffffffffffffffffffffffffffffffffffffffffffffffffffffffffffff821415613771576137706137ad565b5b600182019050919050565b600061378782613684565b915061379283613684565b9250826137a2576137a16137dc565b5b828206905092915050565b7f4e487b7100000000000000000000000000000000000000000000000000000000600052601160045260246000fd5b7f4e487b7100000000000000000000000000000000000000000000000000000000600052601260045260246000fd5b7f4e487b7100000000000000000000000000000000000000000000000000000000600052602260045260246000fd5b7f4e487b7100000000000000000000000000000000000000000000000000000000600052604160045260246000fd5b6000601f19601f8301169050919050565b7f53616c6520706175736564000000000000000000000000000000000000000000600082015250565b7f45786365656473206d6178696d756d2041514c4620737570706c790000000000600082015250565b7f455243373231456e756d657261626c653a206f776e657220696e646578206f7560008201527f74206f6620626f756e6473000000000000000000000000000000000000000000602082015250565b7f4d6178204d696e7420616d6f756e742065786365656465642e00000000000000600082015250565b7f4552433732313a207472616e7366657220746f206e6f6e20455243373231526560008201527f63656976657220696d706c656d656e7465720000000000000000000000000000602082015250565b7f4f776e61626c653a206e6577206f776e657220697320746865207a65726f206160008201527f6464726573730000000000000000000000000000000000000000000000000000602082015250565b7f4552433732313a20746f6b656e20616c7265616479206d696e74656400000000600082015250565b7f4552433732313a207472616e7366657220746f20746865207a65726f2061646460008201527f7265737300000000000000000000000000000000000000000000000000000000602082015250565b7f4552433732313a20617070726f766520746f2063616c6c657200000000000000600082015250565b7f4552433732313a206f70657261746f7220717565727920666f72206e6f6e657860008201527f697374656e7420746f6b656e0000000000000000000000000000000000000000602082015250565b7f4552433732313a20617070726f76652063616c6c6572206973206e6f74206f7760008201527f6e6572206e6f7220617070726f76656420666f7220616c6c0000000000000000602082015250565b7f4552433732313a2062616c616e636520717565727920666f7220746865207a6560008201527f726f206164647265737300000000000000000000000000000000000000000000602082015250565b7f4552433732313a206f776e657220717565727920666f72206e6f6e657869737460008201527f656e7420746f6b656e0000000000000000000000000000000000000000000000602082015250565b7f4552433732313a206d696e7420746f20746865207a65726f2061646472657373600082015250565b7f4552433732313a20617070726f76656420717565727920666f72206e6f6e657860008201527f697374656e7420746f6b656e0000000000000000000000000000000000000000602082015250565b7f4f776e61626c653a2063616c6c6572206973206e6f7420746865206f776e6572600082015250565b7f4552433732313a207472616e73666572206f6620746f6b656e2074686174206960008201527f73206e6f74206f776e0000000000000000000000000000000000000000000000602082015250565b7f4552433732314d657461646174613a2055524920717565727920666f72206e6f60008201527f6e6578697374656e7420746f6b656e0000000000000000000000000000000000602082015250565b7f45786365656473207265736572766564204e465420737570706c790000000000600082015250565b7f4552433732313a20617070726f76616c20746f2063757272656e74206f776e6560008201527f7200000000000000000000000000000000000000000000000000000000000000602082015250565b7f496e636f7272656374207061796d656e742073656e7400000000000000000000600082015250565b7f4552433732313a207472616e736665722063616c6c6572206973206e6f74206f60008201527f776e6572206e6f7220617070726f766564000000000000000000000000000000602082015250565b7f455243373231456e756d657261626c653a20676c6f62616c20696e646578206f60008201527f7574206f6620626f756e64730000000000000000000000000000000000000000602082015250565b613e468161361a565b8114613e5157600080fd5b50565b613e5d8161362c565b8114613e6857600080fd5b50565b613e7481613638565b8114613e7f57600080fd5b50565b613e8b81613684565b8114613e9657600080fd5b5056fea2646970667358221220883dab15b3bd798aba6b824b93e01821d0055fb2a3a696073020817a76212c9b64736f6c63430008040033",
  "linkReferences": {},
  "deployedLinkReferences": {}
}