{
  "_format": "hh-sol-artifact-1",
  "contractName": "AquaCash",
  "sourceName": "contracts/currencies/AquaCash.sol",
  "abi": [
    {
      "inputs": [
        {
          "internalType": "uint256",
          "name": "_initialSupply",
          "type": "uint256"
        },
        {
          "internalType": "address",
          "name": "_beneficiary",
          "type": "address"
        },
        {
          "internalType": "uint256",
          "name": "_maxSupply",
          "type": "uint256"
        }
      ],
      "stateMutability": "nonpayable",
      "type": "constructor"
    },
    {
      "anonymous": false,
      "inputs": [
        {
          "indexed": true,
          "internalType": "address",
          "name": "owner",
          "type": "address"
        },
        {
          "indexed": true,
          "internalType": "address",
          "name": "spender",
          "type": "address"
        },
        {
          "indexed": false,
          "internalType": "uint256",
          "name": "value",
          "type": "uint256"
        }
      ],
      "name": "Approval",
      "type": "event"
    },
    {
      "anonymous": false,
      "inputs": [
        {
          "indexed": true,
          "internalType": "address",
          "name": "previousOwner",
          "type": "address"
        },
        {
          "indexed": true,
          "internalType": "address",
          "name": "newOwner",
          "type": "address"
        }
      ],
      "name": "OwnershipTransferred",
      "type": "event"
    },
    {
      "anonymous": false,
      "inputs": [
        {
          "indexed": true,
          "internalType": "address",
          "name": "from",
          "type": "address"
        },
        {
          "indexed": true,
          "internalType": "address",
          "name": "to",
          "type": "address"
        },
        {
          "indexed": false,
          "internalType": "uint256",
          "name": "value",
          "type": "uint256"
        }
      ],
      "name": "Transfer",
      "type": "event"
    },
    {
      "inputs": [
        {
          "internalType": "address",
          "name": "owner",
          "type": "address"
        },
        {
          "internalType": "address",
          "name": "spender",
          "type": "address"
        }
      ],
      "name": "allowance",
      "outputs": [
        {
          "internalType": "uint256",
          "name": "",
          "type": "uint256"
        }
      ],
      "stateMutability": "view",
      "type": "function"
    },
    {
      "inputs": [
        {
          "internalType": "address",
          "name": "spender",
          "type": "address"
        },
        {
          "internalType": "uint256",
          "name": "amount",
          "type": "uint256"
        }
      ],
      "name": "approve",
      "outputs": [
        {
          "internalType": "bool",
          "name": "",
          "type": "bool"
        }
      ],
      "stateMutability": "nonpayable",
      "type": "function"
    },
    {
      "inputs": [
        {
          "internalType": "address",
          "name": "account",
          "type": "address"
        }
      ],
      "name": "balanceOf",
      "outputs": [
        {
          "internalType": "uint256",
          "name": "",
          "type": "uint256"
        }
      ],
      "stateMutability": "view",
      "type": "function"
    },
    {
      "inputs": [],
      "name": "decimals",
      "outputs": [
        {
          "internalType": "uint8",
          "name": "",
          "type": "uint8"
        }
      ],
      "stateMutability": "view",
      "type": "function"
    },
    {
      "inputs": [
        {
          "internalType": "address",
          "name": "spender",
          "type": "address"
        },
        {
          "internalType": "uint256",
          "name": "subtractedValue",
          "type": "uint256"
        }
      ],
      "name": "decreaseAllowance",
      "outputs": [
        {
          "internalType": "bool",
          "name": "",
          "type": "bool"
        }
      ],
      "stateMutability": "nonpayable",
      "type": "function"
    },
    {
      "inputs": [
        {
          "internalType": "address",
          "name": "spender",
          "type": "address"
        },
        {
          "internalType": "uint256",
          "name": "addedValue",
          "type": "uint256"
        }
      ],
      "name": "increaseAllowance",
      "outputs": [
        {
          "internalType": "bool",
          "name": "",
          "type": "bool"
        }
      ],
      "stateMutability": "nonpayable",
      "type": "function"
    },
    {
      "inputs": [],
      "name": "initialSupply",
      "outputs": [
        {
          "internalType": "uint256",
          "name": "",
          "type": "uint256"
        }
      ],
      "stateMutability": "view",
      "type": "function"
    },
    {
      "inputs": [],
      "name": "maxSupply",
      "outputs": [
        {
          "internalType": "uint256",
          "name": "",
          "type": "uint256"
        }
      ],
      "stateMutability": "view",
      "type": "function"
    },
    {
      "inputs": [
        {
          "internalType": "address",
          "name": "_to",
          "type": "address"
        },
        {
          "internalType": "uint256",
          "name": "_amount",
          "type": "uint256"
        }
      ],
      "name": "mintAquaCash",
      "outputs": [],
      "stateMutability": "nonpayable",
      "type": "function"
    },
    {
      "inputs": [],
      "name": "name",
      "outputs": [
        {
          "internalType": "string",
          "name": "",
          "type": "string"
        }
      ],
      "stateMutability": "view",
      "type": "function"
    },
    {
      "inputs": [],
      "name": "owner",
      "outputs": [
        {
          "internalType": "address",
          "name": "",
          "type": "address"
        }
      ],
      "stateMutability": "view",
      "type": "function"
    },
    {
      "inputs": [],
      "name": "renounceOwnership",
      "outputs": [],
      "stateMutability": "nonpayable",
      "type": "function"
    },
    {
      "inputs": [],
      "name": "symbol",
      "outputs": [
        {
          "internalType": "string",
          "name": "",
          "type": "string"
        }
      ],
      "stateMutability": "view",
      "type": "function"
    },
    {
      "inputs": [],
      "name": "totalSupply",
      "outputs": [
        {
          "internalType": "uint256",
          "name": "",
          "type": "uint256"
        }
      ],
      "stateMutability": "view",
      "type": "function"
    },
    {
      "inputs": [
        {
          "internalType": "address",
          "name": "recipient",
          "type": "address"
        },
        {
          "internalType": "uint256",
          "name": "amount",
          "type": "uint256"
        }
      ],
      "name": "transfer",
      "outputs": [
        {
          "internalType": "bool",
          "name": "",
          "type": "bool"
        }
      ],
      "stateMutability": "nonpayable",
      "type": "function"
    },
    {
      "inputs": [
        {
          "internalType": "address",
          "name": "sender",
          "type": "address"
        },
        {
          "internalType": "address",
          "name": "recipient",
          "type": "address"
        },
        {
          "internalType": "uint256",
          "name": "amount",
          "type": "uint256"
        }
      ],
      "name": "transferFrom",
      "outputs": [
        {
          "internalType": "bool",
          "name": "",
          "type": "bool"
        }
      ],
      "stateMutability": "nonpayable",
      "type": "function"
    },
    {
      "inputs": [
        {
          "internalType": "address",
          "name": "newOwner",
          "type": "address"
        }
      ],
      "name": "transferOwnership",
      "outputs": [],
      "stateMutability": "nonpayable",
      "type": "function"
    }
  ],
  "bytecode": "0x60806040523480156200001157600080fd5b506040516200220d3803806200220d83398181016040528101906200003791906200044f565b6040518060400160405280600881526020017f506c616e6b746f6e0000000000000000000000000000000000000000000000008152506040518060400160405280600581526020017f504c414e4b0000000000000000000000000000000000000000000000000000008152508160039080519060200190620000bb92919062000371565b508060049080519060200190620000d492919062000371565b505050620000f7620000eb6200012060201b60201c565b6200012860201b60201c565b620001098284620001ee60201b60201c565b8260068190555080600781905550505050620006b9565b600033905090565b6000600560009054906101000a900473ffffffffffffffffffffffffffffffffffffffff16905081600560006101000a81548173ffffffffffffffffffffffffffffffffffffffff021916908373ffffffffffffffffffffffffffffffffffffffff1602179055508173ffffffffffffffffffffffffffffffffffffffff168173ffffffffffffffffffffffffffffffffffffffff167f8be0079c531659141344cd1fd0a4f28419497f9722a3daafe3b4186f6b6457e060405160405180910390a35050565b600073ffffffffffffffffffffffffffffffffffffffff168273ffffffffffffffffffffffffffffffffffffffff16141562000261576040517f08c379a00000000000000000000000000000000000000000000000000000000081526004016200025890620004dd565b60405180910390fd5b62000275600083836200036760201b60201c565b80600260008282546200028991906200052d565b92505081905550806000808473ffffffffffffffffffffffffffffffffffffffff1673ffffffffffffffffffffffffffffffffffffffff1681526020019081526020016000206000828254620002e091906200052d565b925050819055508173ffffffffffffffffffffffffffffffffffffffff16600073ffffffffffffffffffffffffffffffffffffffff167fddf252ad1be2c89b69c2b068fc378daa952ba7f163c4a11628f55a4df523b3ef83604051620003479190620004ff565b60405180910390a362000363600083836200036c60201b60201c565b5050565b505050565b505050565b8280546200037f90620005c8565b90600052602060002090601f016020900481019282620003a35760008555620003ef565b82601f10620003be57805160ff1916838001178555620003ef565b82800160010185558215620003ef579182015b82811115620003ee578251825591602001919060010190620003d1565b5b509050620003fe919062000402565b5090565b5b808211156200041d57600081600090555060010162000403565b5090565b600081519050620004328162000685565b92915050565b60008151905062000449816200069f565b92915050565b6000806000606084860312156200046557600080fd5b6000620004758682870162000438565b9350506020620004888682870162000421565b92505060406200049b8682870162000438565b9150509250925092565b6000620004b4601f836200051c565b9150620004c1826200065c565b602082019050919050565b620004d781620005be565b82525050565b60006020820190508181036000830152620004f881620004a5565b9050919050565b6000602082019050620005166000830184620004cc565b92915050565b600082825260208201905092915050565b60006200053a82620005be565b91506200054783620005be565b9250827fffffffffffffffffffffffffffffffffffffffffffffffffffffffffffffffff038211156200057f576200057e620005fe565b5b828201905092915050565b600062000597826200059e565b9050919050565b600073ffffffffffffffffffffffffffffffffffffffff82169050919050565b6000819050919050565b60006002820490506001821680620005e157607f821691505b60208210811415620005f857620005f76200062d565b5b50919050565b7f4e487b7100000000000000000000000000000000000000000000000000000000600052601160045260246000fd5b7f4e487b7100000000000000000000000000000000000000000000000000000000600052602260045260246000fd5b7f45524332303a206d696e7420746f20746865207a65726f206164647265737300600082015250565b62000690816200058a565b81146200069c57600080fd5b50565b620006aa81620005be565b8114620006b657600080fd5b50565b611b4480620006c96000396000f3fe608060405234801561001057600080fd5b506004361061010b5760003560e01c806370a08231116100a2578063a457c2d711610071578063a457c2d7146102aa578063a9059cbb146102da578063d5abeb011461030a578063dd62ed3e14610328578063f2fde38b146103585761010b565b806370a0823114610234578063715018a6146102645780638da5cb5b1461026e57806395d89b411461028c5761010b565b806323b872dd116100de57806323b872dd14610198578063313ce567146101c8578063378dc3dc146101e657806339509351146102045761010b565b806306fdde0314610110578063095ea7b31461012e5780630fb675d91461015e57806318160ddd1461017a575b600080fd5b610118610374565b604051610125919061149a565b60405180910390f35b61014860048036038101906101439190611232565b610406565b604051610155919061147f565b60405180910390f35b61017860048036038101906101739190611232565b610424565b005b6101826104f9565b60405161018f919061161c565b60405180910390f35b6101b260048036038101906101ad91906111e3565b610503565b6040516101bf919061147f565b60405180910390f35b6101d06105fb565b6040516101dd9190611637565b60405180910390f35b6101ee610604565b6040516101fb919061161c565b60405180910390f35b61021e60048036038101906102199190611232565b61060a565b60405161022b919061147f565b60405180910390f35b61024e6004803603810190610249919061117e565b6106b6565b60405161025b919061161c565b60405180910390f35b61026c6106fe565b005b610276610786565b6040516102839190611464565b60405180910390f35b6102946107b0565b6040516102a1919061149a565b60405180910390f35b6102c460048036038101906102bf9190611232565b610842565b6040516102d1919061147f565b60405180910390f35b6102f460048036038101906102ef9190611232565b61092d565b604051610301919061147f565b60405180910390f35b61031261094b565b60405161031f919061161c565b60405180910390f35b610342600480360381019061033d91906111a7565b610951565b60405161034f919061161c565b60405180910390f35b610372600480360381019061036d919061117e565b6109d8565b005b6060600380546103839061174c565b80601f01602080910402602001604051908101604052809291908181526020018280546103af9061174c565b80156103fc5780601f106103d1576101008083540402835291602001916103fc565b820191906000526020600020905b8154815290600101906020018083116103df57829003601f168201915b5050505050905090565b600061041a610413610ad0565b8484610ad8565b6001905092915050565b61042c610ad0565b73ffffffffffffffffffffffffffffffffffffffff1661044a610786565b73ffffffffffffffffffffffffffffffffffffffff16146104a0576040517f08c379a00000000000000000000000000000000000000000000000000000000081526004016104979061155c565b60405180910390fd5b6007546104ab6104f9565b106104eb576040517f08c379a00000000000000000000000000000000000000000000000000000000081526004016104e2906115bc565b60405180910390fd5b6104f58282610ca3565b5050565b6000600254905090565b6000610510848484610e03565b6000600160008673ffffffffffffffffffffffffffffffffffffffff1673ffffffffffffffffffffffffffffffffffffffff168152602001908152602001600020600061055b610ad0565b73ffffffffffffffffffffffffffffffffffffffff1673ffffffffffffffffffffffffffffffffffffffff168152602001908152602001600020549050828110156105db576040517f08c379a00000000000000000000000000000000000000000000000000000000081526004016105d29061153c565b60405180910390fd5b6105ef856105e7610ad0565b858403610ad8565b60019150509392505050565b60006012905090565b60065481565b60006106ac610617610ad0565b848460016000610625610ad0565b73ffffffffffffffffffffffffffffffffffffffff1673ffffffffffffffffffffffffffffffffffffffff16815260200190815260200160002060008873ffffffffffffffffffffffffffffffffffffffff1673ffffffffffffffffffffffffffffffffffffffff168152602001908152602001600020546106a7919061166e565b610ad8565b6001905092915050565b60008060008373ffffffffffffffffffffffffffffffffffffffff1673ffffffffffffffffffffffffffffffffffffffff168152602001908152602001600020549050919050565b610706610ad0565b73ffffffffffffffffffffffffffffffffffffffff16610724610786565b73ffffffffffffffffffffffffffffffffffffffff161461077a576040517f08c379a00000000000000000000000000000000000000000000000000000000081526004016107719061155c565b60405180910390fd5b6107846000611084565b565b6000600560009054906101000a900473ffffffffffffffffffffffffffffffffffffffff16905090565b6060600480546107bf9061174c565b80601f01602080910402602001604051908101604052809291908181526020018280546107eb9061174c565b80156108385780601f1061080d57610100808354040283529160200191610838565b820191906000526020600020905b81548152906001019060200180831161081b57829003601f168201915b5050505050905090565b60008060016000610851610ad0565b73ffffffffffffffffffffffffffffffffffffffff1673ffffffffffffffffffffffffffffffffffffffff16815260200190815260200160002060008573ffffffffffffffffffffffffffffffffffffffff1673ffffffffffffffffffffffffffffffffffffffff1681526020019081526020016000205490508281101561090e576040517f08c379a0000000000000000000000000000000000000000000000000000000008152600401610905906115dc565b60405180910390fd5b610922610919610ad0565b85858403610ad8565b600191505092915050565b600061094161093a610ad0565b8484610e03565b6001905092915050565b60075481565b6000600160008473ffffffffffffffffffffffffffffffffffffffff1673ffffffffffffffffffffffffffffffffffffffff16815260200190815260200160002060008373ffffffffffffffffffffffffffffffffffffffff1673ffffffffffffffffffffffffffffffffffffffff16815260200190815260200160002054905092915050565b6109e0610ad0565b73ffffffffffffffffffffffffffffffffffffffff166109fe610786565b73ffffffffffffffffffffffffffffffffffffffff1614610a54576040517f08c379a0000000000000000000000000000000000000000000000000000000008152600401610a4b9061155c565b60405180910390fd5b600073ffffffffffffffffffffffffffffffffffffffff168173ffffffffffffffffffffffffffffffffffffffff161415610ac4576040517f08c379a0000000000000000000000000000000000000000000000000000000008152600401610abb906114dc565b60405180910390fd5b610acd81611084565b50565b600033905090565b600073ffffffffffffffffffffffffffffffffffffffff168373ffffffffffffffffffffffffffffffffffffffff161415610b48576040517f08c379a0000000000000000000000000000000000000000000000000000000008152600401610b3f9061159c565b60405180910390fd5b600073ffffffffffffffffffffffffffffffffffffffff168273ffffffffffffffffffffffffffffffffffffffff161415610bb8576040517f08c379a0000000000000000000000000000000000000000000000000000000008152600401610baf906114fc565b60405180910390fd5b80600160008573ffffffffffffffffffffffffffffffffffffffff1673ffffffffffffffffffffffffffffffffffffffff16815260200190815260200160002060008473ffffffffffffffffffffffffffffffffffffffff1673ffffffffffffffffffffffffffffffffffffffff168152602001908152602001600020819055508173ffffffffffffffffffffffffffffffffffffffff168373ffffffffffffffffffffffffffffffffffffffff167f8c5be1e5ebec7d5bd14f71427d1e84f3dd0314c0f7b2291e5b200ac8c7c3b92583604051610c96919061161c565b60405180910390a3505050565b600073ffffffffffffffffffffffffffffffffffffffff168273ffffffffffffffffffffffffffffffffffffffff161415610d13576040517f08c379a0000000000000000000000000000000000000000000000000000000008152600401610d0a906115fc565b60405180910390fd5b610d1f6000838361114a565b8060026000828254610d31919061166e565b92505081905550806000808473ffffffffffffffffffffffffffffffffffffffff1673ffffffffffffffffffffffffffffffffffffffff1681526020019081526020016000206000828254610d86919061166e565b925050819055508173ffffffffffffffffffffffffffffffffffffffff16600073ffffffffffffffffffffffffffffffffffffffff167fddf252ad1be2c89b69c2b068fc378daa952ba7f163c4a11628f55a4df523b3ef83604051610deb919061161c565b60405180910390a3610dff6000838361114f565b5050565b600073ffffffffffffffffffffffffffffffffffffffff168373ffffffffffffffffffffffffffffffffffffffff161415610e73576040517f08c379a0000000000000000000000000000000000000000000000000000000008152600401610e6a9061157c565b60405180910390fd5b600073ffffffffffffffffffffffffffffffffffffffff168273ffffffffffffffffffffffffffffffffffffffff161415610ee3576040517f08c379a0000000000000000000000000000000000000000000000000000000008152600401610eda906114bc565b60405180910390fd5b610eee83838361114a565b60008060008573ffffffffffffffffffffffffffffffffffffffff1673ffffffffffffffffffffffffffffffffffffffff16815260200190815260200160002054905081811015610f74576040517f08c379a0000000000000000000000000000000000000000000000000000000008152600401610f6b9061151c565b60405180910390fd5b8181036000808673ffffffffffffffffffffffffffffffffffffffff1673ffffffffffffffffffffffffffffffffffffffff16815260200190815260200160002081905550816000808573ffffffffffffffffffffffffffffffffffffffff1673ffffffffffffffffffffffffffffffffffffffff1681526020019081526020016000206000828254611007919061166e565b925050819055508273ffffffffffffffffffffffffffffffffffffffff168473ffffffffffffffffffffffffffffffffffffffff167fddf252ad1be2c89b69c2b068fc378daa952ba7f163c4a11628f55a4df523b3ef8460405161106b919061161c565b60405180910390a361107e84848461114f565b50505050565b6000600560009054906101000a900473ffffffffffffffffffffffffffffffffffffffff16905081600560006101000a81548173ffffffffffffffffffffffffffffffffffffffff021916908373ffffffffffffffffffffffffffffffffffffffff1602179055508173ffffffffffffffffffffffffffffffffffffffff168173ffffffffffffffffffffffffffffffffffffffff167f8be0079c531659141344cd1fd0a4f28419497f9722a3daafe3b4186f6b6457e060405160405180910390a35050565b505050565b505050565b60008135905061116381611ae0565b92915050565b60008135905061117881611af7565b92915050565b60006020828403121561119057600080fd5b600061119e84828501611154565b91505092915050565b600080604083850312156111ba57600080fd5b60006111c885828601611154565b92505060206111d985828601611154565b9150509250929050565b6000806000606084860312156111f857600080fd5b600061120686828701611154565b935050602061121786828701611154565b925050604061122886828701611169565b9150509250925092565b6000806040838503121561124557600080fd5b600061125385828601611154565b925050602061126485828601611169565b9150509250929050565b611277816116c4565b82525050565b611286816116d6565b82525050565b600061129782611652565b6112a1818561165d565b93506112b1818560208601611719565b6112ba816117dc565b840191505092915050565b60006112d260238361165d565b91506112dd826117ed565b604082019050919050565b60006112f560268361165d565b91506113008261183c565b604082019050919050565b600061131860228361165d565b91506113238261188b565b604082019050919050565b600061133b60268361165d565b9150611346826118da565b604082019050919050565b600061135e60288361165d565b915061136982611929565b604082019050919050565b600061138160208361165d565b915061138c82611978565b602082019050919050565b60006113a460258361165d565b91506113af826119a1565b604082019050919050565b60006113c760248361165d565b91506113d2826119f0565b604082019050919050565b60006113ea600b8361165d565b91506113f582611a3f565b602082019050919050565b600061140d60258361165d565b915061141882611a68565b604082019050919050565b6000611430601f8361165d565b915061143b82611ab7565b602082019050919050565b61144f81611702565b82525050565b61145e8161170c565b82525050565b6000602082019050611479600083018461126e565b92915050565b6000602082019050611494600083018461127d565b92915050565b600060208201905081810360008301526114b4818461128c565b905092915050565b600060208201905081810360008301526114d5816112c5565b9050919050565b600060208201905081810360008301526114f5816112e8565b9050919050565b600060208201905081810360008301526115158161130b565b9050919050565b600060208201905081810360008301526115358161132e565b9050919050565b6000602082019050818103600083015261155581611351565b9050919050565b6000602082019050818103600083015261157581611374565b9050919050565b6000602082019050818103600083015261159581611397565b9050919050565b600060208201905081810360008301526115b5816113ba565b9050919050565b600060208201905081810360008301526115d5816113dd565b9050919050565b600060208201905081810360008301526115f581611400565b9050919050565b6000602082019050818103600083015261161581611423565b9050919050565b60006020820190506116316000830184611446565b92915050565b600060208201905061164c6000830184611455565b92915050565b600081519050919050565b600082825260208201905092915050565b600061167982611702565b915061168483611702565b9250827fffffffffffffffffffffffffffffffffffffffffffffffffffffffffffffffff038211156116b9576116b861177e565b5b828201905092915050565b60006116cf826116e2565b9050919050565b60008115159050919050565b600073ffffffffffffffffffffffffffffffffffffffff82169050919050565b6000819050919050565b600060ff82169050919050565b60005b8381101561173757808201518184015260208101905061171c565b83811115611746576000848401525b50505050565b6000600282049050600182168061176457607f821691505b60208210811415611778576117776117ad565b5b50919050565b7f4e487b7100000000000000000000000000000000000000000000000000000000600052601160045260246000fd5b7f4e487b7100000000000000000000000000000000000000000000000000000000600052602260045260246000fd5b6000601f19601f8301169050919050565b7f45524332303a207472616e7366657220746f20746865207a65726f206164647260008201527f6573730000000000000000000000000000000000000000000000000000000000602082015250565b7f4f776e61626c653a206e6577206f776e657220697320746865207a65726f206160008201527f6464726573730000000000000000000000000000000000000000000000000000602082015250565b7f45524332303a20617070726f766520746f20746865207a65726f20616464726560008201527f7373000000000000000000000000000000000000000000000000000000000000602082015250565b7f45524332303a207472616e7366657220616d6f756e742065786365656473206260008201527f616c616e63650000000000000000000000000000000000000000000000000000602082015250565b7f45524332303a207472616e7366657220616d6f756e742065786365656473206160008201527f6c6c6f77616e6365000000000000000000000000000000000000000000000000602082015250565b7f4f776e61626c653a2063616c6c6572206973206e6f7420746865206f776e6572600082015250565b7f45524332303a207472616e736665722066726f6d20746865207a65726f20616460008201527f6472657373000000000000000000000000000000000000000000000000000000602082015250565b7f45524332303a20617070726f76652066726f6d20746865207a65726f2061646460008201527f7265737300000000000000000000000000000000000000000000000000000000602082015250565b7f5265616368656420636170000000000000000000000000000000000000000000600082015250565b7f45524332303a2064656372656173656420616c6c6f77616e63652062656c6f7760008201527f207a65726f000000000000000000000000000000000000000000000000000000602082015250565b7f45524332303a206d696e7420746f20746865207a65726f206164647265737300600082015250565b611ae9816116c4565b8114611af457600080fd5b50565b611b0081611702565b8114611b0b57600080fd5b5056fea2646970667358221220d4bfe890a405f12195eb5cf80c1f8b737fddab9e0c85cc2bea22d742ba63563264736f6c63430008040033",
  "linkReferences": {},
  "deployedLinkReferences": {}
}