{
  "_format": "hh-sol-artifact-1",
  "contractName": "Plankton",
  "sourceName": "contracts/currencies/AquaCash.sol",
  "abi": [
    {
      "inputs": [
        {
          "internalType": "uint256",
          "name": "_initialSupply",
          "type": "uint256"
        },
        {
          "internalType": "address",
          "name": "_beneficiary",
          "type": "address"
        }
      ],
      "stateMutability": "nonpayable",
      "type": "constructor"
    },
    {
      "anonymous": false,
      "inputs": [
        {
          "indexed": true,
          "internalType": "address",
          "name": "owner",
          "type": "address"
        },
        {
          "indexed": true,
          "internalType": "address",
          "name": "spender",
          "type": "address"
        },
        {
          "indexed": false,
          "internalType": "uint256",
          "name": "value",
          "type": "uint256"
        }
      ],
      "name": "Approval",
      "type": "event"
    },
    {
      "anonymous": false,
      "inputs": [
        {
          "indexed": true,
          "internalType": "address",
          "name": "previousOwner",
          "type": "address"
        },
        {
          "indexed": true,
          "internalType": "address",
          "name": "newOwner",
          "type": "address"
        }
      ],
      "name": "OwnershipTransferred",
      "type": "event"
    },
    {
      "anonymous": false,
      "inputs": [
        {
          "indexed": false,
          "internalType": "address",
          "name": "_to",
          "type": "address"
        },
        {
          "indexed": false,
          "internalType": "uint256",
          "name": "_amount",
          "type": "uint256"
        }
      ],
      "name": "PlanktonsMinted",
      "type": "event"
    },
    {
      "anonymous": false,
      "inputs": [
        {
          "indexed": true,
          "internalType": "address",
          "name": "from",
          "type": "address"
        },
        {
          "indexed": true,
          "internalType": "address",
          "name": "to",
          "type": "address"
        },
        {
          "indexed": false,
          "internalType": "uint256",
          "name": "value",
          "type": "uint256"
        }
      ],
      "name": "Transfer",
      "type": "event"
    },
    {
      "inputs": [
        {
          "internalType": "address",
          "name": "owner",
          "type": "address"
        },
        {
          "internalType": "address",
          "name": "spender",
          "type": "address"
        }
      ],
      "name": "allowance",
      "outputs": [
        {
          "internalType": "uint256",
          "name": "",
          "type": "uint256"
        }
      ],
      "stateMutability": "view",
      "type": "function"
    },
    {
      "inputs": [
        {
          "internalType": "address",
          "name": "spender",
          "type": "address"
        },
        {
          "internalType": "uint256",
          "name": "amount",
          "type": "uint256"
        }
      ],
      "name": "approve",
      "outputs": [
        {
          "internalType": "bool",
          "name": "",
          "type": "bool"
        }
      ],
      "stateMutability": "nonpayable",
      "type": "function"
    },
    {
      "inputs": [
        {
          "internalType": "address",
          "name": "account",
          "type": "address"
        }
      ],
      "name": "balanceOf",
      "outputs": [
        {
          "internalType": "uint256",
          "name": "",
          "type": "uint256"
        }
      ],
      "stateMutability": "view",
      "type": "function"
    },
    {
      "inputs": [],
      "name": "decimals",
      "outputs": [
        {
          "internalType": "uint8",
          "name": "",
          "type": "uint8"
        }
      ],
      "stateMutability": "view",
      "type": "function"
    },
    {
      "inputs": [
        {
          "internalType": "address",
          "name": "spender",
          "type": "address"
        },
        {
          "internalType": "uint256",
          "name": "subtractedValue",
          "type": "uint256"
        }
      ],
      "name": "decreaseAllowance",
      "outputs": [
        {
          "internalType": "bool",
          "name": "",
          "type": "bool"
        }
      ],
      "stateMutability": "nonpayable",
      "type": "function"
    },
    {
      "inputs": [
        {
          "internalType": "address",
          "name": "spender",
          "type": "address"
        },
        {
          "internalType": "uint256",
          "name": "addedValue",
          "type": "uint256"
        }
      ],
      "name": "increaseAllowance",
      "outputs": [
        {
          "internalType": "bool",
          "name": "",
          "type": "bool"
        }
      ],
      "stateMutability": "nonpayable",
      "type": "function"
    },
    {
      "inputs": [],
      "name": "initialSupply",
      "outputs": [
        {
          "internalType": "uint256",
          "name": "",
          "type": "uint256"
        }
      ],
      "stateMutability": "view",
      "type": "function"
    },
    {
      "inputs": [
        {
          "internalType": "address",
          "name": "_to",
          "type": "address"
        },
        {
          "internalType": "uint256",
          "name": "_amount",
          "type": "uint256"
        }
      ],
      "name": "mintPlanktons",
      "outputs": [],
      "stateMutability": "nonpayable",
      "type": "function"
    },
    {
      "inputs": [],
      "name": "name",
      "outputs": [
        {
          "internalType": "string",
          "name": "",
          "type": "string"
        }
      ],
      "stateMutability": "view",
      "type": "function"
    },
    {
      "inputs": [],
      "name": "owner",
      "outputs": [
        {
          "internalType": "address",
          "name": "",
          "type": "address"
        }
      ],
      "stateMutability": "view",
      "type": "function"
    },
    {
      "inputs": [],
      "name": "renounceOwnership",
      "outputs": [],
      "stateMutability": "nonpayable",
      "type": "function"
    },
    {
      "inputs": [],
      "name": "symbol",
      "outputs": [
        {
          "internalType": "string",
          "name": "",
          "type": "string"
        }
      ],
      "stateMutability": "view",
      "type": "function"
    },
    {
      "inputs": [],
      "name": "totalSupply",
      "outputs": [
        {
          "internalType": "uint256",
          "name": "",
          "type": "uint256"
        }
      ],
      "stateMutability": "view",
      "type": "function"
    },
    {
      "inputs": [
        {
          "internalType": "address",
          "name": "recipient",
          "type": "address"
        },
        {
          "internalType": "uint256",
          "name": "amount",
          "type": "uint256"
        }
      ],
      "name": "transfer",
      "outputs": [
        {
          "internalType": "bool",
          "name": "",
          "type": "bool"
        }
      ],
      "stateMutability": "nonpayable",
      "type": "function"
    },
    {
      "inputs": [
        {
          "internalType": "address",
          "name": "sender",
          "type": "address"
        },
        {
          "internalType": "address",
          "name": "recipient",
          "type": "address"
        },
        {
          "internalType": "uint256",
          "name": "amount",
          "type": "uint256"
        }
      ],
      "name": "transferFrom",
      "outputs": [
        {
          "internalType": "bool",
          "name": "",
          "type": "bool"
        }
      ],
      "stateMutability": "nonpayable",
      "type": "function"
    },
    {
      "inputs": [
        {
          "internalType": "address",
          "name": "newOwner",
          "type": "address"
        }
      ],
      "name": "transferOwnership",
      "outputs": [],
      "stateMutability": "nonpayable",
      "type": "function"
    }
  ],
  "bytecode": "0x60806040523480156200001157600080fd5b506040516200216c3803806200216c833981810160405281019062000037919062000447565b6040518060400160405280600881526020017f506c616e6b746f6e0000000000000000000000000000000000000000000000008152506040518060400160405280600581526020017f504c414e4b0000000000000000000000000000000000000000000000000000008152508160039080519060200190620000bb92919062000369565b508060049080519060200190620000d492919062000369565b505050620000f7620000eb6200011860201b60201c565b6200012060201b60201c565b620001098183620001e660201b60201c565b8160068190555050506200069c565b600033905090565b6000600560009054906101000a900473ffffffffffffffffffffffffffffffffffffffff16905081600560006101000a81548173ffffffffffffffffffffffffffffffffffffffff021916908373ffffffffffffffffffffffffffffffffffffffff1602179055508173ffffffffffffffffffffffffffffffffffffffff168173ffffffffffffffffffffffffffffffffffffffff167f8be0079c531659141344cd1fd0a4f28419497f9722a3daafe3b4186f6b6457e060405160405180910390a35050565b600073ffffffffffffffffffffffffffffffffffffffff168273ffffffffffffffffffffffffffffffffffffffff16141562000259576040517f08c379a00000000000000000000000000000000000000000000000000000000081526004016200025090620004c0565b60405180910390fd5b6200026d600083836200035f60201b60201c565b806002600082825462000281919062000510565b92505081905550806000808473ffffffffffffffffffffffffffffffffffffffff1673ffffffffffffffffffffffffffffffffffffffff1681526020019081526020016000206000828254620002d8919062000510565b925050819055508173ffffffffffffffffffffffffffffffffffffffff16600073ffffffffffffffffffffffffffffffffffffffff167fddf252ad1be2c89b69c2b068fc378daa952ba7f163c4a11628f55a4df523b3ef836040516200033f9190620004e2565b60405180910390a36200035b600083836200036460201b60201c565b5050565b505050565b505050565b8280546200037790620005ab565b90600052602060002090601f0160209004810192826200039b5760008555620003e7565b82601f10620003b657805160ff1916838001178555620003e7565b82800160010185558215620003e7579182015b82811115620003e6578251825591602001919060010190620003c9565b5b509050620003f69190620003fa565b5090565b5b8082111562000415576000816000905550600101620003fb565b5090565b6000815190506200042a8162000668565b92915050565b600081519050620004418162000682565b92915050565b600080604083850312156200045b57600080fd5b60006200046b8582860162000430565b92505060206200047e8582860162000419565b9150509250929050565b600062000497601f83620004ff565b9150620004a4826200063f565b602082019050919050565b620004ba81620005a1565b82525050565b60006020820190508181036000830152620004db8162000488565b9050919050565b6000602082019050620004f96000830184620004af565b92915050565b600082825260208201905092915050565b60006200051d82620005a1565b91506200052a83620005a1565b9250827fffffffffffffffffffffffffffffffffffffffffffffffffffffffffffffffff03821115620005625762000561620005e1565b5b828201905092915050565b60006200057a8262000581565b9050919050565b600073ffffffffffffffffffffffffffffffffffffffff82169050919050565b6000819050919050565b60006002820490506001821680620005c457607f821691505b60208210811415620005db57620005da62000610565b5b50919050565b7f4e487b7100000000000000000000000000000000000000000000000000000000600052601160045260246000fd5b7f4e487b7100000000000000000000000000000000000000000000000000000000600052602260045260246000fd5b7f45524332303a206d696e7420746f20746865207a65726f206164647265737300600082015250565b62000673816200056d565b81146200067f57600080fd5b50565b6200068d81620005a1565b81146200069957600080fd5b50565b611ac080620006ac6000396000f3fe608060405234801561001057600080fd5b50600436106101005760003560e01c806370a0823111610097578063a457c2d711610066578063a457c2d71461029f578063a9059cbb146102cf578063dd62ed3e146102ff578063f2fde38b1461032f57610100565b806370a0823114610229578063715018a6146102595780638da5cb5b1461026357806395d89b411461028157610100565b8063313ce567116100d3578063313ce567146101a1578063378dc3dc146101bf57806339509351146101dd5780635e1e50f31461020d57610100565b806306fdde0314610105578063095ea7b31461012357806318160ddd1461015357806323b872dd14610171575b600080fd5b61010d61034b565b60405161011a919061145f565b60405180910390f35b61013d600480360381019061013891906111f1565b6103dd565b60405161014a9190611444565b60405180910390f35b61015b6103fb565b60405161016891906115c1565b60405180910390f35b61018b600480360381019061018691906111a2565b610405565b6040516101989190611444565b60405180910390f35b6101a96104fd565b6040516101b691906115dc565b60405180910390f35b6101c7610506565b6040516101d491906115c1565b60405180910390f35b6101f760048036038101906101f291906111f1565b61050c565b6040516102049190611444565b60405180910390f35b610227600480360381019061022291906111f1565b6105b8565b005b610243600480360381019061023e919061113d565b61067b565b60405161025091906115c1565b60405180910390f35b6102616106c3565b005b61026b61074b565b6040516102789190611400565b60405180910390f35b610289610775565b604051610296919061145f565b60405180910390f35b6102b960048036038101906102b491906111f1565b610807565b6040516102c69190611444565b60405180910390f35b6102e960048036038101906102e491906111f1565b6108f2565b6040516102f69190611444565b60405180910390f35b61031960048036038101906103149190611166565b610910565b60405161032691906115c1565b60405180910390f35b6103496004803603810190610344919061113d565b610997565b005b60606003805461035a906116f1565b80601f0160208091040260200160405190810160405280929190818152602001828054610386906116f1565b80156103d35780601f106103a8576101008083540402835291602001916103d3565b820191906000526020600020905b8154815290600101906020018083116103b657829003601f168201915b5050505050905090565b60006103f16103ea610a8f565b8484610a97565b6001905092915050565b6000600254905090565b6000610412848484610c62565b6000600160008673ffffffffffffffffffffffffffffffffffffffff1673ffffffffffffffffffffffffffffffffffffffff168152602001908152602001600020600061045d610a8f565b73ffffffffffffffffffffffffffffffffffffffff1673ffffffffffffffffffffffffffffffffffffffff168152602001908152602001600020549050828110156104dd576040517f08c379a00000000000000000000000000000000000000000000000000000000081526004016104d490611501565b60405180910390fd5b6104f1856104e9610a8f565b858403610a97565b60019150509392505050565b60006012905090565b60065481565b60006105ae610519610a8f565b848460016000610527610a8f565b73ffffffffffffffffffffffffffffffffffffffff1673ffffffffffffffffffffffffffffffffffffffff16815260200190815260200160002060008873ffffffffffffffffffffffffffffffffffffffff1673ffffffffffffffffffffffffffffffffffffffff168152602001908152602001600020546105a99190611613565b610a97565b6001905092915050565b6105c0610a8f565b73ffffffffffffffffffffffffffffffffffffffff166105de61074b565b73ffffffffffffffffffffffffffffffffffffffff1614610634576040517f08c379a000000000000000000000000000000000000000000000000000000000815260040161062b90611521565b60405180910390fd5b61063e8282610ee3565b7fc858a6e0f13503b6f7c4727e1532177a5a43a042537ab8d93b718184bc527e73828260405161066f92919061141b565b60405180910390a15050565b60008060008373ffffffffffffffffffffffffffffffffffffffff1673ffffffffffffffffffffffffffffffffffffffff168152602001908152602001600020549050919050565b6106cb610a8f565b73ffffffffffffffffffffffffffffffffffffffff166106e961074b565b73ffffffffffffffffffffffffffffffffffffffff161461073f576040517f08c379a000000000000000000000000000000000000000000000000000000000815260040161073690611521565b60405180910390fd5b6107496000611043565b565b6000600560009054906101000a900473ffffffffffffffffffffffffffffffffffffffff16905090565b606060048054610784906116f1565b80601f01602080910402602001604051908101604052809291908181526020018280546107b0906116f1565b80156107fd5780601f106107d2576101008083540402835291602001916107fd565b820191906000526020600020905b8154815290600101906020018083116107e057829003601f168201915b5050505050905090565b60008060016000610816610a8f565b73ffffffffffffffffffffffffffffffffffffffff1673ffffffffffffffffffffffffffffffffffffffff16815260200190815260200160002060008573ffffffffffffffffffffffffffffffffffffffff1673ffffffffffffffffffffffffffffffffffffffff168152602001908152602001600020549050828110156108d3576040517f08c379a00000000000000000000000000000000000000000000000000000000081526004016108ca90611581565b60405180910390fd5b6108e76108de610a8f565b85858403610a97565b600191505092915050565b60006109066108ff610a8f565b8484610c62565b6001905092915050565b6000600160008473ffffffffffffffffffffffffffffffffffffffff1673ffffffffffffffffffffffffffffffffffffffff16815260200190815260200160002060008373ffffffffffffffffffffffffffffffffffffffff1673ffffffffffffffffffffffffffffffffffffffff16815260200190815260200160002054905092915050565b61099f610a8f565b73ffffffffffffffffffffffffffffffffffffffff166109bd61074b565b73ffffffffffffffffffffffffffffffffffffffff1614610a13576040517f08c379a0000000000000000000000000000000000000000000000000000000008152600401610a0a90611521565b60405180910390fd5b600073ffffffffffffffffffffffffffffffffffffffff168173ffffffffffffffffffffffffffffffffffffffff161415610a83576040517f08c379a0000000000000000000000000000000000000000000000000000000008152600401610a7a906114a1565b60405180910390fd5b610a8c81611043565b50565b600033905090565b600073ffffffffffffffffffffffffffffffffffffffff168373ffffffffffffffffffffffffffffffffffffffff161415610b07576040517f08c379a0000000000000000000000000000000000000000000000000000000008152600401610afe90611561565b60405180910390fd5b600073ffffffffffffffffffffffffffffffffffffffff168273ffffffffffffffffffffffffffffffffffffffff161415610b77576040517f08c379a0000000000000000000000000000000000000000000000000000000008152600401610b6e906114c1565b60405180910390fd5b80600160008573ffffffffffffffffffffffffffffffffffffffff1673ffffffffffffffffffffffffffffffffffffffff16815260200190815260200160002060008473ffffffffffffffffffffffffffffffffffffffff1673ffffffffffffffffffffffffffffffffffffffff168152602001908152602001600020819055508173ffffffffffffffffffffffffffffffffffffffff168373ffffffffffffffffffffffffffffffffffffffff167f8c5be1e5ebec7d5bd14f71427d1e84f3dd0314c0f7b2291e5b200ac8c7c3b92583604051610c5591906115c1565b60405180910390a3505050565b600073ffffffffffffffffffffffffffffffffffffffff168373ffffffffffffffffffffffffffffffffffffffff161415610cd2576040517f08c379a0000000000000000000000000000000000000000000000000000000008152600401610cc990611541565b60405180910390fd5b600073ffffffffffffffffffffffffffffffffffffffff168273ffffffffffffffffffffffffffffffffffffffff161415610d42576040517f08c379a0000000000000000000000000000000000000000000000000000000008152600401610d3990611481565b60405180910390fd5b610d4d838383611109565b60008060008573ffffffffffffffffffffffffffffffffffffffff1673ffffffffffffffffffffffffffffffffffffffff16815260200190815260200160002054905081811015610dd3576040517f08c379a0000000000000000000000000000000000000000000000000000000008152600401610dca906114e1565b60405180910390fd5b8181036000808673ffffffffffffffffffffffffffffffffffffffff1673ffffffffffffffffffffffffffffffffffffffff16815260200190815260200160002081905550816000808573ffffffffffffffffffffffffffffffffffffffff1673ffffffffffffffffffffffffffffffffffffffff1681526020019081526020016000206000828254610e669190611613565b925050819055508273ffffffffffffffffffffffffffffffffffffffff168473ffffffffffffffffffffffffffffffffffffffff167fddf252ad1be2c89b69c2b068fc378daa952ba7f163c4a11628f55a4df523b3ef84604051610eca91906115c1565b60405180910390a3610edd84848461110e565b50505050565b600073ffffffffffffffffffffffffffffffffffffffff168273ffffffffffffffffffffffffffffffffffffffff161415610f53576040517f08c379a0000000000000000000000000000000000000000000000000000000008152600401610f4a906115a1565b60405180910390fd5b610f5f60008383611109565b8060026000828254610f719190611613565b92505081905550806000808473ffffffffffffffffffffffffffffffffffffffff1673ffffffffffffffffffffffffffffffffffffffff1681526020019081526020016000206000828254610fc69190611613565b925050819055508173ffffffffffffffffffffffffffffffffffffffff16600073ffffffffffffffffffffffffffffffffffffffff167fddf252ad1be2c89b69c2b068fc378daa952ba7f163c4a11628f55a4df523b3ef8360405161102b91906115c1565b60405180910390a361103f6000838361110e565b5050565b6000600560009054906101000a900473ffffffffffffffffffffffffffffffffffffffff16905081600560006101000a81548173ffffffffffffffffffffffffffffffffffffffff021916908373ffffffffffffffffffffffffffffffffffffffff1602179055508173ffffffffffffffffffffffffffffffffffffffff168173ffffffffffffffffffffffffffffffffffffffff167f8be0079c531659141344cd1fd0a4f28419497f9722a3daafe3b4186f6b6457e060405160405180910390a35050565b505050565b505050565b60008135905061112281611a5c565b92915050565b60008135905061113781611a73565b92915050565b60006020828403121561114f57600080fd5b600061115d84828501611113565b91505092915050565b6000806040838503121561117957600080fd5b600061118785828601611113565b925050602061119885828601611113565b9150509250929050565b6000806000606084860312156111b757600080fd5b60006111c586828701611113565b93505060206111d686828701611113565b92505060406111e786828701611128565b9150509250925092565b6000806040838503121561120457600080fd5b600061121285828601611113565b925050602061122385828601611128565b9150509250929050565b61123681611669565b82525050565b6112458161167b565b82525050565b6000611256826115f7565b6112608185611602565b93506112708185602086016116be565b61127981611781565b840191505092915050565b6000611291602383611602565b915061129c82611792565b604082019050919050565b60006112b4602683611602565b91506112bf826117e1565b604082019050919050565b60006112d7602283611602565b91506112e282611830565b604082019050919050565b60006112fa602683611602565b91506113058261187f565b604082019050919050565b600061131d602883611602565b9150611328826118ce565b604082019050919050565b6000611340602083611602565b915061134b8261191d565b602082019050919050565b6000611363602583611602565b915061136e82611946565b604082019050919050565b6000611386602483611602565b915061139182611995565b604082019050919050565b60006113a9602583611602565b91506113b4826119e4565b604082019050919050565b60006113cc601f83611602565b91506113d782611a33565b602082019050919050565b6113eb816116a7565b82525050565b6113fa816116b1565b82525050565b6000602082019050611415600083018461122d565b92915050565b6000604082019050611430600083018561122d565b61143d60208301846113e2565b9392505050565b6000602082019050611459600083018461123c565b92915050565b60006020820190508181036000830152611479818461124b565b905092915050565b6000602082019050818103600083015261149a81611284565b9050919050565b600060208201905081810360008301526114ba816112a7565b9050919050565b600060208201905081810360008301526114da816112ca565b9050919050565b600060208201905081810360008301526114fa816112ed565b9050919050565b6000602082019050818103600083015261151a81611310565b9050919050565b6000602082019050818103600083015261153a81611333565b9050919050565b6000602082019050818103600083015261155a81611356565b9050919050565b6000602082019050818103600083015261157a81611379565b9050919050565b6000602082019050818103600083015261159a8161139c565b9050919050565b600060208201905081810360008301526115ba816113bf565b9050919050565b60006020820190506115d660008301846113e2565b92915050565b60006020820190506115f160008301846113f1565b92915050565b600081519050919050565b600082825260208201905092915050565b600061161e826116a7565b9150611629836116a7565b9250827fffffffffffffffffffffffffffffffffffffffffffffffffffffffffffffffff0382111561165e5761165d611723565b5b828201905092915050565b600061167482611687565b9050919050565b60008115159050919050565b600073ffffffffffffffffffffffffffffffffffffffff82169050919050565b6000819050919050565b600060ff82169050919050565b60005b838110156116dc5780820151818401526020810190506116c1565b838111156116eb576000848401525b50505050565b6000600282049050600182168061170957607f821691505b6020821081141561171d5761171c611752565b5b50919050565b7f4e487b7100000000000000000000000000000000000000000000000000000000600052601160045260246000fd5b7f4e487b7100000000000000000000000000000000000000000000000000000000600052602260045260246000fd5b6000601f19601f8301169050919050565b7f45524332303a207472616e7366657220746f20746865207a65726f206164647260008201527f6573730000000000000000000000000000000000000000000000000000000000602082015250565b7f4f776e61626c653a206e6577206f776e657220697320746865207a65726f206160008201527f6464726573730000000000000000000000000000000000000000000000000000602082015250565b7f45524332303a20617070726f766520746f20746865207a65726f20616464726560008201527f7373000000000000000000000000000000000000000000000000000000000000602082015250565b7f45524332303a207472616e7366657220616d6f756e742065786365656473206260008201527f616c616e63650000000000000000000000000000000000000000000000000000602082015250565b7f45524332303a207472616e7366657220616d6f756e742065786365656473206160008201527f6c6c6f77616e6365000000000000000000000000000000000000000000000000602082015250565b7f4f776e61626c653a2063616c6c6572206973206e6f7420746865206f776e6572600082015250565b7f45524332303a207472616e736665722066726f6d20746865207a65726f20616460008201527f6472657373000000000000000000000000000000000000000000000000000000602082015250565b7f45524332303a20617070726f76652066726f6d20746865207a65726f2061646460008201527f7265737300000000000000000000000000000000000000000000000000000000602082015250565b7f45524332303a2064656372656173656420616c6c6f77616e63652062656c6f7760008201527f207a65726f000000000000000000000000000000000000000000000000000000602082015250565b7f45524332303a206d696e7420746f20746865207a65726f206164647265737300600082015250565b611a6581611669565b8114611a7057600080fd5b50565b611a7c816116a7565b8114611a8757600080fd5b5056fea264697066735822122019e48ebfdf420596c87835cf97da0a209c3535ca75d68e539238abdc488551fa64736f6c63430008040033",
  "linkReferences": {},
  "deployedLinkReferences": {}
}