{
  "_format": "hh-sol-artifact-1",
  "contractName": "AquariumLifeForm",
  "sourceName": "contracts/NFTS/AquariumLifeForm.sol",
  "abi": [
    {
      "inputs": [
        {
          "internalType": "string",
          "name": "_baseTokenURI",
          "type": "string"
        },
        {
          "internalType": "string",
          "name": "_name",
          "type": "string"
        },
        {
          "internalType": "string",
          "name": "_symbol",
          "type": "string"
        },
        {
          "internalType": "uint256",
          "name": "_mintPrice",
          "type": "uint256"
        },
        {
          "internalType": "uint256",
          "name": "_maxMint",
          "type": "uint256"
        },
        {
          "internalType": "uint256",
          "name": "_reserved",
          "type": "uint256"
        },
        {
          "internalType": "uint256",
          "name": "_maxSupply",
          "type": "uint256"
        },
        {
          "internalType": "address",
          "name": "_plank",
          "type": "address"
        },
        {
          "internalType": "uint256",
          "name": "_feedFee",
          "type": "uint256"
        }
      ],
      "stateMutability": "nonpayable",
      "type": "constructor"
    },
    {
      "anonymous": false,
      "inputs": [
        {
          "indexed": true,
          "internalType": "address",
          "name": "owner",
          "type": "address"
        },
        {
          "indexed": true,
          "internalType": "address",
          "name": "approved",
          "type": "address"
        },
        {
          "indexed": true,
          "internalType": "uint256",
          "name": "tokenId",
          "type": "uint256"
        }
      ],
      "name": "Approval",
      "type": "event"
    },
    {
      "anonymous": false,
      "inputs": [
        {
          "indexed": true,
          "internalType": "address",
          "name": "owner",
          "type": "address"
        },
        {
          "indexed": true,
          "internalType": "address",
          "name": "operator",
          "type": "address"
        },
        {
          "indexed": false,
          "internalType": "bool",
          "name": "approved",
          "type": "bool"
        }
      ],
      "name": "ApprovalForAll",
      "type": "event"
    },
    {
      "anonymous": false,
      "inputs": [
        {
          "indexed": true,
          "internalType": "address",
          "name": "previousOwner",
          "type": "address"
        },
        {
          "indexed": true,
          "internalType": "address",
          "name": "newOwner",
          "type": "address"
        }
      ],
      "name": "OwnershipTransferred",
      "type": "event"
    },
    {
      "anonymous": false,
      "inputs": [
        {
          "indexed": true,
          "internalType": "address",
          "name": "from",
          "type": "address"
        },
        {
          "indexed": true,
          "internalType": "address",
          "name": "to",
          "type": "address"
        },
        {
          "indexed": true,
          "internalType": "uint256",
          "name": "tokenId",
          "type": "uint256"
        }
      ],
      "name": "Transfer",
      "type": "event"
    },
    {
      "inputs": [],
      "name": "PLANK",
      "outputs": [
        {
          "internalType": "contract IERC20",
          "name": "",
          "type": "address"
        }
      ],
      "stateMutability": "view",
      "type": "function"
    },
    {
      "inputs": [
        {
          "internalType": "uint256",
          "name": "_id",
          "type": "uint256"
        }
      ],
      "name": "aceptBattle",
      "outputs": [],
      "stateMutability": "nonpayable",
      "type": "function"
    },
    {
      "inputs": [
        {
          "internalType": "address",
          "name": "to",
          "type": "address"
        },
        {
          "internalType": "uint256",
          "name": "tokenId",
          "type": "uint256"
        }
      ],
      "name": "approve",
      "outputs": [],
      "stateMutability": "nonpayable",
      "type": "function"
    },
    {
      "inputs": [
        {
          "internalType": "address",
          "name": "owner",
          "type": "address"
        }
      ],
      "name": "balanceOf",
      "outputs": [
        {
          "internalType": "uint256",
          "name": "",
          "type": "uint256"
        }
      ],
      "stateMutability": "view",
      "type": "function"
    },
    {
      "inputs": [],
      "name": "baseTokenURI",
      "outputs": [
        {
          "internalType": "string",
          "name": "",
          "type": "string"
        }
      ],
      "stateMutability": "view",
      "type": "function"
    },
    {
      "inputs": [
        {
          "internalType": "uint256",
          "name": "",
          "type": "uint256"
        }
      ],
      "name": "battlesLeft",
      "outputs": [
        {
          "internalType": "uint8",
          "name": "",
          "type": "uint8"
        }
      ],
      "stateMutability": "view",
      "type": "function"
    },
    {
      "inputs": [
        {
          "internalType": "uint256",
          "name": "_id",
          "type": "uint256"
        },
        {
          "internalType": "uint256",
          "name": "_amount",
          "type": "uint256"
        }
      ],
      "name": "feed",
      "outputs": [],
      "stateMutability": "nonpayable",
      "type": "function"
    },
    {
      "inputs": [],
      "name": "feedFee",
      "outputs": [
        {
          "internalType": "uint256",
          "name": "",
          "type": "uint256"
        }
      ],
      "stateMutability": "view",
      "type": "function"
    },
    {
      "inputs": [
        {
          "internalType": "uint256",
          "name": "tokenId",
          "type": "uint256"
        }
      ],
      "name": "getApproved",
      "outputs": [
        {
          "internalType": "address",
          "name": "",
          "type": "address"
        }
      ],
      "stateMutability": "view",
      "type": "function"
    },
    {
      "inputs": [],
      "name": "getPrice",
      "outputs": [
        {
          "internalType": "uint256",
          "name": "",
          "type": "uint256"
        }
      ],
      "stateMutability": "view",
      "type": "function"
    },
    {
      "inputs": [
        {
          "internalType": "address",
          "name": "_to",
          "type": "address"
        },
        {
          "internalType": "uint256",
          "name": "_amount",
          "type": "uint256"
        }
      ],
      "name": "giveAway",
      "outputs": [],
      "stateMutability": "nonpayable",
      "type": "function"
    },
    {
      "inputs": [
        {
          "internalType": "address",
          "name": "owner",
          "type": "address"
        },
        {
          "internalType": "address",
          "name": "operator",
          "type": "address"
        }
      ],
      "name": "isApprovedForAll",
      "outputs": [
        {
          "internalType": "bool",
          "name": "",
          "type": "bool"
        }
      ],
      "stateMutability": "view",
      "type": "function"
    },
    {
      "inputs": [],
      "name": "maxMint",
      "outputs": [
        {
          "internalType": "uint256",
          "name": "",
          "type": "uint256"
        }
      ],
      "stateMutability": "view",
      "type": "function"
    },
    {
      "inputs": [],
      "name": "maxSupply",
      "outputs": [
        {
          "internalType": "uint256",
          "name": "",
          "type": "uint256"
        }
      ],
      "stateMutability": "view",
      "type": "function"
    },
    {
      "inputs": [
        {
          "internalType": "uint256",
          "name": "_amount",
          "type": "uint256"
        }
      ],
      "name": "mintAQLF",
      "outputs": [],
      "stateMutability": "payable",
      "type": "function"
    },
    {
      "inputs": [],
      "name": "name",
      "outputs": [
        {
          "internalType": "string",
          "name": "",
          "type": "string"
        }
      ],
      "stateMutability": "view",
      "type": "function"
    },
    {
      "inputs": [],
      "name": "owner",
      "outputs": [
        {
          "internalType": "address",
          "name": "",
          "type": "address"
        }
      ],
      "stateMutability": "view",
      "type": "function"
    },
    {
      "inputs": [
        {
          "internalType": "uint256",
          "name": "tokenId",
          "type": "uint256"
        }
      ],
      "name": "ownerOf",
      "outputs": [
        {
          "internalType": "address",
          "name": "",
          "type": "address"
        }
      ],
      "stateMutability": "view",
      "type": "function"
    },
    {
      "inputs": [
        {
          "internalType": "bool",
          "name": "_val",
          "type": "bool"
        }
      ],
      "name": "pause",
      "outputs": [],
      "stateMutability": "nonpayable",
      "type": "function"
    },
    {
      "inputs": [],
      "name": "paused",
      "outputs": [
        {
          "internalType": "bool",
          "name": "",
          "type": "bool"
        }
      ],
      "stateMutability": "view",
      "type": "function"
    },
    {
      "inputs": [],
      "name": "price",
      "outputs": [
        {
          "internalType": "uint256",
          "name": "",
          "type": "uint256"
        }
      ],
      "stateMutability": "view",
      "type": "function"
    },
    {
      "inputs": [],
      "name": "renounceOwnership",
      "outputs": [],
      "stateMutability": "nonpayable",
      "type": "function"
    },
    {
      "inputs": [],
      "name": "reserved",
      "outputs": [
        {
          "internalType": "uint256",
          "name": "",
          "type": "uint256"
        }
      ],
      "stateMutability": "view",
      "type": "function"
    },
    {
      "inputs": [
        {
          "internalType": "address",
          "name": "from",
          "type": "address"
        },
        {
          "internalType": "address",
          "name": "to",
          "type": "address"
        },
        {
          "internalType": "uint256",
          "name": "tokenId",
          "type": "uint256"
        }
      ],
      "name": "safeTransferFrom",
      "outputs": [],
      "stateMutability": "nonpayable",
      "type": "function"
    },
    {
      "inputs": [
        {
          "internalType": "address",
          "name": "from",
          "type": "address"
        },
        {
          "internalType": "address",
          "name": "to",
          "type": "address"
        },
        {
          "internalType": "uint256",
          "name": "tokenId",
          "type": "uint256"
        },
        {
          "internalType": "bytes",
          "name": "_data",
          "type": "bytes"
        }
      ],
      "name": "safeTransferFrom",
      "outputs": [],
      "stateMutability": "nonpayable",
      "type": "function"
    },
    {
      "inputs": [
        {
          "internalType": "address",
          "name": "operator",
          "type": "address"
        },
        {
          "internalType": "bool",
          "name": "approved",
          "type": "bool"
        }
      ],
      "name": "setApprovalForAll",
      "outputs": [],
      "stateMutability": "nonpayable",
      "type": "function"
    },
    {
      "inputs": [
        {
          "internalType": "uint256",
          "name": "_newPrice",
          "type": "uint256"
        }
      ],
      "name": "setMintPrice",
      "outputs": [],
      "stateMutability": "nonpayable",
      "type": "function"
    },
    {
      "inputs": [
        {
          "internalType": "bytes4",
          "name": "interfaceId",
          "type": "bytes4"
        }
      ],
      "name": "supportsInterface",
      "outputs": [
        {
          "internalType": "bool",
          "name": "",
          "type": "bool"
        }
      ],
      "stateMutability": "view",
      "type": "function"
    },
    {
      "inputs": [],
      "name": "symbol",
      "outputs": [
        {
          "internalType": "string",
          "name": "",
          "type": "string"
        }
      ],
      "stateMutability": "view",
      "type": "function"
    },
    {
      "inputs": [
        {
          "internalType": "uint256",
          "name": "index",
          "type": "uint256"
        }
      ],
      "name": "tokenByIndex",
      "outputs": [
        {
          "internalType": "uint256",
          "name": "",
          "type": "uint256"
        }
      ],
      "stateMutability": "view",
      "type": "function"
    },
    {
      "inputs": [
        {
          "internalType": "address",
          "name": "owner",
          "type": "address"
        },
        {
          "internalType": "uint256",
          "name": "index",
          "type": "uint256"
        }
      ],
      "name": "tokenOfOwnerByIndex",
      "outputs": [
        {
          "internalType": "uint256",
          "name": "",
          "type": "uint256"
        }
      ],
      "stateMutability": "view",
      "type": "function"
    },
    {
      "inputs": [
        {
          "internalType": "uint256",
          "name": "tokenId",
          "type": "uint256"
        }
      ],
      "name": "tokenURI",
      "outputs": [
        {
          "internalType": "string",
          "name": "",
          "type": "string"
        }
      ],
      "stateMutability": "view",
      "type": "function"
    },
    {
      "inputs": [],
      "name": "totalSupply",
      "outputs": [
        {
          "internalType": "uint256",
          "name": "",
          "type": "uint256"
        }
      ],
      "stateMutability": "view",
      "type": "function"
    },
    {
      "inputs": [
        {
          "internalType": "address",
          "name": "from",
          "type": "address"
        },
        {
          "internalType": "address",
          "name": "to",
          "type": "address"
        },
        {
          "internalType": "uint256",
          "name": "tokenId",
          "type": "uint256"
        }
      ],
      "name": "transferFrom",
      "outputs": [],
      "stateMutability": "nonpayable",
      "type": "function"
    },
    {
      "inputs": [
        {
          "internalType": "address",
          "name": "newOwner",
          "type": "address"
        }
      ],
      "name": "transferOwnership",
      "outputs": [],
      "stateMutability": "nonpayable",
      "type": "function"
    },
    {
      "inputs": [
        {
          "internalType": "address",
          "name": "_to",
          "type": "address"
        }
      ],
      "name": "withdraw",
      "outputs": [],
      "stateMutability": "nonpayable",
      "type": "function"
    }
  ],
  "bytecode": "0x60806040526001601060006101000a81548160ff0219169083151502179055503480156200002c57600080fd5b5060405162004dad38038062004dad83398181016040528101906200005291906200041f565b878781600090805190602001906200006c929190620002cf565b50806001908051906020019062000085929190620002cf565b505050620000a86200009c6200013e60201b60201c565b6200014660201b60201c565b88600b9080519060200190620000c0929190620002cf565b50620000d2866200020c60201b60201c565b84600d8190555082600e8190555083600f8190555081601060016101000a81548173ffffffffffffffffffffffffffffffffffffffff021916908373ffffffffffffffffffffffffffffffffffffffff16021790555080601181905550505050505050505050620007a8565b600033905090565b6000600a60009054906101000a900473ffffffffffffffffffffffffffffffffffffffff16905081600a60006101000a81548173ffffffffffffffffffffffffffffffffffffffff021916908373ffffffffffffffffffffffffffffffffffffffff1602179055508173ffffffffffffffffffffffffffffffffffffffff168173ffffffffffffffffffffffffffffffffffffffff167f8be0079c531659141344cd1fd0a4f28419497f9722a3daafe3b4186f6b6457e060405160405180910390a35050565b6200021c6200013e60201b60201c565b73ffffffffffffffffffffffffffffffffffffffff1662000242620002a560201b60201c565b73ffffffffffffffffffffffffffffffffffffffff16146200029b576040517f08c379a000000000000000000000000000000000000000000000000000000000815260040162000292906200056a565b60405180910390fd5b80600c8190555050565b6000600a60009054906101000a900473ffffffffffffffffffffffffffffffffffffffff16905090565b828054620002dd9062000670565b90600052602060002090601f0160209004810192826200030157600085556200034d565b82601f106200031c57805160ff19168380011785556200034d565b828001600101855582156200034d579182015b828111156200034c5782518255916020019190600101906200032f565b5b5090506200035c919062000360565b5090565b5b808211156200037b57600081600090555060010162000361565b5090565b6000620003966200039084620005b5565b6200058c565b905082815260208101848484011115620003af57600080fd5b620003bc8482856200063a565b509392505050565b600081519050620003d58162000774565b92915050565b600082601f830112620003ed57600080fd5b8151620003ff8482602086016200037f565b91505092915050565b60008151905062000419816200078e565b92915050565b60008060008060008060008060006101208a8c0312156200043f57600080fd5b60008a015167ffffffffffffffff8111156200045a57600080fd5b620004688c828d01620003db565b99505060208a015167ffffffffffffffff8111156200048657600080fd5b620004948c828d01620003db565b98505060408a015167ffffffffffffffff811115620004b257600080fd5b620004c08c828d01620003db565b9750506060620004d38c828d0162000408565b9650506080620004e68c828d0162000408565b95505060a0620004f98c828d0162000408565b94505060c06200050c8c828d0162000408565b93505060e06200051f8c828d01620003c4565b925050610100620005338c828d0162000408565b9150509295985092959850929598565b600062000552602083620005eb565b91506200055f826200074b565b602082019050919050565b60006020820190508181036000830152620005858162000543565b9050919050565b600062000598620005ab565b9050620005a68282620006a6565b919050565b6000604051905090565b600067ffffffffffffffff821115620005d357620005d26200070b565b5b620005de826200073a565b9050602081019050919050565b600082825260208201905092915050565b6000620006098262000610565b9050919050565b600073ffffffffffffffffffffffffffffffffffffffff82169050919050565b6000819050919050565b60005b838110156200065a5780820151818401526020810190506200063d565b838111156200066a576000848401525b50505050565b600060028204905060018216806200068957607f821691505b60208210811415620006a0576200069f620006dc565b5b50919050565b620006b1826200073a565b810181811067ffffffffffffffff82111715620006d357620006d26200070b565b5b80604052505050565b7f4e487b7100000000000000000000000000000000000000000000000000000000600052602260045260246000fd5b7f4e487b7100000000000000000000000000000000000000000000000000000000600052604160045260246000fd5b6000601f19601f8301169050919050565b7f4f776e61626c653a2063616c6c6572206973206e6f7420746865206f776e6572600082015250565b6200077f81620005fc565b81146200078b57600080fd5b50565b620007998162000630565b8114620007a557600080fd5b50565b6145f580620007b86000396000f3fe60806040526004361061020f5760003560e01c80638da5cb5b11610118578063ca800144116100a0578063eac6e2791161006f578063eac6e279146107c3578063f2fde38b146107ee578063f4a0a52814610817578063f7c3f42714610840578063fe60d12c1461085c5761020f565b8063ca80014414610707578063d547cfb714610730578063d5abeb011461075b578063e985e9c5146107865761020f565b8063a035b1fe116100e7578063a035b1fe14610622578063a22cb4651461064d578063a488f43414610676578063b88d4fde146106a1578063c87b56dd146106ca5761020f565b80638da5cb5b1461056457806391c06bd11461058f57806395d89b41146105cc57806398d5fdca146105f75761020f565b806342842e0e1161019b5780636352211e1161016a5780636352211e1461047f5780636d6aa5bb146104bc57806370a08231146104e5578063715018a6146105225780637501f741146105395761020f565b806342842e0e146103c55780634f6ccce7146103ee57806351cff8d91461042b5780635c975abb146104545761020f565b8063095ea7b3116101e2578063095ea7b3146102e257806318160ddd1461030b57806323b872dd14610336578063254c4f751461035f5780632f745c59146103885761020f565b806301ffc9a71461021457806302329a291461025157806306fdde031461027a578063081812fc146102a5575b600080fd5b34801561022057600080fd5b5061023b600480360381019061023691906130f3565b610887565b60405161024891906136c5565b60405180910390f35b34801561025d57600080fd5b50610278600480360381019061027391906130a1565b610901565b005b34801561028657600080fd5b5061028f61099a565b60405161029c91906136fb565b60405180910390f35b3480156102b157600080fd5b506102cc60048036038101906102c79190613145565b610a2c565b6040516102d99190613627565b60405180910390f35b3480156102ee57600080fd5b5061030960048036038101906103049190613065565b610ab1565b005b34801561031757600080fd5b50610320610bc9565b60405161032d9190613a3d565b60405180910390f35b34801561034257600080fd5b5061035d60048036038101906103589190612f5f565b610bd6565b005b34801561036b57600080fd5b5061038660048036038101906103819190613145565b610c36565b005b34801561039457600080fd5b506103af60048036038101906103aa9190613065565b610da2565b6040516103bc9190613a3d565b60405180910390f35b3480156103d157600080fd5b506103ec60048036038101906103e79190612f5f565b610e47565b005b3480156103fa57600080fd5b5061041560048036038101906104109190613145565b610e67565b6040516104229190613a3d565b60405180910390f35b34801561043757600080fd5b50610452600480360381019061044d9190612efa565b610efe565b005b34801561046057600080fd5b50610469610fc4565b60405161047691906136c5565b60405180910390f35b34801561048b57600080fd5b506104a660048036038101906104a19190613145565b610fd7565b6040516104b39190613627565b60405180910390f35b3480156104c857600080fd5b506104e360048036038101906104de919061316e565b611089565b005b3480156104f157600080fd5b5061050c60048036038101906105079190612efa565b6111ed565b6040516105199190613a3d565b60405180910390f35b34801561052e57600080fd5b506105376112a5565b005b34801561054557600080fd5b5061054e61132d565b60405161055b9190613a3d565b60405180910390f35b34801561057057600080fd5b50610579611333565b6040516105869190613627565b60405180910390f35b34801561059b57600080fd5b506105b660048036038101906105b19190613145565b61135d565b6040516105c39190613a58565b60405180910390f35b3480156105d857600080fd5b506105e161137d565b6040516105ee91906136fb565b60405180910390f35b34801561060357600080fd5b5061060c61140f565b6040516106199190613a3d565b60405180910390f35b34801561062e57600080fd5b50610637611419565b6040516106449190613a3d565b60405180910390f35b34801561065957600080fd5b50610674600480360381019061066f9190613029565b61141f565b005b34801561068257600080fd5b5061068b611435565b6040516106989190613a3d565b60405180910390f35b3480156106ad57600080fd5b506106c860048036038101906106c39190612fae565b61143b565b005b3480156106d657600080fd5b506106f160048036038101906106ec9190613145565b61149d565b6040516106fe91906136fb565b60405180910390f35b34801561071357600080fd5b5061072e60048036038101906107299190613065565b611544565b005b34801561073c57600080fd5b50610745611663565b60405161075291906136fb565b60405180910390f35b34801561076757600080fd5b506107706116f1565b60405161077d9190613a3d565b60405180910390f35b34801561079257600080fd5b506107ad60048036038101906107a89190612f23565b6116f7565b6040516107ba91906136c5565b60405180910390f35b3480156107cf57600080fd5b506107d861178b565b6040516107e591906136e0565b60405180910390f35b3480156107fa57600080fd5b5061081560048036038101906108109190612efa565b6117b1565b005b34801561082357600080fd5b5061083e60048036038101906108399190613145565b6118a9565b005b61085a60048036038101906108559190613145565b61192f565b005b34801561086857600080fd5b50610871611b0b565b60405161087e9190613a3d565b60405180910390f35b60007f780e9d63000000000000000000000000000000000000000000000000000000007bffffffffffffffffffffffffffffffffffffffffffffffffffffffff1916827bffffffffffffffffffffffffffffffffffffffffffffffffffffffff191614806108fa57506108f982611b11565b5b9050919050565b610909611bf3565b73ffffffffffffffffffffffffffffffffffffffff16610927611333565b73ffffffffffffffffffffffffffffffffffffffff161461097d576040517f08c379a00000000000000000000000000000000000000000000000000000000081526004016109749061393d565b60405180910390fd5b80601060006101000a81548160ff02191690831515021790555050565b6060600080546109a990613da4565b80601f01602080910402602001604051908101604052809291908181526020018280546109d590613da4565b8015610a225780601f106109f757610100808354040283529160200191610a22565b820191906000526020600020905b815481529060010190602001808311610a0557829003601f168201915b5050505050905090565b6000610a3782611bfb565b610a76576040517f08c379a0000000000000000000000000000000000000000000000000000000008152600401610a6d9061391d565b60405180910390fd5b6004600083815260200190815260200160002060009054906101000a900473ffffffffffffffffffffffffffffffffffffffff169050919050565b6000610abc82610fd7565b90508073ffffffffffffffffffffffffffffffffffffffff168373ffffffffffffffffffffffffffffffffffffffff161415610b2d576040517f08c379a0000000000000000000000000000000000000000000000000000000008152600401610b24906139bd565b60405180910390fd5b8073ffffffffffffffffffffffffffffffffffffffff16610b4c611bf3565b73ffffffffffffffffffffffffffffffffffffffff161480610b7b5750610b7a81610b75611bf3565b6116f7565b5b610bba576040517f08c379a0000000000000000000000000000000000000000000000000000000008152600401610bb19061389d565b60405180910390fd5b610bc48383611c67565b505050565b6000600880549050905090565b610be7610be1611bf3565b82611d20565b610c26576040517f08c379a0000000000000000000000000000000000000000000000000000000008152600401610c1d906139fd565b60405180910390fd5b610c31838383611dfe565b505050565b60006012600083815260200190815260200160002060009054906101000a900460ff1660ff1611610c9c576040517f08c379a0000000000000000000000000000000000000000000000000000000008152600401610c939061381d565b60405180910390fd5b601060019054906101000a900473ffffffffffffffffffffffffffffffffffffffff1673ffffffffffffffffffffffffffffffffffffffff166323b872dd610ce2611bf3565b306011546040518463ffffffff1660e01b8152600401610d0493929190613642565b602060405180830381600087803b158015610d1e57600080fd5b505af1158015610d32573d6000803e3d6000fd5b505050506040513d601f19601f82011682018060405250810190610d5691906130ca565b5060016012600083815260200190815260200160002060008282829054906101000a900460ff16610d879190613c89565b92506101000a81548160ff021916908360ff16021790555050565b6000610dad836111ed565b8210610dee576040517f08c379a0000000000000000000000000000000000000000000000000000000008152600401610de59061377d565b60405180910390fd5b600660008473ffffffffffffffffffffffffffffffffffffffff1673ffffffffffffffffffffffffffffffffffffffff168152602001908152602001600020600083815260200190815260200160002054905092915050565b610e628383836040518060200160405280600081525061143b565b505050565b6000610e71610bc9565b8210610eb2576040517f08c379a0000000000000000000000000000000000000000000000000000000008152600401610ea990613a1d565b60405180910390fd5b60088281548110610eec577f4e487b7100000000000000000000000000000000000000000000000000000000600052603260045260246000fd5b90600052602060002001549050919050565b610f06611bf3565b73ffffffffffffffffffffffffffffffffffffffff16610f24611333565b73ffffffffffffffffffffffffffffffffffffffff1614610f7a576040517f08c379a0000000000000000000000000000000000000000000000000000000008152600401610f719061393d565b60405180910390fd5b8073ffffffffffffffffffffffffffffffffffffffff166108fc479081150290604051600060405180830381858888f19350505050158015610fc0573d6000803e3d6000fd5b5050565b601060009054906101000a900460ff1681565b6000806002600084815260200190815260200160002060009054906101000a900473ffffffffffffffffffffffffffffffffffffffff169050600073ffffffffffffffffffffffffffffffffffffffff168173ffffffffffffffffffffffffffffffffffffffff161415611080576040517f08c379a0000000000000000000000000000000000000000000000000000000008152600401611077906138dd565b60405180910390fd5b80915050919050565b6000601154826110999190613bca565b60ff16116110dc576040517f08c379a00000000000000000000000000000000000000000000000000000000081526004016110d39061373d565b60405180910390fd5b601060019054906101000a900473ffffffffffffffffffffffffffffffffffffffff1673ffffffffffffffffffffffffffffffffffffffff166323b872dd611122611bf3565b30846040518463ffffffff1660e01b815260040161114293929190613642565b602060405180830381600087803b15801561115c57600080fd5b505af1158015611170573d6000803e3d6000fd5b505050506040513d601f19601f8201168201806040525081019061119491906130ca565b50601154816111a39190613bca565b6012600084815260200190815260200160002060008282829054906101000a900460ff166111d19190613b62565b92506101000a81548160ff021916908360ff1602179055505050565b60008073ffffffffffffffffffffffffffffffffffffffff168273ffffffffffffffffffffffffffffffffffffffff16141561125e576040517f08c379a0000000000000000000000000000000000000000000000000000000008152600401611255906138bd565b60405180910390fd5b600360008373ffffffffffffffffffffffffffffffffffffffff1673ffffffffffffffffffffffffffffffffffffffff168152602001908152602001600020549050919050565b6112ad611bf3565b73ffffffffffffffffffffffffffffffffffffffff166112cb611333565b73ffffffffffffffffffffffffffffffffffffffff1614611321576040517f08c379a00000000000000000000000000000000000000000000000000000000081526004016113189061393d565b60405180910390fd5b61132b600061205a565b565b600d5481565b6000600a60009054906101000a900473ffffffffffffffffffffffffffffffffffffffff16905090565b60126020528060005260406000206000915054906101000a900460ff1681565b60606001805461138c90613da4565b80601f01602080910402602001604051908101604052809291908181526020018280546113b890613da4565b80156114055780601f106113da57610100808354040283529160200191611405565b820191906000526020600020905b8154815290600101906020018083116113e857829003601f168201915b5050505050905090565b6000600c54905090565b600c5481565b61143161142a611bf3565b8383612120565b5050565b60115481565b61144c611446611bf3565b83611d20565b61148b576040517f08c379a0000000000000000000000000000000000000000000000000000000008152600401611482906139fd565b60405180910390fd5b6114978484848461228d565b50505050565b60606114a882611bfb565b6114e7576040517f08c379a00000000000000000000000000000000000000000000000000000000081526004016114de9061397d565b60405180910390fd5b60006114f16122e9565b90506000815111611511576040518060200160405280600081525061153c565b8061151b8461237b565b60405160200161152c929190613603565b6040516020818303038152906040525b915050919050565b61154c611bf3565b73ffffffffffffffffffffffffffffffffffffffff1661156a611333565b73ffffffffffffffffffffffffffffffffffffffff16146115c0576040517f08c379a00000000000000000000000000000000000000000000000000000000081526004016115b79061393d565b60405180910390fd5b600f54811115611605576040517f08c379a00000000000000000000000000000000000000000000000000000000081526004016115fc9061399d565b60405180910390fd5b600061160f610bc9565b905060005b828110156116445761163184828461162c9190613b0c565b612528565b808061163c90613e07565b915050611614565b5081600f60008282546116579190613c55565b92505081905550505050565b600b805461167090613da4565b80601f016020809104026020016040519081016040528092919081815260200182805461169c90613da4565b80156116e95780601f106116be576101008083540402835291602001916116e9565b820191906000526020600020905b8154815290600101906020018083116116cc57829003601f168201915b505050505081565b600e5481565b6000600560008473ffffffffffffffffffffffffffffffffffffffff1673ffffffffffffffffffffffffffffffffffffffff16815260200190815260200160002060008373ffffffffffffffffffffffffffffffffffffffff1673ffffffffffffffffffffffffffffffffffffffff16815260200190815260200160002060009054906101000a900460ff16905092915050565b601060019054906101000a900473ffffffffffffffffffffffffffffffffffffffff1681565b6117b9611bf3565b73ffffffffffffffffffffffffffffffffffffffff166117d7611333565b73ffffffffffffffffffffffffffffffffffffffff161461182d576040517f08c379a00000000000000000000000000000000000000000000000000000000081526004016118249061393d565b60405180910390fd5b600073ffffffffffffffffffffffffffffffffffffffff168173ffffffffffffffffffffffffffffffffffffffff16141561189d576040517f08c379a0000000000000000000000000000000000000000000000000000000008152600401611894906137dd565b60405180910390fd5b6118a68161205a565b50565b6118b1611bf3565b73ffffffffffffffffffffffffffffffffffffffff166118cf611333565b73ffffffffffffffffffffffffffffffffffffffff1614611925576040517f08c379a000000000000000000000000000000000000000000000000000000000815260040161191c9061393d565b60405180910390fd5b80600c8190555050565b6000611939610bc9565b9050600082600c5461194b9190613bfb565b9050601060009054906101000a900460ff161561199d576040517f08c379a00000000000000000000000000000000000000000000000000000000081526004016119949061371d565b60405180910390fd5b600d548311156119e2576040517f08c379a00000000000000000000000000000000000000000000000000000000081526004016119d99061379d565b60405180910390fd5b600f54600e546119f29190613c55565b83836119fe9190613b0c565b1115611a3f576040517f08c379a0000000000000000000000000000000000000000000000000000000008152600401611a369061375d565b60405180910390fd5b80341015611a82576040517f08c379a0000000000000000000000000000000000000000000000000000000008152600401611a79906139dd565b60405180910390fd5b60005b83811015611b0557611aae3360018386611a9f9190613b0c565b611aa99190613b0c565b612528565b60056012600060018487611ac29190613b0c565b611acc9190613b0c565b815260200190815260200160002060006101000a81548160ff021916908360ff1602179055508080611afd90613e07565b915050611a85565b50505050565b600f5481565b60007f80ac58cd000000000000000000000000000000000000000000000000000000007bffffffffffffffffffffffffffffffffffffffffffffffffffffffff1916827bffffffffffffffffffffffffffffffffffffffffffffffffffffffff19161480611bdc57507f5b5e139f000000000000000000000000000000000000000000000000000000007bffffffffffffffffffffffffffffffffffffffffffffffffffffffff1916827bffffffffffffffffffffffffffffffffffffffffffffffffffffffff1916145b80611bec5750611beb82612546565b5b9050919050565b600033905090565b60008073ffffffffffffffffffffffffffffffffffffffff166002600084815260200190815260200160002060009054906101000a900473ffffffffffffffffffffffffffffffffffffffff1673ffffffffffffffffffffffffffffffffffffffff1614159050919050565b816004600083815260200190815260200160002060006101000a81548173ffffffffffffffffffffffffffffffffffffffff021916908373ffffffffffffffffffffffffffffffffffffffff160217905550808273ffffffffffffffffffffffffffffffffffffffff16611cda83610fd7565b73ffffffffffffffffffffffffffffffffffffffff167f8c5be1e5ebec7d5bd14f71427d1e84f3dd0314c0f7b2291e5b200ac8c7c3b92560405160405180910390a45050565b6000611d2b82611bfb565b611d6a576040517f08c379a0000000000000000000000000000000000000000000000000000000008152600401611d619061387d565b60405180910390fd5b6000611d7583610fd7565b90508073ffffffffffffffffffffffffffffffffffffffff168473ffffffffffffffffffffffffffffffffffffffff161480611de457508373ffffffffffffffffffffffffffffffffffffffff16611dcc84610a2c565b73ffffffffffffffffffffffffffffffffffffffff16145b80611df55750611df481856116f7565b5b91505092915050565b8273ffffffffffffffffffffffffffffffffffffffff16611e1e82610fd7565b73ffffffffffffffffffffffffffffffffffffffff1614611e74576040517f08c379a0000000000000000000000000000000000000000000000000000000008152600401611e6b9061395d565b60405180910390fd5b600073ffffffffffffffffffffffffffffffffffffffff168273ffffffffffffffffffffffffffffffffffffffff161415611ee4576040517f08c379a0000000000000000000000000000000000000000000000000000000008152600401611edb9061383d565b60405180910390fd5b611eef8383836125b0565b611efa600082611c67565b6001600360008573ffffffffffffffffffffffffffffffffffffffff1673ffffffffffffffffffffffffffffffffffffffff1681526020019081526020016000206000828254611f4a9190613c55565b925050819055506001600360008473ffffffffffffffffffffffffffffffffffffffff1673ffffffffffffffffffffffffffffffffffffffff1681526020019081526020016000206000828254611fa19190613b0c565b92505081905550816002600083815260200190815260200160002060006101000a81548173ffffffffffffffffffffffffffffffffffffffff021916908373ffffffffffffffffffffffffffffffffffffffff160217905550808273ffffffffffffffffffffffffffffffffffffffff168473ffffffffffffffffffffffffffffffffffffffff167fddf252ad1be2c89b69c2b068fc378daa952ba7f163c4a11628f55a4df523b3ef60405160405180910390a4505050565b6000600a60009054906101000a900473ffffffffffffffffffffffffffffffffffffffff16905081600a60006101000a81548173ffffffffffffffffffffffffffffffffffffffff021916908373ffffffffffffffffffffffffffffffffffffffff1602179055508173ffffffffffffffffffffffffffffffffffffffff168173ffffffffffffffffffffffffffffffffffffffff167f8be0079c531659141344cd1fd0a4f28419497f9722a3daafe3b4186f6b6457e060405160405180910390a35050565b8173ffffffffffffffffffffffffffffffffffffffff168373ffffffffffffffffffffffffffffffffffffffff16141561218f576040517f08c379a00000000000000000000000000000000000000000000000000000000081526004016121869061385d565b60405180910390fd5b80600560008573ffffffffffffffffffffffffffffffffffffffff1673ffffffffffffffffffffffffffffffffffffffff16815260200190815260200160002060008473ffffffffffffffffffffffffffffffffffffffff1673ffffffffffffffffffffffffffffffffffffffff16815260200190815260200160002060006101000a81548160ff0219169083151502179055508173ffffffffffffffffffffffffffffffffffffffff168373ffffffffffffffffffffffffffffffffffffffff167f17307eab39ab6107e8899845ad3d59bd9653f200f220920489ca2b5937696c318360405161228091906136c5565b60405180910390a3505050565b612298848484611dfe565b6122a4848484846126c4565b6122e3576040517f08c379a00000000000000000000000000000000000000000000000000000000081526004016122da906137bd565b60405180910390fd5b50505050565b6060600b80546122f890613da4565b80601f016020809104026020016040519081016040528092919081815260200182805461232490613da4565b80156123715780601f1061234657610100808354040283529160200191612371565b820191906000526020600020905b81548152906001019060200180831161235457829003601f168201915b5050505050905090565b606060008214156123c3576040518060400160405280600181526020017f30000000000000000000000000000000000000000000000000000000000000008152509050612523565b600082905060005b600082146123f55780806123de90613e07565b915050600a826123ee9190613b99565b91506123cb565b60008167ffffffffffffffff811115612437577f4e487b7100000000000000000000000000000000000000000000000000000000600052604160045260246000fd5b6040519080825280601f01601f1916602001820160405280156124695781602001600182028036833780820191505090505b5090505b6000851461251c576001826124829190613c55565b9150600a856124919190613e50565b603061249d9190613b0c565b60f81b8183815181106124d9577f4e487b7100000000000000000000000000000000000000000000000000000000600052603260045260246000fd5b60200101907effffffffffffffffffffffffffffffffffffffffffffffffffffffffffffff1916908160001a905350600a856125159190613b99565b945061246d565b8093505050505b919050565b61254282826040518060200160405280600081525061285b565b5050565b60007f01ffc9a7000000000000000000000000000000000000000000000000000000007bffffffffffffffffffffffffffffffffffffffffffffffffffffffff1916827bffffffffffffffffffffffffffffffffffffffffffffffffffffffff1916149050919050565b6125bb8383836128b6565b600073ffffffffffffffffffffffffffffffffffffffff168373ffffffffffffffffffffffffffffffffffffffff1614156125fe576125f9816128bb565b61263d565b8173ffffffffffffffffffffffffffffffffffffffff168373ffffffffffffffffffffffffffffffffffffffff161461263c5761263b8382612904565b5b5b600073ffffffffffffffffffffffffffffffffffffffff168273ffffffffffffffffffffffffffffffffffffffff1614156126805761267b81612a71565b6126bf565b8273ffffffffffffffffffffffffffffffffffffffff168273ffffffffffffffffffffffffffffffffffffffff16146126be576126bd8282612bb4565b5b5b505050565b60006126e58473ffffffffffffffffffffffffffffffffffffffff16612c33565b1561284e578373ffffffffffffffffffffffffffffffffffffffff1663150b7a0261270e611bf3565b8786866040518563ffffffff1660e01b81526004016127309493929190613679565b602060405180830381600087803b15801561274a57600080fd5b505af192505050801561277b57506040513d601f19601f82011682018060405250810190612778919061311c565b60015b6127fe573d80600081146127ab576040519150601f19603f3d011682016040523d82523d6000602084013e6127b0565b606091505b506000815114156127f6576040517f08c379a00000000000000000000000000000000000000000000000000000000081526004016127ed906137bd565b60405180910390fd5b805181602001fd5b63150b7a0260e01b7bffffffffffffffffffffffffffffffffffffffffffffffffffffffff1916817bffffffffffffffffffffffffffffffffffffffffffffffffffffffff191614915050612853565b600190505b949350505050565b6128658383612c46565b61287260008484846126c4565b6128b1576040517f08c379a00000000000000000000000000000000000000000000000000000000081526004016128a8906137bd565b60405180910390fd5b505050565b505050565b6008805490506009600083815260200190815260200160002081905550600881908060018154018082558091505060019003906000526020600020016000909190919091505550565b60006001612911846111ed565b61291b9190613c55565b9050600060076000848152602001908152602001600020549050818114612a00576000600660008673ffffffffffffffffffffffffffffffffffffffff1673ffffffffffffffffffffffffffffffffffffffff168152602001908152602001600020600084815260200190815260200160002054905080600660008773ffffffffffffffffffffffffffffffffffffffff1673ffffffffffffffffffffffffffffffffffffffff168152602001908152602001600020600084815260200190815260200160002081905550816007600083815260200190815260200160002081905550505b6007600084815260200190815260200160002060009055600660008573ffffffffffffffffffffffffffffffffffffffff1673ffffffffffffffffffffffffffffffffffffffff16815260200190815260200160002060008381526020019081526020016000206000905550505050565b60006001600880549050612a859190613c55565b9050600060096000848152602001908152602001600020549050600060088381548110612adb577f4e487b7100000000000000000000000000000000000000000000000000000000600052603260045260246000fd5b906000526020600020015490508060088381548110612b23577f4e487b7100000000000000000000000000000000000000000000000000000000600052603260045260246000fd5b906000526020600020018190555081600960008381526020019081526020016000208190555060096000858152602001908152602001600020600090556008805480612b98577f4e487b7100000000000000000000000000000000000000000000000000000000600052603160045260246000fd5b6001900381819060005260206000200160009055905550505050565b6000612bbf836111ed565b905081600660008573ffffffffffffffffffffffffffffffffffffffff1673ffffffffffffffffffffffffffffffffffffffff168152602001908152602001600020600083815260200190815260200160002081905550806007600084815260200190815260200160002081905550505050565b600080823b905060008111915050919050565b600073ffffffffffffffffffffffffffffffffffffffff168273ffffffffffffffffffffffffffffffffffffffff161415612cb6576040517f08c379a0000000000000000000000000000000000000000000000000000000008152600401612cad906138fd565b60405180910390fd5b612cbf81611bfb565b15612cff576040517f08c379a0000000000000000000000000000000000000000000000000000000008152600401612cf6906137fd565b60405180910390fd5b612d0b600083836125b0565b6001600360008473ffffffffffffffffffffffffffffffffffffffff1673ffffffffffffffffffffffffffffffffffffffff1681526020019081526020016000206000828254612d5b9190613b0c565b92505081905550816002600083815260200190815260200160002060006101000a81548173ffffffffffffffffffffffffffffffffffffffff021916908373ffffffffffffffffffffffffffffffffffffffff160217905550808273ffffffffffffffffffffffffffffffffffffffff16600073ffffffffffffffffffffffffffffffffffffffff167fddf252ad1be2c89b69c2b068fc378daa952ba7f163c4a11628f55a4df523b3ef60405160405180910390a45050565b6000612e27612e2284613a98565b613a73565b905082815260208101848484011115612e3f57600080fd5b612e4a848285613d62565b509392505050565b600081359050612e6181614563565b92915050565b600081359050612e768161457a565b92915050565b600081519050612e8b8161457a565b92915050565b600081359050612ea081614591565b92915050565b600081519050612eb581614591565b92915050565b600082601f830112612ecc57600080fd5b8135612edc848260208601612e14565b91505092915050565b600081359050612ef4816145a8565b92915050565b600060208284031215612f0c57600080fd5b6000612f1a84828501612e52565b91505092915050565b60008060408385031215612f3657600080fd5b6000612f4485828601612e52565b9250506020612f5585828601612e52565b9150509250929050565b600080600060608486031215612f7457600080fd5b6000612f8286828701612e52565b9350506020612f9386828701612e52565b9250506040612fa486828701612ee5565b9150509250925092565b60008060008060808587031215612fc457600080fd5b6000612fd287828801612e52565b9450506020612fe387828801612e52565b9350506040612ff487828801612ee5565b925050606085013567ffffffffffffffff81111561301157600080fd5b61301d87828801612ebb565b91505092959194509250565b6000806040838503121561303c57600080fd5b600061304a85828601612e52565b925050602061305b85828601612e67565b9150509250929050565b6000806040838503121561307857600080fd5b600061308685828601612e52565b925050602061309785828601612ee5565b9150509250929050565b6000602082840312156130b357600080fd5b60006130c184828501612e67565b91505092915050565b6000602082840312156130dc57600080fd5b60006130ea84828501612e7c565b91505092915050565b60006020828403121561310557600080fd5b600061311384828501612e91565b91505092915050565b60006020828403121561312e57600080fd5b600061313c84828501612ea6565b91505092915050565b60006020828403121561315757600080fd5b600061316584828501612ee5565b91505092915050565b6000806040838503121561318157600080fd5b600061318f85828601612ee5565b92505060206131a085828601612ee5565b9150509250929050565b6131b381613cbd565b82525050565b6131c281613ccf565b82525050565b60006131d382613ac9565b6131dd8185613adf565b93506131ed818560208601613d71565b6131f681613f3d565b840191505092915050565b61320a81613d3e565b82525050565b600061321b82613ad4565b6132258185613af0565b9350613235818560208601613d71565b61323e81613f3d565b840191505092915050565b600061325482613ad4565b61325e8185613b01565b935061326e818560208601613d71565b80840191505092915050565b6000613287600b83613af0565b915061329282613f4e565b602082019050919050565b60006132aa602083613af0565b91506132b582613f77565b602082019050919050565b60006132cd601b83613af0565b91506132d882613fa0565b602082019050919050565b60006132f0602b83613af0565b91506132fb82613fc9565b604082019050919050565b6000613313601983613af0565b915061331e82614018565b602082019050919050565b6000613336603283613af0565b915061334182614041565b604082019050919050565b6000613359602683613af0565b915061336482614090565b604082019050919050565b600061337c601c83613af0565b9150613387826140df565b602082019050919050565b600061339f600f83613af0565b91506133aa82614108565b602082019050919050565b60006133c2602483613af0565b91506133cd82614131565b604082019050919050565b60006133e5601983613af0565b91506133f082614180565b602082019050919050565b6000613408602c83613af0565b9150613413826141a9565b604082019050919050565b600061342b603883613af0565b9150613436826141f8565b604082019050919050565b600061344e602a83613af0565b915061345982614247565b604082019050919050565b6000613471602983613af0565b915061347c82614296565b604082019050919050565b6000613494602083613af0565b915061349f826142e5565b602082019050919050565b60006134b7602c83613af0565b91506134c28261430e565b604082019050919050565b60006134da602083613af0565b91506134e58261435d565b602082019050919050565b60006134fd602983613af0565b915061350882614386565b604082019050919050565b6000613520602f83613af0565b915061352b826143d5565b604082019050919050565b6000613543601b83613af0565b915061354e82614424565b602082019050919050565b6000613566602183613af0565b91506135718261444d565b604082019050919050565b6000613589601683613af0565b91506135948261449c565b602082019050919050565b60006135ac603183613af0565b91506135b7826144c5565b604082019050919050565b60006135cf602c83613af0565b91506135da82614514565b604082019050919050565b6135ee81613d27565b82525050565b6135fd81613d31565b82525050565b600061360f8285613249565b915061361b8284613249565b91508190509392505050565b600060208201905061363c60008301846131aa565b92915050565b600060608201905061365760008301866131aa565b61366460208301856131aa565b61367160408301846135e5565b949350505050565b600060808201905061368e60008301876131aa565b61369b60208301866131aa565b6136a860408301856135e5565b81810360608301526136ba81846131c8565b905095945050505050565b60006020820190506136da60008301846131b9565b92915050565b60006020820190506136f56000830184613201565b92915050565b600060208201905081810360008301526137158184613210565b905092915050565b600060208201905081810360008301526137368161327a565b9050919050565b600060208201905081810360008301526137568161329d565b9050919050565b60006020820190508181036000830152613776816132c0565b9050919050565b60006020820190508181036000830152613796816132e3565b9050919050565b600060208201905081810360008301526137b681613306565b9050919050565b600060208201905081810360008301526137d681613329565b9050919050565b600060208201905081810360008301526137f68161334c565b9050919050565b600060208201905081810360008301526138168161336f565b9050919050565b6000602082019050818103600083015261383681613392565b9050919050565b60006020820190508181036000830152613856816133b5565b9050919050565b60006020820190508181036000830152613876816133d8565b9050919050565b60006020820190508181036000830152613896816133fb565b9050919050565b600060208201905081810360008301526138b68161341e565b9050919050565b600060208201905081810360008301526138d681613441565b9050919050565b600060208201905081810360008301526138f681613464565b9050919050565b6000602082019050818103600083015261391681613487565b9050919050565b60006020820190508181036000830152613936816134aa565b9050919050565b60006020820190508181036000830152613956816134cd565b9050919050565b60006020820190508181036000830152613976816134f0565b9050919050565b6000602082019050818103600083015261399681613513565b9050919050565b600060208201905081810360008301526139b681613536565b9050919050565b600060208201905081810360008301526139d681613559565b9050919050565b600060208201905081810360008301526139f68161357c565b9050919050565b60006020820190508181036000830152613a168161359f565b9050919050565b60006020820190508181036000830152613a36816135c2565b9050919050565b6000602082019050613a5260008301846135e5565b92915050565b6000602082019050613a6d60008301846135f4565b92915050565b6000613a7d613a8e565b9050613a898282613dd6565b919050565b6000604051905090565b600067ffffffffffffffff821115613ab357613ab2613f0e565b5b613abc82613f3d565b9050602081019050919050565b600081519050919050565b600081519050919050565b600082825260208201905092915050565b600082825260208201905092915050565b600081905092915050565b6000613b1782613d27565b9150613b2283613d27565b9250827fffffffffffffffffffffffffffffffffffffffffffffffffffffffffffffffff03821115613b5757613b56613e81565b5b828201905092915050565b6000613b6d82613d31565b9150613b7883613d31565b92508260ff03821115613b8e57613b8d613e81565b5b828201905092915050565b6000613ba482613d27565b9150613baf83613d27565b925082613bbf57613bbe613eb0565b5b828204905092915050565b6000613bd582613d31565b9150613be083613d31565b925082613bf057613bef613eb0565b5b828204905092915050565b6000613c0682613d27565b9150613c1183613d27565b9250817fffffffffffffffffffffffffffffffffffffffffffffffffffffffffffffffff0483118215151615613c4a57613c49613e81565b5b828202905092915050565b6000613c6082613d27565b9150613c6b83613d27565b925082821015613c7e57613c7d613e81565b5b828203905092915050565b6000613c9482613d31565b9150613c9f83613d31565b925082821015613cb257613cb1613e81565b5b828203905092915050565b6000613cc882613d07565b9050919050565b60008115159050919050565b60007fffffffff0000000000000000000000000000000000000000000000000000000082169050919050565b600073ffffffffffffffffffffffffffffffffffffffff82169050919050565b6000819050919050565b600060ff82169050919050565b6000613d4982613d50565b9050919050565b6000613d5b82613d07565b9050919050565b82818337600083830152505050565b60005b83811015613d8f578082015181840152602081019050613d74565b83811115613d9e576000848401525b50505050565b60006002820490506001821680613dbc57607f821691505b60208210811415613dd057613dcf613edf565b5b50919050565b613ddf82613f3d565b810181811067ffffffffffffffff82111715613dfe57613dfd613f0e565b5b80604052505050565b6000613e1282613d27565b91507fffffffffffffffffffffffffffffffffffffffffffffffffffffffffffffffff821415613e4557613e44613e81565b5b600182019050919050565b6000613e5b82613d27565b9150613e6683613d27565b925082613e7657613e75613eb0565b5b828206905092915050565b7f4e487b7100000000000000000000000000000000000000000000000000000000600052601160045260246000fd5b7f4e487b7100000000000000000000000000000000000000000000000000000000600052601260045260246000fd5b7f4e487b7100000000000000000000000000000000000000000000000000000000600052602260045260246000fd5b7f4e487b7100000000000000000000000000000000000000000000000000000000600052604160045260246000fd5b6000601f19601f8301169050919050565b7f53616c6520706175736564000000000000000000000000000000000000000000600082015250565b7f504c414e4b206973206e6f7420656e6f75676820666f72206120626174746c65600082015250565b7f45786365656473206d6178696d756d2041514c4620737570706c790000000000600082015250565b7f455243373231456e756d657261626c653a206f776e657220696e646578206f7560008201527f74206f6620626f756e6473000000000000000000000000000000000000000000602082015250565b7f4d6178204d696e7420616d6f756e742065786365656465642e00000000000000600082015250565b7f4552433732313a207472616e7366657220746f206e6f6e20455243373231526560008201527f63656976657220696d706c656d656e7465720000000000000000000000000000602082015250565b7f4f776e61626c653a206e6577206f776e657220697320746865207a65726f206160008201527f6464726573730000000000000000000000000000000000000000000000000000602082015250565b7f4552433732313a20746f6b656e20616c7265616479206d696e74656400000000600082015250565b7f41514c46206973206e6f74206665640000000000000000000000000000000000600082015250565b7f4552433732313a207472616e7366657220746f20746865207a65726f2061646460008201527f7265737300000000000000000000000000000000000000000000000000000000602082015250565b7f4552433732313a20617070726f766520746f2063616c6c657200000000000000600082015250565b7f4552433732313a206f70657261746f7220717565727920666f72206e6f6e657860008201527f697374656e7420746f6b656e0000000000000000000000000000000000000000602082015250565b7f4552433732313a20617070726f76652063616c6c6572206973206e6f74206f7760008201527f6e6572206e6f7220617070726f76656420666f7220616c6c0000000000000000602082015250565b7f4552433732313a2062616c616e636520717565727920666f7220746865207a6560008201527f726f206164647265737300000000000000000000000000000000000000000000602082015250565b7f4552433732313a206f776e657220717565727920666f72206e6f6e657869737460008201527f656e7420746f6b656e0000000000000000000000000000000000000000000000602082015250565b7f4552433732313a206d696e7420746f20746865207a65726f2061646472657373600082015250565b7f4552433732313a20617070726f76656420717565727920666f72206e6f6e657860008201527f697374656e7420746f6b656e0000000000000000000000000000000000000000602082015250565b7f4f776e61626c653a2063616c6c6572206973206e6f7420746865206f776e6572600082015250565b7f4552433732313a207472616e73666572206f6620746f6b656e2074686174206960008201527f73206e6f74206f776e0000000000000000000000000000000000000000000000602082015250565b7f4552433732314d657461646174613a2055524920717565727920666f72206e6f60008201527f6e6578697374656e7420746f6b656e0000000000000000000000000000000000602082015250565b7f45786365656473207265736572766564204e465420737570706c790000000000600082015250565b7f4552433732313a20617070726f76616c20746f2063757272656e74206f776e6560008201527f7200000000000000000000000000000000000000000000000000000000000000602082015250565b7f496e636f7272656374207061796d656e742073656e7400000000000000000000600082015250565b7f4552433732313a207472616e736665722063616c6c6572206973206e6f74206f60008201527f776e6572206e6f7220617070726f766564000000000000000000000000000000602082015250565b7f455243373231456e756d657261626c653a20676c6f62616c20696e646578206f60008201527f7574206f6620626f756e64730000000000000000000000000000000000000000602082015250565b61456c81613cbd565b811461457757600080fd5b50565b61458381613ccf565b811461458e57600080fd5b50565b61459a81613cdb565b81146145a557600080fd5b50565b6145b181613d27565b81146145bc57600080fd5b5056fea264697066735822122034160bd3c4293f7e0bd127609e8880157473548e76561067f8ef1b878bd7917964736f6c63430008040033",
  "linkReferences": {},
  "deployedLinkReferences": {}
}