{
  "_format": "hh-sol-artifact-1",
  "contractName": "AquariumLifeForm",
  "sourceName": "contracts/AquariumLifeForm.sol",
  "abi": [
    {
      "inputs": [
        {
          "internalType": "string",
          "name": "_baseTokenURI",
          "type": "string"
        },
        {
          "internalType": "string",
          "name": "_name",
          "type": "string"
        },
        {
          "internalType": "string",
          "name": "_symbol",
          "type": "string"
        },
        {
          "internalType": "uint256",
          "name": "_mintPrice",
          "type": "uint256"
        },
        {
          "internalType": "uint256",
          "name": "_maxMint",
          "type": "uint256"
        },
        {
          "internalType": "uint256",
          "name": "_reserved",
          "type": "uint256"
        },
        {
          "internalType": "uint256",
          "name": "_maxSupply",
          "type": "uint256"
        }
      ],
      "stateMutability": "nonpayable",
      "type": "constructor"
    },
    {
      "anonymous": false,
      "inputs": [
        {
          "indexed": true,
          "internalType": "address",
          "name": "owner",
          "type": "address"
        },
        {
          "indexed": true,
          "internalType": "address",
          "name": "approved",
          "type": "address"
        },
        {
          "indexed": true,
          "internalType": "uint256",
          "name": "tokenId",
          "type": "uint256"
        }
      ],
      "name": "Approval",
      "type": "event"
    },
    {
      "anonymous": false,
      "inputs": [
        {
          "indexed": true,
          "internalType": "address",
          "name": "owner",
          "type": "address"
        },
        {
          "indexed": true,
          "internalType": "address",
          "name": "operator",
          "type": "address"
        },
        {
          "indexed": false,
          "internalType": "bool",
          "name": "approved",
          "type": "bool"
        }
      ],
      "name": "ApprovalForAll",
      "type": "event"
    },
    {
      "anonymous": false,
      "inputs": [
        {
          "indexed": true,
          "internalType": "address",
          "name": "previousOwner",
          "type": "address"
        },
        {
          "indexed": true,
          "internalType": "address",
          "name": "newOwner",
          "type": "address"
        }
      ],
      "name": "OwnershipTransferred",
      "type": "event"
    },
    {
      "anonymous": false,
      "inputs": [
        {
          "indexed": true,
          "internalType": "address",
          "name": "from",
          "type": "address"
        },
        {
          "indexed": true,
          "internalType": "address",
          "name": "to",
          "type": "address"
        },
        {
          "indexed": true,
          "internalType": "uint256",
          "name": "tokenId",
          "type": "uint256"
        }
      ],
      "name": "Transfer",
      "type": "event"
    },
    {
      "inputs": [
        {
          "internalType": "address",
          "name": "to",
          "type": "address"
        },
        {
          "internalType": "uint256",
          "name": "tokenId",
          "type": "uint256"
        }
      ],
      "name": "approve",
      "outputs": [],
      "stateMutability": "nonpayable",
      "type": "function"
    },
    {
      "inputs": [
        {
          "internalType": "address",
          "name": "owner",
          "type": "address"
        }
      ],
      "name": "balanceOf",
      "outputs": [
        {
          "internalType": "uint256",
          "name": "",
          "type": "uint256"
        }
      ],
      "stateMutability": "view",
      "type": "function"
    },
    {
      "inputs": [],
      "name": "baseTokenURI",
      "outputs": [
        {
          "internalType": "string",
          "name": "",
          "type": "string"
        }
      ],
      "stateMutability": "view",
      "type": "function"
    },
    {
      "inputs": [
        {
          "internalType": "uint256",
          "name": "tokenId",
          "type": "uint256"
        }
      ],
      "name": "getApproved",
      "outputs": [
        {
          "internalType": "address",
          "name": "",
          "type": "address"
        }
      ],
      "stateMutability": "view",
      "type": "function"
    },
    {
      "inputs": [],
      "name": "getPrice",
      "outputs": [
        {
          "internalType": "uint256",
          "name": "",
          "type": "uint256"
        }
      ],
      "stateMutability": "view",
      "type": "function"
    },
    {
      "inputs": [
        {
          "internalType": "address",
          "name": "_to",
          "type": "address"
        },
        {
          "internalType": "uint256",
          "name": "_amount",
          "type": "uint256"
        }
      ],
      "name": "giveAway",
      "outputs": [],
      "stateMutability": "nonpayable",
      "type": "function"
    },
    {
      "inputs": [
        {
          "internalType": "address",
          "name": "owner",
          "type": "address"
        },
        {
          "internalType": "address",
          "name": "operator",
          "type": "address"
        }
      ],
      "name": "isApprovedForAll",
      "outputs": [
        {
          "internalType": "bool",
          "name": "",
          "type": "bool"
        }
      ],
      "stateMutability": "view",
      "type": "function"
    },
    {
      "inputs": [],
      "name": "maxMint",
      "outputs": [
        {
          "internalType": "uint256",
          "name": "",
          "type": "uint256"
        }
      ],
      "stateMutability": "view",
      "type": "function"
    },
    {
      "inputs": [],
      "name": "maxSupply",
      "outputs": [
        {
          "internalType": "uint256",
          "name": "",
          "type": "uint256"
        }
      ],
      "stateMutability": "view",
      "type": "function"
    },
    {
      "inputs": [
        {
          "internalType": "uint256",
          "name": "_amount",
          "type": "uint256"
        }
      ],
      "name": "mintAQLF",
      "outputs": [],
      "stateMutability": "payable",
      "type": "function"
    },
    {
      "inputs": [],
      "name": "name",
      "outputs": [
        {
          "internalType": "string",
          "name": "",
          "type": "string"
        }
      ],
      "stateMutability": "view",
      "type": "function"
    },
    {
      "inputs": [],
      "name": "owner",
      "outputs": [
        {
          "internalType": "address",
          "name": "",
          "type": "address"
        }
      ],
      "stateMutability": "view",
      "type": "function"
    },
    {
      "inputs": [
        {
          "internalType": "uint256",
          "name": "tokenId",
          "type": "uint256"
        }
      ],
      "name": "ownerOf",
      "outputs": [
        {
          "internalType": "address",
          "name": "",
          "type": "address"
        }
      ],
      "stateMutability": "view",
      "type": "function"
    },
    {
      "inputs": [
        {
          "internalType": "bool",
          "name": "_val",
          "type": "bool"
        }
      ],
      "name": "pause",
      "outputs": [],
      "stateMutability": "nonpayable",
      "type": "function"
    },
    {
      "inputs": [],
      "name": "paused",
      "outputs": [
        {
          "internalType": "bool",
          "name": "",
          "type": "bool"
        }
      ],
      "stateMutability": "view",
      "type": "function"
    },
    {
      "inputs": [],
      "name": "price",
      "outputs": [
        {
          "internalType": "uint256",
          "name": "",
          "type": "uint256"
        }
      ],
      "stateMutability": "view",
      "type": "function"
    },
    {
      "inputs": [],
      "name": "renounceOwnership",
      "outputs": [],
      "stateMutability": "nonpayable",
      "type": "function"
    },
    {
      "inputs": [],
      "name": "reserved",
      "outputs": [
        {
          "internalType": "uint256",
          "name": "",
          "type": "uint256"
        }
      ],
      "stateMutability": "view",
      "type": "function"
    },
    {
      "inputs": [
        {
          "internalType": "address",
          "name": "from",
          "type": "address"
        },
        {
          "internalType": "address",
          "name": "to",
          "type": "address"
        },
        {
          "internalType": "uint256",
          "name": "tokenId",
          "type": "uint256"
        }
      ],
      "name": "safeTransferFrom",
      "outputs": [],
      "stateMutability": "nonpayable",
      "type": "function"
    },
    {
      "inputs": [
        {
          "internalType": "address",
          "name": "from",
          "type": "address"
        },
        {
          "internalType": "address",
          "name": "to",
          "type": "address"
        },
        {
          "internalType": "uint256",
          "name": "tokenId",
          "type": "uint256"
        },
        {
          "internalType": "bytes",
          "name": "_data",
          "type": "bytes"
        }
      ],
      "name": "safeTransferFrom",
      "outputs": [],
      "stateMutability": "nonpayable",
      "type": "function"
    },
    {
      "inputs": [
        {
          "internalType": "address",
          "name": "operator",
          "type": "address"
        },
        {
          "internalType": "bool",
          "name": "approved",
          "type": "bool"
        }
      ],
      "name": "setApprovalForAll",
      "outputs": [],
      "stateMutability": "nonpayable",
      "type": "function"
    },
    {
      "inputs": [
        {
          "internalType": "uint256",
          "name": "_newPrice",
          "type": "uint256"
        }
      ],
      "name": "setMintPrice",
      "outputs": [],
      "stateMutability": "nonpayable",
      "type": "function"
    },
    {
      "inputs": [
        {
          "internalType": "bytes4",
          "name": "interfaceId",
          "type": "bytes4"
        }
      ],
      "name": "supportsInterface",
      "outputs": [
        {
          "internalType": "bool",
          "name": "",
          "type": "bool"
        }
      ],
      "stateMutability": "view",
      "type": "function"
    },
    {
      "inputs": [],
      "name": "symbol",
      "outputs": [
        {
          "internalType": "string",
          "name": "",
          "type": "string"
        }
      ],
      "stateMutability": "view",
      "type": "function"
    },
    {
      "inputs": [
        {
          "internalType": "uint256",
          "name": "index",
          "type": "uint256"
        }
      ],
      "name": "tokenByIndex",
      "outputs": [
        {
          "internalType": "uint256",
          "name": "",
          "type": "uint256"
        }
      ],
      "stateMutability": "view",
      "type": "function"
    },
    {
      "inputs": [
        {
          "internalType": "address",
          "name": "owner",
          "type": "address"
        },
        {
          "internalType": "uint256",
          "name": "index",
          "type": "uint256"
        }
      ],
      "name": "tokenOfOwnerByIndex",
      "outputs": [
        {
          "internalType": "uint256",
          "name": "",
          "type": "uint256"
        }
      ],
      "stateMutability": "view",
      "type": "function"
    },
    {
      "inputs": [
        {
          "internalType": "uint256",
          "name": "tokenId",
          "type": "uint256"
        }
      ],
      "name": "tokenURI",
      "outputs": [
        {
          "internalType": "string",
          "name": "",
          "type": "string"
        }
      ],
      "stateMutability": "view",
      "type": "function"
    },
    {
      "inputs": [],
      "name": "totalSupply",
      "outputs": [
        {
          "internalType": "uint256",
          "name": "",
          "type": "uint256"
        }
      ],
      "stateMutability": "view",
      "type": "function"
    },
    {
      "inputs": [
        {
          "internalType": "address",
          "name": "from",
          "type": "address"
        },
        {
          "internalType": "address",
          "name": "to",
          "type": "address"
        },
        {
          "internalType": "uint256",
          "name": "tokenId",
          "type": "uint256"
        }
      ],
      "name": "transferFrom",
      "outputs": [],
      "stateMutability": "nonpayable",
      "type": "function"
    },
    {
      "inputs": [
        {
          "internalType": "address",
          "name": "newOwner",
          "type": "address"
        }
      ],
      "name": "transferOwnership",
      "outputs": [],
      "stateMutability": "nonpayable",
      "type": "function"
    },
    {
      "inputs": [
        {
          "internalType": "address",
          "name": "_owner",
          "type": "address"
        }
      ],
      "name": "walletOfOwner",
      "outputs": [
        {
          "internalType": "uint256[]",
          "name": "",
          "type": "uint256[]"
        }
      ],
      "stateMutability": "view",
      "type": "function"
    },
    {
      "inputs": [
        {
          "internalType": "address",
          "name": "_to",
          "type": "address"
        }
      ],
      "name": "withdraw",
      "outputs": [],
      "stateMutability": "nonpayable",
      "type": "function"
    }
  ],
  "bytecode": "0x60806040526001601060006101000a81548160ff0219169083151502179055503480156200002c57600080fd5b50604051620047cd380380620047cd8339818101604052810190620000529190620003be565b858581600090805190602001906200006c92919062000285565b5080600190805190602001906200008592919062000285565b505050620000a86200009c620000f460201b60201c565b620000fc60201b60201c565b86600b9080519060200190620000c092919062000285565b50620000d284620001c260201b60201c565b82600d8190555081600f8190555080600e8190555050505050505050620006cd565b600033905090565b6000600a60009054906101000a900473ffffffffffffffffffffffffffffffffffffffff16905081600a60006101000a81548173ffffffffffffffffffffffffffffffffffffffff021916908373ffffffffffffffffffffffffffffffffffffffff1602179055508173ffffffffffffffffffffffffffffffffffffffff168173ffffffffffffffffffffffffffffffffffffffff167f8be0079c531659141344cd1fd0a4f28419497f9722a3daafe3b4186f6b6457e060405160405180910390a35050565b620001d2620000f460201b60201c565b73ffffffffffffffffffffffffffffffffffffffff16620001f86200025b60201b60201c565b73ffffffffffffffffffffffffffffffffffffffff161462000251576040517f08c379a00000000000000000000000000000000000000000000000000000000081526004016200024890620004dd565b60405180910390fd5b80600c8190555050565b6000600a60009054906101000a900473ffffffffffffffffffffffffffffffffffffffff16905090565b8280546200029390620005af565b90600052602060002090601f016020900481019282620002b7576000855562000303565b82601f10620002d257805160ff191683800117855562000303565b8280016001018555821562000303579182015b8281111562000302578251825591602001919060010190620002e5565b5b50905062000312919062000316565b5090565b5b808211156200033157600081600090555060010162000317565b5090565b60006200034c620003468462000528565b620004ff565b9050828152602081018484840111156200036557600080fd5b6200037284828562000579565b509392505050565b600082601f8301126200038c57600080fd5b81516200039e84826020860162000335565b91505092915050565b600081519050620003b881620006b3565b92915050565b600080600080600080600060e0888a031215620003da57600080fd5b600088015167ffffffffffffffff811115620003f557600080fd5b620004038a828b016200037a565b975050602088015167ffffffffffffffff8111156200042157600080fd5b6200042f8a828b016200037a565b965050604088015167ffffffffffffffff8111156200044d57600080fd5b6200045b8a828b016200037a565b95505060606200046e8a828b01620003a7565b9450506080620004818a828b01620003a7565b93505060a0620004948a828b01620003a7565b92505060c0620004a78a828b01620003a7565b91505092959891949750929550565b6000620004c56020836200055e565b9150620004d2826200068a565b602082019050919050565b60006020820190508181036000830152620004f881620004b6565b9050919050565b60006200050b6200051e565b9050620005198282620005e5565b919050565b6000604051905090565b600067ffffffffffffffff8211156200054657620005456200064a565b5b620005518262000679565b9050602081019050919050565b600082825260208201905092915050565b6000819050919050565b60005b83811015620005995780820151818401526020810190506200057c565b83811115620005a9576000848401525b50505050565b60006002820490506001821680620005c857607f821691505b60208210811415620005df57620005de6200061b565b5b50919050565b620005f08262000679565b810181811067ffffffffffffffff821117156200061257620006116200064a565b5b80604052505050565b7f4e487b7100000000000000000000000000000000000000000000000000000000600052602260045260246000fd5b7f4e487b7100000000000000000000000000000000000000000000000000000000600052604160045260246000fd5b6000601f19601f8301169050919050565b7f4f776e61626c653a2063616c6c6572206973206e6f7420746865206f776e6572600082015250565b620006be816200056f565b8114620006ca57600080fd5b50565b6140f080620006dd6000396000f3fe6080604052600436106101e35760003560e01c80637501f74111610102578063ca80014411610095578063f2fde38b11610064578063f2fde38b1461071a578063f4a0a52814610743578063f7c3f4271461076c578063fe60d12c14610788576101e3565b8063ca8001441461065e578063d547cfb714610687578063d5abeb01146106b2578063e985e9c5146106dd576101e3565b8063a035b1fe116100d1578063a035b1fe146105a4578063a22cb465146105cf578063b88d4fde146105f8578063c87b56dd14610621576101e3565b80637501f741146104f85780638da5cb5b1461052357806395d89b411461054e57806398d5fdca14610579576101e3565b806342842e0e1161017a5780635c975abb116101495780635c975abb1461043c5780636352211e1461046757806370a08231146104a4578063715018a6146104e1576101e3565b806342842e0e14610370578063438b6300146103995780634f6ccce7146103d657806351cff8d914610413576101e3565b8063095ea7b3116101b6578063095ea7b3146102b657806318160ddd146102df57806323b872dd1461030a5780632f745c5914610333576101e3565b806301ffc9a7146101e857806302329a291461022557806306fdde031461024e578063081812fc14610279575b600080fd5b3480156101f457600080fd5b5061020f600480360381019061020a9190612d7a565b6107b3565b60405161021c919061331c565b60405180910390f35b34801561023157600080fd5b5061024c60048036038101906102479190612d51565b61082d565b005b34801561025a57600080fd5b506102636108c6565b6040516102709190613337565b60405180910390f35b34801561028557600080fd5b506102a0600480360381019061029b9190612dcc565b610958565b6040516102ad9190613293565b60405180910390f35b3480156102c257600080fd5b506102dd60048036038101906102d89190612d15565b6109dd565b005b3480156102eb57600080fd5b506102f4610af5565b6040516103019190613639565b60405180910390f35b34801561031657600080fd5b50610331600480360381019061032c9190612c0f565b610b02565b005b34801561033f57600080fd5b5061035a60048036038101906103559190612d15565b610b62565b6040516103679190613639565b60405180910390f35b34801561037c57600080fd5b5061039760048036038101906103929190612c0f565b610c07565b005b3480156103a557600080fd5b506103c060048036038101906103bb9190612baa565b610c27565b6040516103cd91906132fa565b60405180910390f35b3480156103e257600080fd5b506103fd60048036038101906103f89190612dcc565b610d21565b60405161040a9190613639565b60405180910390f35b34801561041f57600080fd5b5061043a60048036038101906104359190612baa565b610db8565b005b34801561044857600080fd5b50610451610e7e565b60405161045e919061331c565b60405180910390f35b34801561047357600080fd5b5061048e60048036038101906104899190612dcc565b610e91565b60405161049b9190613293565b60405180910390f35b3480156104b057600080fd5b506104cb60048036038101906104c69190612baa565b610f43565b6040516104d89190613639565b60405180910390f35b3480156104ed57600080fd5b506104f6610ffb565b005b34801561050457600080fd5b5061050d611083565b60405161051a9190613639565b60405180910390f35b34801561052f57600080fd5b50610538611089565b6040516105459190613293565b60405180910390f35b34801561055a57600080fd5b506105636110b3565b6040516105709190613337565b60405180910390f35b34801561058557600080fd5b5061058e611145565b60405161059b9190613639565b60405180910390f35b3480156105b057600080fd5b506105b961114f565b6040516105c69190613639565b60405180910390f35b3480156105db57600080fd5b506105f660048036038101906105f19190612cd9565b611155565b005b34801561060457600080fd5b5061061f600480360381019061061a9190612c5e565b61116b565b005b34801561062d57600080fd5b5061064860048036038101906106439190612dcc565b6111cd565b6040516106559190613337565b60405180910390f35b34801561066a57600080fd5b5061068560048036038101906106809190612d15565b611274565b005b34801561069357600080fd5b5061069c611393565b6040516106a99190613337565b60405180910390f35b3480156106be57600080fd5b506106c7611421565b6040516106d49190613639565b60405180910390f35b3480156106e957600080fd5b5061070460048036038101906106ff9190612bd3565b611427565b604051610711919061331c565b60405180910390f35b34801561072657600080fd5b50610741600480360381019061073c9190612baa565b6114bb565b005b34801561074f57600080fd5b5061076a60048036038101906107659190612dcc565b6115b3565b005b61078660048036038101906107819190612dcc565b611639565b005b34801561079457600080fd5b5061079d6117d0565b6040516107aa9190613639565b60405180910390f35b60007f780e9d63000000000000000000000000000000000000000000000000000000007bffffffffffffffffffffffffffffffffffffffffffffffffffffffff1916827bffffffffffffffffffffffffffffffffffffffffffffffffffffffff191614806108265750610825826117d6565b5b9050919050565b6108356118b8565b73ffffffffffffffffffffffffffffffffffffffff16610853611089565b73ffffffffffffffffffffffffffffffffffffffff16146108a9576040517f08c379a00000000000000000000000000000000000000000000000000000000081526004016108a090613539565b60405180910390fd5b80601060006101000a81548160ff02191690831515021790555050565b6060600080546108d5906138f1565b80601f0160208091040260200160405190810160405280929190818152602001828054610901906138f1565b801561094e5780601f106109235761010080835404028352916020019161094e565b820191906000526020600020905b81548152906001019060200180831161093157829003601f168201915b5050505050905090565b6000610963826118c0565b6109a2576040517f08c379a000000000000000000000000000000000000000000000000000000000815260040161099990613519565b60405180910390fd5b6004600083815260200190815260200160002060009054906101000a900473ffffffffffffffffffffffffffffffffffffffff169050919050565b60006109e882610e91565b90508073ffffffffffffffffffffffffffffffffffffffff168373ffffffffffffffffffffffffffffffffffffffff161415610a59576040517f08c379a0000000000000000000000000000000000000000000000000000000008152600401610a50906135b9565b60405180910390fd5b8073ffffffffffffffffffffffffffffffffffffffff16610a786118b8565b73ffffffffffffffffffffffffffffffffffffffff161480610aa75750610aa681610aa16118b8565b611427565b5b610ae6576040517f08c379a0000000000000000000000000000000000000000000000000000000008152600401610add90613499565b60405180910390fd5b610af0838361192c565b505050565b6000600880549050905090565b610b13610b0d6118b8565b826119e5565b610b52576040517f08c379a0000000000000000000000000000000000000000000000000000000008152600401610b49906135f9565b60405180910390fd5b610b5d838383611ac3565b505050565b6000610b6d83610f43565b8210610bae576040517f08c379a0000000000000000000000000000000000000000000000000000000008152600401610ba590613399565b60405180910390fd5b600660008473ffffffffffffffffffffffffffffffffffffffff1673ffffffffffffffffffffffffffffffffffffffff168152602001908152602001600020600083815260200190815260200160002054905092915050565b610c228383836040518060200160405280600081525061116b565b505050565b60606000610c3483610f43565b905060008167ffffffffffffffff811115610c78577f4e487b7100000000000000000000000000000000000000000000000000000000600052604160045260246000fd5b604051908082528060200260200182016040528015610ca65781602001602082028036833780820191505090505b50905060005b82811015610d1657610cbe8582610b62565b828281518110610cf7577f4e487b7100000000000000000000000000000000000000000000000000000000600052603260045260246000fd5b6020026020010181815250508080610d0e90613954565b915050610cac565b508092505050919050565b6000610d2b610af5565b8210610d6c576040517f08c379a0000000000000000000000000000000000000000000000000000000008152600401610d6390613619565b60405180910390fd5b60088281548110610da6577f4e487b7100000000000000000000000000000000000000000000000000000000600052603260045260246000fd5b90600052602060002001549050919050565b610dc06118b8565b73ffffffffffffffffffffffffffffffffffffffff16610dde611089565b73ffffffffffffffffffffffffffffffffffffffff1614610e34576040517f08c379a0000000000000000000000000000000000000000000000000000000008152600401610e2b90613539565b60405180910390fd5b8073ffffffffffffffffffffffffffffffffffffffff166108fc479081150290604051600060405180830381858888f19350505050158015610e7a573d6000803e3d6000fd5b5050565b601060009054906101000a900460ff1681565b6000806002600084815260200190815260200160002060009054906101000a900473ffffffffffffffffffffffffffffffffffffffff169050600073ffffffffffffffffffffffffffffffffffffffff168173ffffffffffffffffffffffffffffffffffffffff161415610f3a576040517f08c379a0000000000000000000000000000000000000000000000000000000008152600401610f31906134d9565b60405180910390fd5b80915050919050565b60008073ffffffffffffffffffffffffffffffffffffffff168273ffffffffffffffffffffffffffffffffffffffff161415610fb4576040517f08c379a0000000000000000000000000000000000000000000000000000000008152600401610fab906134b9565b60405180910390fd5b600360008373ffffffffffffffffffffffffffffffffffffffff1673ffffffffffffffffffffffffffffffffffffffff168152602001908152602001600020549050919050565b6110036118b8565b73ffffffffffffffffffffffffffffffffffffffff16611021611089565b73ffffffffffffffffffffffffffffffffffffffff1614611077576040517f08c379a000000000000000000000000000000000000000000000000000000000815260040161106e90613539565b60405180910390fd5b6110816000611d1f565b565b600d5481565b6000600a60009054906101000a900473ffffffffffffffffffffffffffffffffffffffff16905090565b6060600180546110c2906138f1565b80601f01602080910402602001604051908101604052809291908181526020018280546110ee906138f1565b801561113b5780601f106111105761010080835404028352916020019161113b565b820191906000526020600020905b81548152906001019060200180831161111e57829003601f168201915b5050505050905090565b6000600c54905090565b600c5481565b6111676111606118b8565b8383611de5565b5050565b61117c6111766118b8565b836119e5565b6111bb576040517f08c379a00000000000000000000000000000000000000000000000000000000081526004016111b2906135f9565b60405180910390fd5b6111c784848484611f52565b50505050565b60606111d8826118c0565b611217576040517f08c379a000000000000000000000000000000000000000000000000000000000815260040161120e90613579565b60405180910390fd5b6000611221611fae565b90506000815111611241576040518060200160405280600081525061126c565b8061124b84612040565b60405160200161125c92919061326f565b6040516020818303038152906040525b915050919050565b61127c6118b8565b73ffffffffffffffffffffffffffffffffffffffff1661129a611089565b73ffffffffffffffffffffffffffffffffffffffff16146112f0576040517f08c379a00000000000000000000000000000000000000000000000000000000081526004016112e790613539565b60405180910390fd5b600f54811115611335576040517f08c379a000000000000000000000000000000000000000000000000000000000815260040161132c90613599565b60405180910390fd5b600061133f610af5565b905060005b828110156113745761136184828461135c9190613726565b6121ed565b808061136c90613954565b915050611344565b5081600f60008282546113879190613807565b92505081905550505050565b600b80546113a0906138f1565b80601f01602080910402602001604051908101604052809291908181526020018280546113cc906138f1565b80156114195780601f106113ee57610100808354040283529160200191611419565b820191906000526020600020905b8154815290600101906020018083116113fc57829003601f168201915b505050505081565b600e5481565b6000600560008473ffffffffffffffffffffffffffffffffffffffff1673ffffffffffffffffffffffffffffffffffffffff16815260200190815260200160002060008373ffffffffffffffffffffffffffffffffffffffff1673ffffffffffffffffffffffffffffffffffffffff16815260200190815260200160002060009054906101000a900460ff16905092915050565b6114c36118b8565b73ffffffffffffffffffffffffffffffffffffffff166114e1611089565b73ffffffffffffffffffffffffffffffffffffffff1614611537576040517f08c379a000000000000000000000000000000000000000000000000000000000815260040161152e90613539565b60405180910390fd5b600073ffffffffffffffffffffffffffffffffffffffff168173ffffffffffffffffffffffffffffffffffffffff1614156115a7576040517f08c379a000000000000000000000000000000000000000000000000000000000815260040161159e906133f9565b60405180910390fd5b6115b081611d1f565b50565b6115bb6118b8565b73ffffffffffffffffffffffffffffffffffffffff166115d9611089565b73ffffffffffffffffffffffffffffffffffffffff161461162f576040517f08c379a000000000000000000000000000000000000000000000000000000000815260040161162690613539565b60405180910390fd5b80600c8190555050565b6000611643610af5565b9050600082600c5461165591906137ad565b9050601060009054906101000a900460ff16156116a7576040517f08c379a000000000000000000000000000000000000000000000000000000000815260040161169e90613359565b60405180910390fd5b600d548311156116ec576040517f08c379a00000000000000000000000000000000000000000000000000000000081526004016116e3906133b9565b60405180910390fd5b600f54600e546116fc9190613807565b83836117089190613726565b1115611749576040517f08c379a000000000000000000000000000000000000000000000000000000000815260040161174090613379565b60405180910390fd5b80341061178b576040517f08c379a0000000000000000000000000000000000000000000000000000000008152600401611782906135d9565b60405180910390fd5b60005b838110156117ca576117b733600183866117a89190613726565b6117b29190613726565b6121ed565b80806117c290613954565b91505061178e565b50505050565b600f5481565b60007f80ac58cd000000000000000000000000000000000000000000000000000000007bffffffffffffffffffffffffffffffffffffffffffffffffffffffff1916827bffffffffffffffffffffffffffffffffffffffffffffffffffffffff191614806118a157507f5b5e139f000000000000000000000000000000000000000000000000000000007bffffffffffffffffffffffffffffffffffffffffffffffffffffffff1916827bffffffffffffffffffffffffffffffffffffffffffffffffffffffff1916145b806118b157506118b08261220b565b5b9050919050565b600033905090565b60008073ffffffffffffffffffffffffffffffffffffffff166002600084815260200190815260200160002060009054906101000a900473ffffffffffffffffffffffffffffffffffffffff1673ffffffffffffffffffffffffffffffffffffffff1614159050919050565b816004600083815260200190815260200160002060006101000a81548173ffffffffffffffffffffffffffffffffffffffff021916908373ffffffffffffffffffffffffffffffffffffffff160217905550808273ffffffffffffffffffffffffffffffffffffffff1661199f83610e91565b73ffffffffffffffffffffffffffffffffffffffff167f8c5be1e5ebec7d5bd14f71427d1e84f3dd0314c0f7b2291e5b200ac8c7c3b92560405160405180910390a45050565b60006119f0826118c0565b611a2f576040517f08c379a0000000000000000000000000000000000000000000000000000000008152600401611a2690613479565b60405180910390fd5b6000611a3a83610e91565b90508073ffffffffffffffffffffffffffffffffffffffff168473ffffffffffffffffffffffffffffffffffffffff161480611aa957508373ffffffffffffffffffffffffffffffffffffffff16611a9184610958565b73ffffffffffffffffffffffffffffffffffffffff16145b80611aba5750611ab98185611427565b5b91505092915050565b8273ffffffffffffffffffffffffffffffffffffffff16611ae382610e91565b73ffffffffffffffffffffffffffffffffffffffff1614611b39576040517f08c379a0000000000000000000000000000000000000000000000000000000008152600401611b3090613559565b60405180910390fd5b600073ffffffffffffffffffffffffffffffffffffffff168273ffffffffffffffffffffffffffffffffffffffff161415611ba9576040517f08c379a0000000000000000000000000000000000000000000000000000000008152600401611ba090613439565b60405180910390fd5b611bb4838383612275565b611bbf60008261192c565b6001600360008573ffffffffffffffffffffffffffffffffffffffff1673ffffffffffffffffffffffffffffffffffffffff1681526020019081526020016000206000828254611c0f9190613807565b925050819055506001600360008473ffffffffffffffffffffffffffffffffffffffff1673ffffffffffffffffffffffffffffffffffffffff1681526020019081526020016000206000828254611c669190613726565b92505081905550816002600083815260200190815260200160002060006101000a81548173ffffffffffffffffffffffffffffffffffffffff021916908373ffffffffffffffffffffffffffffffffffffffff160217905550808273ffffffffffffffffffffffffffffffffffffffff168473ffffffffffffffffffffffffffffffffffffffff167fddf252ad1be2c89b69c2b068fc378daa952ba7f163c4a11628f55a4df523b3ef60405160405180910390a4505050565b6000600a60009054906101000a900473ffffffffffffffffffffffffffffffffffffffff16905081600a60006101000a81548173ffffffffffffffffffffffffffffffffffffffff021916908373ffffffffffffffffffffffffffffffffffffffff1602179055508173ffffffffffffffffffffffffffffffffffffffff168173ffffffffffffffffffffffffffffffffffffffff167f8be0079c531659141344cd1fd0a4f28419497f9722a3daafe3b4186f6b6457e060405160405180910390a35050565b8173ffffffffffffffffffffffffffffffffffffffff168373ffffffffffffffffffffffffffffffffffffffff161415611e54576040517f08c379a0000000000000000000000000000000000000000000000000000000008152600401611e4b90613459565b60405180910390fd5b80600560008573ffffffffffffffffffffffffffffffffffffffff1673ffffffffffffffffffffffffffffffffffffffff16815260200190815260200160002060008473ffffffffffffffffffffffffffffffffffffffff1673ffffffffffffffffffffffffffffffffffffffff16815260200190815260200160002060006101000a81548160ff0219169083151502179055508173ffffffffffffffffffffffffffffffffffffffff168373ffffffffffffffffffffffffffffffffffffffff167f17307eab39ab6107e8899845ad3d59bd9653f200f220920489ca2b5937696c3183604051611f45919061331c565b60405180910390a3505050565b611f5d848484611ac3565b611f6984848484612389565b611fa8576040517f08c379a0000000000000000000000000000000000000000000000000000000008152600401611f9f906133d9565b60405180910390fd5b50505050565b6060600b8054611fbd906138f1565b80601f0160208091040260200160405190810160405280929190818152602001828054611fe9906138f1565b80156120365780601f1061200b57610100808354040283529160200191612036565b820191906000526020600020905b81548152906001019060200180831161201957829003601f168201915b5050505050905090565b60606000821415612088576040518060400160405280600181526020017f300000000000000000000000000000000000000000000000000000000000000081525090506121e8565b600082905060005b600082146120ba5780806120a390613954565b915050600a826120b3919061377c565b9150612090565b60008167ffffffffffffffff8111156120fc577f4e487b7100000000000000000000000000000000000000000000000000000000600052604160045260246000fd5b6040519080825280601f01601f19166020018201604052801561212e5781602001600182028036833780820191505090505b5090505b600085146121e1576001826121479190613807565b9150600a85612156919061399d565b60306121629190613726565b60f81b81838151811061219e577f4e487b7100000000000000000000000000000000000000000000000000000000600052603260045260246000fd5b60200101907effffffffffffffffffffffffffffffffffffffffffffffffffffffffffffff1916908160001a905350600a856121da919061377c565b9450612132565b8093505050505b919050565b612207828260405180602001604052806000815250612520565b5050565b60007f01ffc9a7000000000000000000000000000000000000000000000000000000007bffffffffffffffffffffffffffffffffffffffffffffffffffffffff1916827bffffffffffffffffffffffffffffffffffffffffffffffffffffffff1916149050919050565b61228083838361257b565b600073ffffffffffffffffffffffffffffffffffffffff168373ffffffffffffffffffffffffffffffffffffffff1614156122c3576122be81612580565b612302565b8173ffffffffffffffffffffffffffffffffffffffff168373ffffffffffffffffffffffffffffffffffffffff16146123015761230083826125c9565b5b5b600073ffffffffffffffffffffffffffffffffffffffff168273ffffffffffffffffffffffffffffffffffffffff1614156123455761234081612736565b612384565b8273ffffffffffffffffffffffffffffffffffffffff168273ffffffffffffffffffffffffffffffffffffffff1614612383576123828282612879565b5b5b505050565b60006123aa8473ffffffffffffffffffffffffffffffffffffffff166128f8565b15612513578373ffffffffffffffffffffffffffffffffffffffff1663150b7a026123d36118b8565b8786866040518563ffffffff1660e01b81526004016123f594939291906132ae565b602060405180830381600087803b15801561240f57600080fd5b505af192505050801561244057506040513d601f19601f8201168201806040525081019061243d9190612da3565b60015b6124c3573d8060008114612470576040519150601f19603f3d011682016040523d82523d6000602084013e612475565b606091505b506000815114156124bb576040517f08c379a00000000000000000000000000000000000000000000000000000000081526004016124b2906133d9565b60405180910390fd5b805181602001fd5b63150b7a0260e01b7bffffffffffffffffffffffffffffffffffffffffffffffffffffffff1916817bffffffffffffffffffffffffffffffffffffffffffffffffffffffff191614915050612518565b600190505b949350505050565b61252a838361290b565b6125376000848484612389565b612576576040517f08c379a000000000000000000000000000000000000000000000000000000000815260040161256d906133d9565b60405180910390fd5b505050565b505050565b6008805490506009600083815260200190815260200160002081905550600881908060018154018082558091505060019003906000526020600020016000909190919091505550565b600060016125d684610f43565b6125e09190613807565b90506000600760008481526020019081526020016000205490508181146126c5576000600660008673ffffffffffffffffffffffffffffffffffffffff1673ffffffffffffffffffffffffffffffffffffffff168152602001908152602001600020600084815260200190815260200160002054905080600660008773ffffffffffffffffffffffffffffffffffffffff1673ffffffffffffffffffffffffffffffffffffffff168152602001908152602001600020600084815260200190815260200160002081905550816007600083815260200190815260200160002081905550505b6007600084815260200190815260200160002060009055600660008573ffffffffffffffffffffffffffffffffffffffff1673ffffffffffffffffffffffffffffffffffffffff16815260200190815260200160002060008381526020019081526020016000206000905550505050565b6000600160088054905061274a9190613807565b90506000600960008481526020019081526020016000205490506000600883815481106127a0577f4e487b7100000000000000000000000000000000000000000000000000000000600052603260045260246000fd5b9060005260206000200154905080600883815481106127e8577f4e487b7100000000000000000000000000000000000000000000000000000000600052603260045260246000fd5b90600052602060002001819055508160096000838152602001908152602001600020819055506009600085815260200190815260200160002060009055600880548061285d577f4e487b7100000000000000000000000000000000000000000000000000000000600052603160045260246000fd5b6001900381819060005260206000200160009055905550505050565b600061288483610f43565b905081600660008573ffffffffffffffffffffffffffffffffffffffff1673ffffffffffffffffffffffffffffffffffffffff168152602001908152602001600020600083815260200190815260200160002081905550806007600084815260200190815260200160002081905550505050565b600080823b905060008111915050919050565b600073ffffffffffffffffffffffffffffffffffffffff168273ffffffffffffffffffffffffffffffffffffffff16141561297b576040517f08c379a0000000000000000000000000000000000000000000000000000000008152600401612972906134f9565b60405180910390fd5b612984816118c0565b156129c4576040517f08c379a00000000000000000000000000000000000000000000000000000000081526004016129bb90613419565b60405180910390fd5b6129d060008383612275565b6001600360008473ffffffffffffffffffffffffffffffffffffffff1673ffffffffffffffffffffffffffffffffffffffff1681526020019081526020016000206000828254612a209190613726565b92505081905550816002600083815260200190815260200160002060006101000a81548173ffffffffffffffffffffffffffffffffffffffff021916908373ffffffffffffffffffffffffffffffffffffffff160217905550808273ffffffffffffffffffffffffffffffffffffffff16600073ffffffffffffffffffffffffffffffffffffffff167fddf252ad1be2c89b69c2b068fc378daa952ba7f163c4a11628f55a4df523b3ef60405160405180910390a45050565b6000612aec612ae784613679565b613654565b905082815260208101848484011115612b0457600080fd5b612b0f8482856138af565b509392505050565b600081359050612b268161405e565b92915050565b600081359050612b3b81614075565b92915050565b600081359050612b508161408c565b92915050565b600081519050612b658161408c565b92915050565b600082601f830112612b7c57600080fd5b8135612b8c848260208601612ad9565b91505092915050565b600081359050612ba4816140a3565b92915050565b600060208284031215612bbc57600080fd5b6000612bca84828501612b17565b91505092915050565b60008060408385031215612be657600080fd5b6000612bf485828601612b17565b9250506020612c0585828601612b17565b9150509250929050565b600080600060608486031215612c2457600080fd5b6000612c3286828701612b17565b9350506020612c4386828701612b17565b9250506040612c5486828701612b95565b9150509250925092565b60008060008060808587031215612c7457600080fd5b6000612c8287828801612b17565b9450506020612c9387828801612b17565b9350506040612ca487828801612b95565b925050606085013567ffffffffffffffff811115612cc157600080fd5b612ccd87828801612b6b565b91505092959194509250565b60008060408385031215612cec57600080fd5b6000612cfa85828601612b17565b9250506020612d0b85828601612b2c565b9150509250929050565b60008060408385031215612d2857600080fd5b6000612d3685828601612b17565b9250506020612d4785828601612b95565b9150509250929050565b600060208284031215612d6357600080fd5b6000612d7184828501612b2c565b91505092915050565b600060208284031215612d8c57600080fd5b6000612d9a84828501612b41565b91505092915050565b600060208284031215612db557600080fd5b6000612dc384828501612b56565b91505092915050565b600060208284031215612dde57600080fd5b6000612dec84828501612b95565b91505092915050565b6000612e018383613251565b60208301905092915050565b612e168161383b565b82525050565b6000612e27826136ba565b612e3181856136e8565b9350612e3c836136aa565b8060005b83811015612e6d578151612e548882612df5565b9750612e5f836136db565b925050600181019050612e40565b5085935050505092915050565b612e838161384d565b82525050565b6000612e94826136c5565b612e9e81856136f9565b9350612eae8185602086016138be565b612eb781613a8a565b840191505092915050565b6000612ecd826136d0565b612ed7818561370a565b9350612ee78185602086016138be565b612ef081613a8a565b840191505092915050565b6000612f06826136d0565b612f10818561371b565b9350612f208185602086016138be565b80840191505092915050565b6000612f39600b8361370a565b9150612f4482613a9b565b602082019050919050565b6000612f5c601b8361370a565b9150612f6782613ac4565b602082019050919050565b6000612f7f602b8361370a565b9150612f8a82613aed565b604082019050919050565b6000612fa260198361370a565b9150612fad82613b3c565b602082019050919050565b6000612fc560328361370a565b9150612fd082613b65565b604082019050919050565b6000612fe860268361370a565b9150612ff382613bb4565b604082019050919050565b600061300b601c8361370a565b915061301682613c03565b602082019050919050565b600061302e60248361370a565b915061303982613c2c565b604082019050919050565b600061305160198361370a565b915061305c82613c7b565b602082019050919050565b6000613074602c8361370a565b915061307f82613ca4565b604082019050919050565b600061309760388361370a565b91506130a282613cf3565b604082019050919050565b60006130ba602a8361370a565b91506130c582613d42565b604082019050919050565b60006130dd60298361370a565b91506130e882613d91565b604082019050919050565b600061310060208361370a565b915061310b82613de0565b602082019050919050565b6000613123602c8361370a565b915061312e82613e09565b604082019050919050565b600061314660208361370a565b915061315182613e58565b602082019050919050565b600061316960298361370a565b915061317482613e81565b604082019050919050565b600061318c602f8361370a565b915061319782613ed0565b604082019050919050565b60006131af601b8361370a565b91506131ba82613f1f565b602082019050919050565b60006131d260218361370a565b91506131dd82613f48565b604082019050919050565b60006131f560168361370a565b915061320082613f97565b602082019050919050565b600061321860318361370a565b915061322382613fc0565b604082019050919050565b600061323b602c8361370a565b91506132468261400f565b604082019050919050565b61325a816138a5565b82525050565b613269816138a5565b82525050565b600061327b8285612efb565b91506132878284612efb565b91508190509392505050565b60006020820190506132a86000830184612e0d565b92915050565b60006080820190506132c36000830187612e0d565b6132d06020830186612e0d565b6132dd6040830185613260565b81810360608301526132ef8184612e89565b905095945050505050565b600060208201905081810360008301526133148184612e1c565b905092915050565b60006020820190506133316000830184612e7a565b92915050565b600060208201905081810360008301526133518184612ec2565b905092915050565b6000602082019050818103600083015261337281612f2c565b9050919050565b6000602082019050818103600083015261339281612f4f565b9050919050565b600060208201905081810360008301526133b281612f72565b9050919050565b600060208201905081810360008301526133d281612f95565b9050919050565b600060208201905081810360008301526133f281612fb8565b9050919050565b6000602082019050818103600083015261341281612fdb565b9050919050565b6000602082019050818103600083015261343281612ffe565b9050919050565b6000602082019050818103600083015261345281613021565b9050919050565b6000602082019050818103600083015261347281613044565b9050919050565b6000602082019050818103600083015261349281613067565b9050919050565b600060208201905081810360008301526134b28161308a565b9050919050565b600060208201905081810360008301526134d2816130ad565b9050919050565b600060208201905081810360008301526134f2816130d0565b9050919050565b60006020820190508181036000830152613512816130f3565b9050919050565b6000602082019050818103600083015261353281613116565b9050919050565b6000602082019050818103600083015261355281613139565b9050919050565b600060208201905081810360008301526135728161315c565b9050919050565b600060208201905081810360008301526135928161317f565b9050919050565b600060208201905081810360008301526135b2816131a2565b9050919050565b600060208201905081810360008301526135d2816131c5565b9050919050565b600060208201905081810360008301526135f2816131e8565b9050919050565b600060208201905081810360008301526136128161320b565b9050919050565b600060208201905081810360008301526136328161322e565b9050919050565b600060208201905061364e6000830184613260565b92915050565b600061365e61366f565b905061366a8282613923565b919050565b6000604051905090565b600067ffffffffffffffff82111561369457613693613a5b565b5b61369d82613a8a565b9050602081019050919050565b6000819050602082019050919050565b600081519050919050565b600081519050919050565b600081519050919050565b6000602082019050919050565b600082825260208201905092915050565b600082825260208201905092915050565b600082825260208201905092915050565b600081905092915050565b6000613731826138a5565b915061373c836138a5565b9250827fffffffffffffffffffffffffffffffffffffffffffffffffffffffffffffffff03821115613771576137706139ce565b5b828201905092915050565b6000613787826138a5565b9150613792836138a5565b9250826137a2576137a16139fd565b5b828204905092915050565b60006137b8826138a5565b91506137c3836138a5565b9250817fffffffffffffffffffffffffffffffffffffffffffffffffffffffffffffffff04831182151516156137fc576137fb6139ce565b5b828202905092915050565b6000613812826138a5565b915061381d836138a5565b9250828210156138305761382f6139ce565b5b828203905092915050565b600061384682613885565b9050919050565b60008115159050919050565b60007fffffffff0000000000000000000000000000000000000000000000000000000082169050919050565b600073ffffffffffffffffffffffffffffffffffffffff82169050919050565b6000819050919050565b82818337600083830152505050565b60005b838110156138dc5780820151818401526020810190506138c1565b838111156138eb576000848401525b50505050565b6000600282049050600182168061390957607f821691505b6020821081141561391d5761391c613a2c565b5b50919050565b61392c82613a8a565b810181811067ffffffffffffffff8211171561394b5761394a613a5b565b5b80604052505050565b600061395f826138a5565b91507fffffffffffffffffffffffffffffffffffffffffffffffffffffffffffffffff821415613992576139916139ce565b5b600182019050919050565b60006139a8826138a5565b91506139b3836138a5565b9250826139c3576139c26139fd565b5b828206905092915050565b7f4e487b7100000000000000000000000000000000000000000000000000000000600052601160045260246000fd5b7f4e487b7100000000000000000000000000000000000000000000000000000000600052601260045260246000fd5b7f4e487b7100000000000000000000000000000000000000000000000000000000600052602260045260246000fd5b7f4e487b7100000000000000000000000000000000000000000000000000000000600052604160045260246000fd5b6000601f19601f8301169050919050565b7f53616c6520706175736564000000000000000000000000000000000000000000600082015250565b7f45786365656473206d6178696d756d2041514c4620737570706c790000000000600082015250565b7f455243373231456e756d657261626c653a206f776e657220696e646578206f7560008201527f74206f6620626f756e6473000000000000000000000000000000000000000000602082015250565b7f4d6178204d696e7420616d6f756e742065786365656465642e00000000000000600082015250565b7f4552433732313a207472616e7366657220746f206e6f6e20455243373231526560008201527f63656976657220696d706c656d656e7465720000000000000000000000000000602082015250565b7f4f776e61626c653a206e6577206f776e657220697320746865207a65726f206160008201527f6464726573730000000000000000000000000000000000000000000000000000602082015250565b7f4552433732313a20746f6b656e20616c7265616479206d696e74656400000000600082015250565b7f4552433732313a207472616e7366657220746f20746865207a65726f2061646460008201527f7265737300000000000000000000000000000000000000000000000000000000602082015250565b7f4552433732313a20617070726f766520746f2063616c6c657200000000000000600082015250565b7f4552433732313a206f70657261746f7220717565727920666f72206e6f6e657860008201527f697374656e7420746f6b656e0000000000000000000000000000000000000000602082015250565b7f4552433732313a20617070726f76652063616c6c6572206973206e6f74206f7760008201527f6e6572206e6f7220617070726f76656420666f7220616c6c0000000000000000602082015250565b7f4552433732313a2062616c616e636520717565727920666f7220746865207a6560008201527f726f206164647265737300000000000000000000000000000000000000000000602082015250565b7f4552433732313a206f776e657220717565727920666f72206e6f6e657869737460008201527f656e7420746f6b656e0000000000000000000000000000000000000000000000602082015250565b7f4552433732313a206d696e7420746f20746865207a65726f2061646472657373600082015250565b7f4552433732313a20617070726f76656420717565727920666f72206e6f6e657860008201527f697374656e7420746f6b656e0000000000000000000000000000000000000000602082015250565b7f4f776e61626c653a2063616c6c6572206973206e6f7420746865206f776e6572600082015250565b7f4552433732313a207472616e73666572206f6620746f6b656e2074686174206960008201527f73206e6f74206f776e0000000000000000000000000000000000000000000000602082015250565b7f4552433732314d657461646174613a2055524920717565727920666f72206e6f60008201527f6e6578697374656e7420746f6b656e0000000000000000000000000000000000602082015250565b7f45786365656473207265736572766564204e465420737570706c790000000000600082015250565b7f4552433732313a20617070726f76616c20746f2063757272656e74206f776e6560008201527f7200000000000000000000000000000000000000000000000000000000000000602082015250565b7f496e636f7272656374207061796d656e742073656e7400000000000000000000600082015250565b7f4552433732313a207472616e736665722063616c6c6572206973206e6f74206f60008201527f776e6572206e6f7220617070726f766564000000000000000000000000000000602082015250565b7f455243373231456e756d657261626c653a20676c6f62616c20696e646578206f60008201527f7574206f6620626f756e64730000000000000000000000000000000000000000602082015250565b6140678161383b565b811461407257600080fd5b50565b61407e8161384d565b811461408957600080fd5b50565b61409581613859565b81146140a057600080fd5b50565b6140ac816138a5565b81146140b757600080fd5b5056fea2646970667358221220fe1fc47acde2e7469f54d8f3d47725ae06598c6e2b26e19ec3dd70ffee8e160d64736f6c63430008040033",
  "linkReferences": {},
  "deployedLinkReferences": {}
}