{
    "contractName": "Plankton",
    "abi": [
        {
            "inputs": [
                {
                    "internalType": "string",
                    "name": "name",
                    "type": "string"
                },
                {
                    "internalType": "string",
                    "name": "symbol",
                    "type": "string"
                },
                {
                    "internalType": "uint256",
                    "name": "initialSupply",
                    "type": "uint256"
                },
                {
                    "internalType": "address",
                    "name": "_beneficiary",
                    "type": "address"
                },
                {
                    "internalType": "uint8",
                    "name": "_maxBurnPercent",
                    "type": "uint8"
                }
            ],
            "stateMutability": "nonpayable",
            "type": "constructor"
        },
        {
            "anonymous": false,
            "inputs": [
                {
                    "indexed": true,
                    "internalType": "address",
                    "name": "owner",
                    "type": "address"
                },
                {
                    "indexed": true,
                    "internalType": "address",
                    "name": "spender",
                    "type": "address"
                },
                {
                    "indexed": false,
                    "internalType": "uint256",
                    "name": "value",
                    "type": "uint256"
                }
            ],
            "name": "Approval",
            "type": "event"
        },
        {
            "anonymous": false,
            "inputs": [
                {
                    "indexed": false,
                    "internalType": "address",
                    "name": "_minter",
                    "type": "address"
                }
            ],
            "name": "LogNewMinter",
            "type": "event"
        },
        {
            "anonymous": false,
            "inputs": [
                {
                    "indexed": true,
                    "internalType": "address",
                    "name": "previousOwner",
                    "type": "address"
                },
                {
                    "indexed": true,
                    "internalType": "address",
                    "name": "newOwner",
                    "type": "address"
                }
            ],
            "name": "OwnershipTransferred",
            "type": "event"
        },
        {
            "anonymous": false,
            "inputs": [
                {
                    "indexed": false,
                    "internalType": "address",
                    "name": "_from",
                    "type": "address"
                },
                {
                    "indexed": false,
                    "internalType": "uint256",
                    "name": "_amount",
                    "type": "uint256"
                }
            ],
            "name": "PlanktonsBurned",
            "type": "event"
        },
        {
            "anonymous": false,
            "inputs": [
                {
                    "indexed": false,
                    "internalType": "address",
                    "name": "_to",
                    "type": "address"
                },
                {
                    "indexed": false,
                    "internalType": "uint256",
                    "name": "_amount",
                    "type": "uint256"
                }
            ],
            "name": "PlanktonsMinted",
            "type": "event"
        },
        {
            "anonymous": false,
            "inputs": [
                {
                    "indexed": true,
                    "internalType": "address",
                    "name": "from",
                    "type": "address"
                },
                {
                    "indexed": true,
                    "internalType": "address",
                    "name": "to",
                    "type": "address"
                },
                {
                    "indexed": false,
                    "internalType": "uint256",
                    "name": "value",
                    "type": "uint256"
                }
            ],
            "name": "Transfer",
            "type": "event"
        },
        {
            "inputs": [
                {
                    "internalType": "address",
                    "name": "owner",
                    "type": "address"
                },
                {
                    "internalType": "address",
                    "name": "spender",
                    "type": "address"
                }
            ],
            "name": "allowance",
            "outputs": [
                {
                    "internalType": "uint256",
                    "name": "",
                    "type": "uint256"
                }
            ],
            "stateMutability": "view",
            "type": "function"
        },
        {
            "inputs": [
                {
                    "internalType": "address",
                    "name": "spender",
                    "type": "address"
                },
                {
                    "internalType": "uint256",
                    "name": "amount",
                    "type": "uint256"
                }
            ],
            "name": "approve",
            "outputs": [
                {
                    "internalType": "bool",
                    "name": "",
                    "type": "bool"
                }
            ],
            "stateMutability": "nonpayable",
            "type": "function"
        },
        {
            "inputs": [
                {
                    "internalType": "address",
                    "name": "account",
                    "type": "address"
                }
            ],
            "name": "balanceOf",
            "outputs": [
                {
                    "internalType": "uint256",
                    "name": "",
                    "type": "uint256"
                }
            ],
            "stateMutability": "view",
            "type": "function"
        },
        {
            "inputs": [
                {
                    "internalType": "address",
                    "name": "_from",
                    "type": "address"
                },
                {
                    "internalType": "uint256",
                    "name": "_amount",
                    "type": "uint256"
                }
            ],
            "name": "burnPlanktons",
            "outputs": [],
            "stateMutability": "nonpayable",
            "type": "function"
        },
        {
            "inputs": [],
            "name": "decimals",
            "outputs": [
                {
                    "internalType": "uint8",
                    "name": "",
                    "type": "uint8"
                }
            ],
            "stateMutability": "view",
            "type": "function"
        },
        {
            "inputs": [
                {
                    "internalType": "address",
                    "name": "spender",
                    "type": "address"
                },
                {
                    "internalType": "uint256",
                    "name": "subtractedValue",
                    "type": "uint256"
                }
            ],
            "name": "decreaseAllowance",
            "outputs": [
                {
                    "internalType": "bool",
                    "name": "",
                    "type": "bool"
                }
            ],
            "stateMutability": "nonpayable",
            "type": "function"
        },
        {
            "inputs": [
                {
                    "internalType": "address",
                    "name": "spender",
                    "type": "address"
                },
                {
                    "internalType": "uint256",
                    "name": "addedValue",
                    "type": "uint256"
                }
            ],
            "name": "increaseAllowance",
            "outputs": [
                {
                    "internalType": "bool",
                    "name": "",
                    "type": "bool"
                }
            ],
            "stateMutability": "nonpayable",
            "type": "function"
        },
        {
            "inputs": [],
            "name": "maxBurnPercent",
            "outputs": [
                {
                    "internalType": "uint8",
                    "name": "",
                    "type": "uint8"
                }
            ],
            "stateMutability": "view",
            "type": "function"
        },
        {
            "inputs": [
                {
                    "internalType": "address",
                    "name": "_to",
                    "type": "address"
                },
                {
                    "internalType": "uint256",
                    "name": "_amount",
                    "type": "uint256"
                }
            ],
            "name": "mintPlanktons",
            "outputs": [],
            "stateMutability": "nonpayable",
            "type": "function"
        },
        {
            "inputs": [],
            "name": "minter",
            "outputs": [
                {
                    "internalType": "address",
                    "name": "",
                    "type": "address"
                }
            ],
            "stateMutability": "view",
            "type": "function"
        },
        {
            "inputs": [],
            "name": "name",
            "outputs": [
                {
                    "internalType": "string",
                    "name": "",
                    "type": "string"
                }
            ],
            "stateMutability": "view",
            "type": "function"
        },
        {
            "inputs": [],
            "name": "owner",
            "outputs": [
                {
                    "internalType": "address",
                    "name": "",
                    "type": "address"
                }
            ],
            "stateMutability": "view",
            "type": "function"
        },
        {
            "inputs": [],
            "name": "renounceOwnership",
            "outputs": [],
            "stateMutability": "nonpayable",
            "type": "function"
        },
        {
            "inputs": [
                {
                    "internalType": "address",
                    "name": "newMinter",
                    "type": "address"
                }
            ],
            "name": "setMinter",
            "outputs": [],
            "stateMutability": "nonpayable",
            "type": "function"
        },
        {
            "inputs": [],
            "name": "symbol",
            "outputs": [
                {
                    "internalType": "string",
                    "name": "",
                    "type": "string"
                }
            ],
            "stateMutability": "view",
            "type": "function"
        },
        {
            "inputs": [],
            "name": "totalSupply",
            "outputs": [
                {
                    "internalType": "uint256",
                    "name": "",
                    "type": "uint256"
                }
            ],
            "stateMutability": "view",
            "type": "function"
        },
        {
            "inputs": [
                {
                    "internalType": "address",
                    "name": "recipient",
                    "type": "address"
                },
                {
                    "internalType": "uint256",
                    "name": "amount",
                    "type": "uint256"
                }
            ],
            "name": "transfer",
            "outputs": [
                {
                    "internalType": "bool",
                    "name": "",
                    "type": "bool"
                }
            ],
            "stateMutability": "nonpayable",
            "type": "function"
        },
        {
            "inputs": [
                {
                    "internalType": "address",
                    "name": "sender",
                    "type": "address"
                },
                {
                    "internalType": "address",
                    "name": "recipient",
                    "type": "address"
                },
                {
                    "internalType": "uint256",
                    "name": "amount",
                    "type": "uint256"
                }
            ],
            "name": "transferFrom",
            "outputs": [
                {
                    "internalType": "bool",
                    "name": "",
                    "type": "bool"
                }
            ],
            "stateMutability": "nonpayable",
            "type": "function"
        },
        {
            "inputs": [
                {
                    "internalType": "address",
                    "name": "newOwner",
                    "type": "address"
                }
            ],
            "name": "transferOwnership",
            "outputs": [],
            "stateMutability": "nonpayable",
            "type": "function"
        }
    ],
    "bytecode": "60806040523480156200001157600080fd5b5060405162001628380380620016288339810160408190526200003491620003e6565b8451859085906200004d90600390602085019062000273565b5080516200006390600490602084019062000273565b505050620000806200007a6200013860201b60201c565b6200013c565b60648160ff1610620000d95760405162461bcd60e51b815260206004820152601760248201527f496e76616c6964205f6d61784275726e50657263656e7400000000000000000060448201526064015b60405180910390fd5b600680546001600160a81b0319163360ff60a01b191617600160a01b60ff8416021790556200012d826200010b601290565b6200011b9060ff16600a620005ad565b620001279086620005c2565b6200018e565b50505050506200063c565b3390565b600580546001600160a01b038381166001600160a01b0319831681179093556040519116919082907f8be0079c531659141344cd1fd0a4f28419497f9722a3daafe3b4186f6b6457e090600090a35050565b6001600160a01b038216620001e65760405162461bcd60e51b815260206004820152601f60248201527f45524332303a206d696e7420746f20746865207a65726f2061646472657373006044820152606401620000d0565b8060026000828254620001fa9190620005e4565b90915550506001600160a01b0382166000908152602081905260408120805483929062000229908490620005e4565b90915550506040518181526001600160a01b038316906000907fddf252ad1be2c89b69c2b068fc378daa952ba7f163c4a11628f55a4df523b3ef9060200160405180910390a35050565b8280546200028190620005ff565b90600052602060002090601f016020900481019282620002a55760008555620002f0565b82601f10620002c057805160ff1916838001178555620002f0565b82800160010185558215620002f0579182015b82811115620002f0578251825591602001919060010190620002d3565b50620002fe92915062000302565b5090565b5b80821115620002fe576000815560010162000303565b634e487b7160e01b600052604160045260246000fd5b600082601f8301126200034157600080fd5b81516001600160401b03808211156200035e576200035e62000319565b604051601f8301601f19908116603f0116810190828211818310171562000389576200038962000319565b81604052838152602092508683858801011115620003a657600080fd5b600091505b83821015620003ca5785820183015181830184015290820190620003ab565b83821115620003dc5760008385830101525b9695505050505050565b600080600080600060a08688031215620003ff57600080fd5b85516001600160401b03808211156200041757600080fd5b6200042589838a016200032f565b965060208801519150808211156200043c57600080fd5b506200044b888289016200032f565b60408801516060890151919650945090506001600160a01b03811681146200047257600080fd5b608087015190925060ff811681146200048a57600080fd5b809150509295509295909350565b634e487b7160e01b600052601160045260246000fd5b600181815b80851115620004ef578160001904821115620004d357620004d362000498565b80851615620004e157918102915b93841c9390800290620004b3565b509250929050565b6000826200050857506001620005a7565b816200051757506000620005a7565b81600181146200053057600281146200053b576200055b565b6001915050620005a7565b60ff8411156200054f576200054f62000498565b50506001821b620005a7565b5060208310610133831016604e8410600b841016171562000580575081810a620005a7565b6200058c8383620004ae565b8060001904821115620005a357620005a362000498565b0290505b92915050565b6000620005bb8383620004f7565b9392505050565b6000816000190483118215151615620005df57620005df62000498565b500290565b60008219821115620005fa57620005fa62000498565b500190565b600181811c908216806200061457607f821691505b602082108114156200063657634e487b7160e01b600052602260045260246000fd5b50919050565b610fdc806200064c6000396000f3fe608060405234801561001057600080fd5b50600436106101215760003560e01c806370a08231116100ad578063a9059cbb11610071578063a9059cbb14610264578063c3d7402614610277578063dd62ed3e1461028b578063f2fde38b146102c4578063fca3b5aa146102d757600080fd5b806370a0823114610207578063715018a6146102305780638da5cb5b1461023857806395d89b4114610249578063a457c2d71461025157600080fd5b806323b872dd116100f457806323b872dd146101a4578063313ce567146101b757806339509351146101cc5780635e1e50f3146101df578063630fcfaf146101f457600080fd5b806306fdde03146101265780630754617214610144578063095ea7b31461016f57806318160ddd14610192575b600080fd5b61012e6102ea565b60405161013b9190610d84565b60405180910390f35b600654610157906001600160a01b031681565b6040516001600160a01b03909116815260200161013b565b61018261017d366004610df5565b61037c565b604051901515815260200161013b565b6002545b60405190815260200161013b565b6101826101b2366004610e1f565b610392565b60125b60405160ff909116815260200161013b565b6101826101da366004610df5565b610441565b6101f26101ed366004610df5565b61047d565b005b6101f2610202366004610df5565b610523565b610196610215366004610e5b565b6001600160a01b031660009081526020819052604090205490565b6101f2610615565b6005546001600160a01b0316610157565b61012e61064b565b61018261025f366004610df5565b61065a565b610182610272366004610df5565b6106f3565b6006546101ba90600160a01b900460ff1681565b610196610299366004610e7d565b6001600160a01b03918216600090815260016020908152604080832093909416825291909152205490565b6101f26102d2366004610e5b565b610700565b6101f26102e5366004610e5b565b61079b565b6060600380546102f990610eb0565b80601f016020809104026020016040519081016040528092919081815260200182805461032590610eb0565b80156103725780601f1061034757610100808354040283529160200191610372565b820191906000526020600020905b81548152906001019060200180831161035557829003601f168201915b5050505050905090565b6000610389338484610819565b50600192915050565b600061039f84848461093e565b6001600160a01b0384166000908152600160209081526040808320338452909152902054828110156104295760405162461bcd60e51b815260206004820152602860248201527f45524332303a207472616e7366657220616d6f756e74206578636565647320616044820152676c6c6f77616e636560c01b60648201526084015b60405180910390fd5b6104368533858403610819565b506001949350505050565b3360008181526001602090815260408083206001600160a01b03871684529091528120549091610389918590610478908690610f01565b610819565b6006546001600160a01b031633146104d25760405162461bcd60e51b815260206004820152601860248201527721b0b63632b91034b9903737ba103a34329036b4b73a32b960411b6044820152606401610420565b6104dc8282610b0d565b604080516001600160a01b0384168152602081018390527fc858a6e0f13503b6f7c4727e1532177a5a43a042537ab8d93b718184bc527e7391015b60405180910390a15050565b6006546001600160a01b031633146105785760405162461bcd60e51b815260206004820152601860248201527721b0b63632b91034b9903737ba103a34329036b4b73a32b960411b6044820152606401610420565b8061058260025490565b61058c9190610f19565b600654600254606491600160a01b900460ff16906105aa9190610f30565b6105b49190610f4f565b6002546105c19190610f19565b11156105cc57600080fd5b6105d68282610bec565b604080516001600160a01b0384168152602081018390527f4b42e6673c67f160cc6ca2f372db072da1d72afb6aa1c46aabd1e6cb8400a1439101610517565b6005546001600160a01b0316331461063f5760405162461bcd60e51b815260040161042090610f71565b6106496000610d32565b565b6060600480546102f990610eb0565b3360009081526001602090815260408083206001600160a01b0386168452909152812054828110156106dc5760405162461bcd60e51b815260206004820152602560248201527f45524332303a2064656372656173656420616c6c6f77616e63652062656c6f77604482015264207a65726f60d81b6064820152608401610420565b6106e93385858403610819565b5060019392505050565b600061038933848461093e565b6005546001600160a01b0316331461072a5760405162461bcd60e51b815260040161042090610f71565b6001600160a01b03811661078f5760405162461bcd60e51b815260206004820152602660248201527f4f776e61626c653a206e6577206f776e657220697320746865207a65726f206160448201526564647265737360d01b6064820152608401610420565b61079881610d32565b50565b6005546001600160a01b031633146107c55760405162461bcd60e51b815260040161042090610f71565b600680546001600160a01b0319166001600160a01b0383169081179091556040519081527fb47afe87c8374738d61604b305e5d2d8fc0d8c6164287b16aa2707d6454f12d99060200160405180910390a150565b6001600160a01b03831661087b5760405162461bcd60e51b8152602060048201526024808201527f45524332303a20617070726f76652066726f6d20746865207a65726f206164646044820152637265737360e01b6064820152608401610420565b6001600160a01b0382166108dc5760405162461bcd60e51b815260206004820152602260248201527f45524332303a20617070726f766520746f20746865207a65726f206164647265604482015261737360f01b6064820152608401610420565b6001600160a01b0383811660008181526001602090815260408083209487168084529482529182902085905590518481527f8c5be1e5ebec7d5bd14f71427d1e84f3dd0314c0f7b2291e5b200ac8c7c3b92591015b60405180910390a3505050565b6001600160a01b0383166109a25760405162461bcd60e51b815260206004820152602560248201527f45524332303a207472616e736665722066726f6d20746865207a65726f206164604482015264647265737360d81b6064820152608401610420565b6001600160a01b038216610a045760405162461bcd60e51b815260206004820152602360248201527f45524332303a207472616e7366657220746f20746865207a65726f206164647260448201526265737360e81b6064820152608401610420565b6001600160a01b03831660009081526020819052604090205481811015610a7c5760405162461bcd60e51b815260206004820152602660248201527f45524332303a207472616e7366657220616d6f756e7420657863656564732062604482015265616c616e636560d01b6064820152608401610420565b6001600160a01b03808516600090815260208190526040808220858503905591851681529081208054849290610ab3908490610f01565b92505081905550826001600160a01b0316846001600160a01b03167fddf252ad1be2c89b69c2b068fc378daa952ba7f163c4a11628f55a4df523b3ef84604051610aff91815260200190565b60405180910390a350505050565b6001600160a01b038216610b635760405162461bcd60e51b815260206004820152601f60248201527f45524332303a206d696e7420746f20746865207a65726f2061646472657373006044820152606401610420565b8060026000828254610b759190610f01565b90915550506001600160a01b03821660009081526020819052604081208054839290610ba2908490610f01565b90915550506040518181526001600160a01b038316906000907fddf252ad1be2c89b69c2b068fc378daa952ba7f163c4a11628f55a4df523b3ef9060200160405180910390a35050565b6001600160a01b038216610c4c5760405162461bcd60e51b815260206004820152602160248201527f45524332303a206275726e2066726f6d20746865207a65726f206164647265736044820152607360f81b6064820152608401610420565b6001600160a01b03821660009081526020819052604090205481811015610cc05760405162461bcd60e51b815260206004820152602260248201527f45524332303a206275726e20616d6f756e7420657863656564732062616c616e604482015261636560f01b6064820152608401610420565b6001600160a01b0383166000908152602081905260408120838303905560028054849290610cef908490610f19565b90915550506040518281526000906001600160a01b038516907fddf252ad1be2c89b69c2b068fc378daa952ba7f163c4a11628f55a4df523b3ef90602001610931565b600580546001600160a01b038381166001600160a01b0319831681179093556040519116919082907f8be0079c531659141344cd1fd0a4f28419497f9722a3daafe3b4186f6b6457e090600090a35050565b600060208083528351808285015260005b81811015610db157858101830151858201604001528201610d95565b81811115610dc3576000604083870101525b50601f01601f1916929092016040019392505050565b80356001600160a01b0381168114610df057600080fd5b919050565b60008060408385031215610e0857600080fd5b610e1183610dd9565b946020939093013593505050565b600080600060608486031215610e3457600080fd5b610e3d84610dd9565b9250610e4b60208501610dd9565b9150604084013590509250925092565b600060208284031215610e6d57600080fd5b610e7682610dd9565b9392505050565b60008060408385031215610e9057600080fd5b610e9983610dd9565b9150610ea760208401610dd9565b90509250929050565b600181811c90821680610ec457607f821691505b60208210811415610ee557634e487b7160e01b600052602260045260246000fd5b50919050565b634e487b7160e01b600052601160045260246000fd5b60008219821115610f1457610f14610eeb565b500190565b600082821015610f2b57610f2b610eeb565b500390565b6000816000190483118215151615610f4a57610f4a610eeb565b500290565b600082610f6c57634e487b7160e01b600052601260045260246000fd5b500490565b6020808252818101527f4f776e61626c653a2063616c6c6572206973206e6f7420746865206f776e657260408201526060019056fea2646970667358221220665d66fbd2f4f3c75a472fac5d20a97065911e4e485915ba88fb6ffcf625e27164736f6c634300080b0033",
    "sourcePath": "/home/system32uwu/repos/solidity-game/contracts/PlanktonToken.sol",
    "compiler": {
        "name": "solc",
        "version": "0.8.11+commit.d7f03943"
    },
    "functionHashes": {
        "allowance(address,address)": "dd62ed3e",
        "approve(address,uint256)": "095ea7b3",
        "balanceOf(address)": "70a08231",
        "burnPlanktons(address,uint256)": "630fcfaf",
        "decimals()": "313ce567",
        "decreaseAllowance(address,uint256)": "a457c2d7",
        "increaseAllowance(address,uint256)": "39509351",
        "maxBurnPercent()": "c3d74026",
        "mintPlanktons(address,uint256)": "5e1e50f3",
        "minter()": "07546172",
        "name()": "06fdde03",
        "owner()": "8da5cb5b",
        "renounceOwnership()": "715018a6",
        "setMinter(address)": "fca3b5aa",
        "symbol()": "95d89b41",
        "totalSupply()": "18160ddd",
        "transfer(address,uint256)": "a9059cbb",
        "transferFrom(address,address,uint256)": "23b872dd",
        "transferOwnership(address)": "f2fde38b"
    },
    "gasEstimates": {
        "creation": {
            "codeDepositCost": "812000",
            "executionCost": "infinite",
            "totalCost": "infinite"
        },
        "external": {
            "allowance(address,address)": "infinite",
            "approve(address,uint256)": "24665",
            "balanceOf(address)": "2563",
            "burnPlanktons(address,uint256)": "infinite",
            "decimals()": "235",
            "decreaseAllowance(address,uint256)": "27000",
            "increaseAllowance(address,uint256)": "27002",
            "maxBurnPercent()": "2374",
            "mintPlanktons(address,uint256)": "infinite",
            "minter()": "2383",
            "name()": "infinite",
            "owner()": "2398",
            "renounceOwnership()": "28162",
            "setMinter(address)": "27874",
            "symbol()": "infinite",
            "totalSupply()": "2371",
            "transfer(address,uint256)": "51187",
            "transferFrom(address,address,uint256)": "infinite",
            "transferOwnership(address)": "28400"
        }
    }
}